:020000041004E6
:1000000000600020C17305104964051059AA04104E
:10001000AA5555AA45554C420000000000000000BA
:10002000000000000000000000000000B58C05107A
:100030000000000000000000496C0510FD90051054
:10004000578604102965051000000000000000001C
:1000500049950510B38C0510892C0410FD980510E6
:100060000000000000000000000000000000000090
:1000700000000000450A04106BAA041069AA0410CD
:10008000000000002FD0041031D0041039D004102B
:100090003BD00410E1730510796505103D6E041026
:1000A0000000000000000000000000000000000050
:1000B0000000000000000000000000000000000040
:1000C000F0B543464C4655465E466746F8B40E4C7E
:1000D0006B4623600D4C20680D4C20600D4C206851
:1000E0000D4C20600D4C20680D4C2060BFF34F8FED
:1000F00030BF054C2468A546F8BC9846A146AA46E0
:10010000B346BC46F0BD00000800002004ED00E04E
:100110005C03002024ED00E06003002000E200E02A
:10012000640300200348854600F03EFC0048004779
:10013000F5FB05100060002030B50B46014600209D
:100140002022012409E00D46D5409D4205D31D46DD
:100150009540491B2546954040191546521E002DD5
:10016000F1DC30BD70B500242546002801DA0124F9
:100170004042002901DA01254942FFF7DDFFAC4288
:1001800000D04042002C00D0494270BD10B5441A46
:100190000346944209D28318891803E0491E0C785B
:1001A0005B1E1C70521EF9D210BD0C460443A407FE
:1001B00003D009E010C9121F10C3042AFAD203E0C9
:1001C0000C781C70491C5B1C521EF9D210BDD2B2B7
:1001D00001E00270401C491EFBD270470022F6E786
:1001E00010B513460A4604461946FFF7F0FF2046AD
:1001F00010BD30B504460020034600E05B1C93426E
:1002000003D2E05CCD5C401BF8D030BD0321001D63
:10021000401E037812021A43491EF9D51046704752
:10022000034603220870000A491C521EFAD51846DC
:100230007047024670B54A40D30FDB0740002DD00F
:100240004A002AD0010E140E000212020919400AB7
:10025000520A8418E50104465443000A120A2E0487
:100260005043A4194219200CC543AA18120C0125A9
:10027000AD03521C521912047F39240400D0521CC1
:10028000104301D44000491EC2B20C06C009201818
:10029000401C4008802A02D003E0002070BD4008C6
:1002A0004000002900DA0020184370BD70B50246F6
:1002B0004A40D50F40004A00ED0740085208002888
:1002C00014D0002A12D0C40DD30D41020120C00564
:1002D0005202490A520AE41A091812187D3491424E
:1002E00001D3641C00E04900002C01DA002070BD3D
:1002F0000023914201D3891A034340084900002892
:10030000F7D100290AD0914202D10121C90705E0A5
:10031000914201D2012101E00121C943E005C01849
:10032000401900F0ACF970BDF0B5074608465840DA
:1003300087B0C00F049048000E4659004008490895
:10034000BC1A884105D2384631461E4617460B4630
:1003500002465800400810434CD0300D0390400531
:100360005900400D490D0590401A0290402872DA5C
:1003700018030121000B090508430190049800921D
:10038000002805D001995242002088410092019036
:10039000029840210A1A0199009800F04DF905468B
:1003A0000C466B4607CB00F057F9C0197141039A10
:1003B0000E0D0023D71756401A467A40164344D0F4
:1003C000049A002A2DD0029A012A039A15DC1205FC
:1003D000C01A914101263605001C7141D20F059EBD
:1003E000D2070093019202962A46234600F095F91F
:1003F00007B0F0BD38463146FAE71605224A0F46E7
:10040000B218C01AB74101210905001C4F4100185C
:100410007F41114618187941E20F10436D1964416C
:1004200013E0E2076D0815436408C2071443039AFA
:1004300001261205C01A91413605001C7141CE07F4
:10044000400830434908C01851412A46234600F06D
:1004500057F9CDE7FFE7049801224000C117121AAF
:1004600000238B4104983146C417381AA141EEE7A6
:1004700030B40124E407634030BC55E730B40124B4
:10048000E407614030BC4FE70000E0FFF0B51FB467
:1004900088B00B990998002448400999C00F490079
:1004A00049080991C0070B990090490049080B9130
:1004B00009990898A64608431CD00B990A98084346
:1004C00018D0099801244000420D4800410D0998B8
:1004D00024050003000B204309900B980003000B38
:1004E00020430B9050181C494018002201901446DC
:1004F000104605E0002001460DB0F0BD032801DAEA
:10050000034600E003239C46C11A0AAE0AE05F00DE
:1005100008ADED5B4F00F75B7D430027AA187C41D7
:10052000491C5B1E6145F2DD410004AB5A522104B7
:10053000120C0A43240C401C0828DFDB01980290AF
:100540000099704601910090059B049A07990698BE
:1005500000F0E3F8D0E700000DFCFFFF10B500222B
:100560009623114600F093F810BD00000EB5054922
:100570000291002100910A460B46019100F0CDF84E
:1005800003B000BD33040000410040020122400AD4
:10059000D205090E80187F2901DA002070479629BC
:1005A00003DC9622511AC84070479639884070473C
:1005B000C20FD207400040080BD0C10D0723DB015A
:1005C000C91840020905400A1143C20840071143F7
:1005D000704700200146704710B5002904DB012454
:1005E000E40740428C412146002B04DB1C460123DA
:1005F000DB075242A341994200D1904210BD000056
:10060000CB0FDB07490010B5490802460A4307D063
:100610000A0D07240903E401090B121B002A01DC5F
:10062000002010BDC900440F0C43C100E018D205E2
:10063000801800F024F810BD10B5202A04DB014614
:10064000203A9140002010BD914020239C1A03467F
:10065000E3401943904010BD10B5202A06DBCB17AC
:100660000846203A1041C1170B4306E00B461341E0
:10067000D0402024A21A91400843194610BD0029F9
:1006800004DA401C490001D140084000704770B4B2
:100690000024050C05D11024000402D1002921D02A
:1006A0001124050E01D100020834050F01D100010B
:1006B000241D850F01D18000A41C002801DB40000F
:1006C000641C002908D020252E1B0D46F540A140B2
:1006D00000D001212943084301061B1B000ADB1D32
:1006E00002D5002070BC7047DB051818801800295F
:1006F000F8DA401C4900F5D170BC40084000704752
:1007000010B5002B08DA0024401C614192185B41AF
:100710001A4301D14008400010BDF0B51FB482B0AB
:1007200005460C0003D0084619F0B2FB02E019F0B0
:10073000AFFB20300246009021462846FFF77CFFA1
:10074000049B059A04460F4618431143084314D0EE
:10075000184610431BD0009840210A1A18460599E4
:1007600000F034F905460E46009A05990498FFF703
:1007700063FF084305D0012004E02046394607B056
:10078000F0BD0020C11705430E432C4337430099A9
:100790000E986305401A7905E40A00220C43FD0A0D
:1007A0000A3002D500200146E9E701051019694128
:1007B0000C9C0D9D00196941FFF7A2FFDFE70000C7
:1007C000F0B50C465C4085B0E40FE40703944C00A0
:1007D00000266408590094464908024602962243BE
:1007E00021D062460A431ED06200570D4A000E0314
:1007F0002303550D012402462C492405781B1B0BAD
:10080000360B401823432643614600901C46501A7D
:10081000B44103D30098401C009002E09218009865
:100820005B41002803DA0020014605B0F0BD00203E
:10083000012109050746864611E064461D46141B42
:10084000B54106D36546521BB341744607430C437A
:10085000A646CD0740084908284392185B41054643
:100860000D43EAD11046184313D060461946504054
:100870007140084306D06046101AB34106D20122E7
:10088000002306E000220123DB0702E00122D2431D
:100890005310009874460105381C6141029C039D69
:1008A00000196941FFF72CFFBFE70000FD030000BE
:1008B00070B54B005B0803430BD04B005C0D00266A
:1008C00033466542B341D417AD1AA34102DB002081
:1008D000014670BD12053018514170BDFEB50023B0
:1008E0001A461B1A8A4103DB0020014603B0F0BD03
:1008F0004A000D0301212D0B0905520D0D43D107AF
:1009000002D100186D41521E5110FF31FF310131EB
:10091000002704463E4638460097019102460121D1
:100920000020090500F052F8C3197141F818324649
:1009300084468E464A4161462846611A904104D356
:100940006046241A954176461F46241900986D4149
:10095000401C00903428E1DDF91930467041091B34
:10096000A84103D20022D243134601E000221346DD
:1009700001980105381C7141FFF7C2FEB6E700007F
:100980000EB5C217C10F5040CA0740180021054BD1
:100990000293019200910A460B46FFF7BEFE03B098
:1009A00000BD000033040000064C0125064E05E0A2
:1009B000E36807CC2B430C3C98471034B442F7D380
:1009C000FFF7B4FB283B0610B83B061010B5202AF1
:1009D00004DB0846203AD040002110BD0B46D3402E
:1009E000D0402024A21A91400843194610BD70B58A
:1009F0008C180578401C6B075B0F01D10378401CF5
:100A00002A1106D10278401C03E006780E70401CC3
:100A1000491C5B1EF9D12B0705D40023521E0DD4AF
:100A20000B70491CFAE70378401CCB1A921C03E0B8
:100A30001D780D70491C5B1C521EF9D5A142D8D3FC
:100A4000002070BD70470000FFB50446002093B041
:100A50000090019002900390002C0FD01498002871
:100A60000CD01698002809D01C98002806D02079B0
:100A70004007800F05D0684817B0F0BD61204001E5
:100A8000FAE7204614300F90103000260B902430E7
:100A900009903AE0636B6946099A0F9800F074FF79
:100AA000206A401C00272062BD00AA1914981192E8
:100AB00010180E90FFF7AAFB00BA010A0E9809025F
:100AC000C0787F1C01436846425951404151169BF2
:100AD000119AD218D170415B090A91704159090CE1
:100AE00051704159119A0B0E16998B54291940597E
:100AF000496A484005A94851042FD5DB636B05A816
:100B0000099A0B9900F040FF109E3046103010906B
:100B100015998842BEDD8E4278DA20790421084397
:100B20002071636B6946099A0F9800F02DFF1598A4
:100B30000025811BC817800F401880100C91109061
:100B400028E0AF00BA191498119210180F90FFF70F
:100B50005DFB00BA010A0F980902C078014368469C
:100B6000C2595140C151169B119AD218D170C15B24
:100B7000090A9170C159090C5170C159119A0B0E93
:100B800016998B543919C059496A484005A9C8516A
:100B900010986D1CA842D4DCA80001194A6A05A966
:100BA0000A500C990022091A8E461EE081198B18F2
:100BB00014991193C95CD7001823DB1B9C469940FC
:100BC0006B461B5859406B4619506346D940169FD7
:100BD000119BF954694609586346D940C9B29940F6
:100BE00005AB1F5879401950521C9645DEDC05A90B
:100BF00003E0A8000219526A0A506D1C042DF8DBAC
:100C0000636B05A8099A0B9900F0BEFE1C99159814
:100C10000860002030E700001E0C0000F0B5002145
:100C20008BB005460491059106910C46079100286A
:100C30000CD0002A0AD0A86B002804D0E86B00284A
:100C400001DB102805DD29480BB0F0BD6120400113
:100C5000FAE71160287902210843287104A928467F
:100C600000F066FF002004AA81004E195358766AEE
:100C7000401C734053500428F6DBE96B0026C8176C
:100C8000800F401880100891019012E0A86BB70007
:100C90000390C019FFF7BAFA00BA010A0398FA1CC8
:100CA000805C0902014304A8C059484004430198EC
:100CB000761CB042EADC089A0020B100521A0CE01F
:100CC00004AB5B58C7001826F61BF340AE6B0F1839
:100CD000F65DDBB273401C43401C8242F0DC002C0A
:100CE00002D0FB208000AFE70148ADE71F0C0000F9
:100CF000EB03000010B500F05DF910BDFFB5044630
:100D0000002093B01F460090019002900390002CA9
:100D10000ED0149800280BD0002F09D01C98002862
:100D200006D020794007800F05D0824817B0F0BD6B
:100D300061204001FAE7204614301290343000253B
:100D4000099024380D9047E00026B00041190E901C
:100D5000149808180890FFF759FA00BA010A089881
:100D60000902C07804AA01430E98761C11500E980F
:100D70000019426A51404162042EE6DB0D99636B13
:100D80000846099A00F000FE636B6946099A1298BA
:100D900000F0FAFD206A401C0021206288006A46AB
:100DA000165C04AA125843199C465640DB19DE70A3
:100DB0006E46365A491C5640360A9E706E46365864
:100DC0005640360C5E706B46185863465040000E15
:100DD000F8540429E2DB0F9D1599284610300F9036
:100DE0008842B1DD8D427DDA2079042108432071EB
:100DF00015980026401B0C90C017810F0C980818FE
:100E000080100F901AE0B100089114984919091840
:100E100008460E91FFF7FAF90E9900BA000AC97850
:100E200000020843089904AA505008996A46091913
:100E3000496A48400899761C50500F98B042E2DC4D
:100E40000022B00004A90A500C999446091A8E4653
:100E5000411911910FE011998A181499895C624621
:100E6000D3001822D21A914004AA135859401150A5
:100E70006146491C8C466246E645ECDC04A9021931
:100E80000B58526A53406A461350002306E0B000E4
:100E900004AA135001194A6A69460A50761C042EA6
:100EA000F5DB636B6846099A0D9900F06DFD636B85
:100EB0006946099A129800F067FD00201AE0810047
:100EC0006A46545C04AA52584E195440F319DC7017
:100ED0006C46645A5440240A9C706C4664585440D2
:100EE000240C00E020E05C706B4659585140090E1C
:100EF000B955401C0F998142E1DC80006A4604AB81
:100F000011581B58594011500C9A0021121A4319BC
:100F100008E06C462458CE001825AD1BEC405D1847
:100F20007C55491C8A42F4DC1C9915980860002005
:100F3000FCE600001E0C0000F0B50446002085B061
:100F400015460F460090019002900390002C19D096
:100F5000002F17D0002D15D02079022108432071D1
:100F60006946204600F0E4FD002168468A00161913
:100F70008358766A491C734083500429F6DB0021AC
:100F8000182210E06120400105B0F0BDCB179B0F87
:100F90005B189B089B001B188E071B68F60E961BA0
:100FA000F3407B54491CE36B8B42EFDC00202B6049
:100FB000EAE70000F0B5002585B016460B4604466A
:100FC000009501950295039500280AD0002B08D0C2
:100FD000002E06D0E06B011F0D2912D2C00710D1E0
:100FE00003E06120400105B0F0BD2069072808DB5F
:100FF0000D2806DC626B102A05D0182A03D0202A9F
:1010000001D05C48EFE7E6602079E92108402071D3
:10101000C107204648300490002904D1A360184637
:10102000049900F0B9FCA08F227C0107072040073B
:101030000818400FC1000E20801A4007400F0143DE
:10104000206C002801D040200143E0680906827826
:101050000A43017840780904000201430A430092E0
:10106000E0680646C01CFFF7D1F800BA000AB17963
:101070000002084301900720182614E0C11FCA1778
:10108000920F51188A089200694652181146E36877
:10109000C71FBF0708311B5CFF0E9268F71BBB40E0
:1010A0001A43401C0A6021698142E7DC0398616CA5
:1010B000049A084303902146636B2431684600F08C
:1010C00063FC217C0E20401AE7684107B878490983
:1010D000084339787A7809041202114308436061A1
:1010E000F81CFFF793F800BAB979000A0002E5612D
:1010F00008432562A061072013E0C11FCA17920FA1
:101100005118890889000A191146E368C71FBF07EB
:101110001C311B5CFF0ED269F71BBB401A43401CFD
:101120000A6021698142E8DC206A012108432062CB
:10113000206C00281CD00020810009198031401C3F
:101140008D670428F8DBE11DFF22206C1202F931C3
:101150008034904203DA0004A067022007E00123F4
:10116000020C5B04D21A0004A267E06706208860C4
:10117000002038E71F0C0000F7B500258AB017469D
:101180000446002809D00B98002806D020791221A7
:10119000084205D065480DB0F0BD61204001FAE776
:1011A000002F70D0206CC01B2064E01DF930089027
:1011B000806814E0C117890F0918890889000A1985
:1011C000F832944611680B9A8307DE0E525D18239D
:1011D0009B1B9A4011436246401C6D1C116008998C
:1011E0008968C919102900D310218142E2DC00204E
:1011F00081000919F82252584B6A401C5A404A6231
:101200000428F5DB21462246636B24314832084628
:101210000592039100F0B8FB0899002088601DE05A
:101220000026B000411906900B9808180190FEF7AF
:10123000EDFF00BA010A01980902C078761C01434B
:1012400006980019426A51404162042EE9DB039975
:10125000636B0846059A00F097FB049D2846103002
:101260000490B842DCDDBD425DDA207910210843EC
:101270002071781B0690C017810F06980026081869
:101280008010019013E04EE0B000411909900B98D6
:101290000F183846FEF7BAFF00BA010AF8780902BB
:1012A000014309980019803081670198761CB0428B
:1012B000EADCB1000A19002080329067069B5B1AB5
:1012C0009C464B199E460BE073461D180B9BC700AE
:1012D0005B5D1825ED1BAB40956F2B43401C93675E
:1012E0008445F1DC091808988160002003E0B10012
:1012F000091980318867761C042EF8DB206C0028E1
:1013000011D181000A19114680318B6F526A401C3D
:1013100053408B670428F4DB2046636BF830059A52
:10132000039900F031FB002035E700001E0C00009F
:10133000F7B5002592B00F460446002804D0002FD0
:1013400006D11498002803DD6120400115B0F0BDDE
:101350001498002804DB102804DA2079800601D4D0
:101360009448F3E72079410701D4810702D59148D9
:10137000401CEBE7402108432071204614300F90B9
:10138000143001901EE00026B00004904019C019EE
:101390000390FEF73BFF00BA010A03980902C078E8
:1013A00007AA01430498761C00194069414004983B
:1013B000042E1150E8DB636A07A8019A0F9900F028
:1013C000E3FA059D28461030059014998842DADB2F
:1013D0002079800620D400291EDD0026B00004906C
:1013E0004019C0190390FEF711FF00BA010A0398D3
:1013F0000902C07807AA01430498761C00194069C5
:1014000041400498042E1150E8DB636A07A8019A52
:101410000F9900F0B9FACAE000200B900C900D90E3
:101420000E900BA9636A0846019A00F0ADFA0B987A
:101430008721C00F48430B990C9A4900D20F1143E2
:101440000B910C990D9A4900D20F11430C910D99F3
:101450000E9A4900D20F11430D910E99149A49002A
:101460004140284610300E9190421CD10026B00019
:1014700002904019C0190490FEF7C8FE00BA010A94
:1014800004980902C0780BAB01430298761C00193E
:1014900042690298185842405140029807AA1150D8
:1014A000042EE4DB79E00B988722C00F50430B9A9F
:1014B0000C9B5200DB0F1A430B920C9A0D9B5200AF
:1014C000DB0F1A430C920D9ACB0F52001A430D9268
:1014D0004A00424014980E92401B0390C017820F9E
:1014E0000398002610188010029019E0B0001090A8
:1014F0004019C0190490FEF789FE00BA010A049849
:101500000902C0780BAB014310980019426910988A
:10151000185842405140109807AA11500298761C62
:10152000B042E3DCB00001190BAA496912585140DE
:1015300007AA1150039B00211B1A42199C4696468C
:101540000BE072465218BA5CCD0018235B1B9A4020
:1015500007AB1D586A401A50491C8C45F1DC002924
:1015600009D0CD00182107AA4D1B13588021A9408E
:101570004B40135005E007A90A580123DB075A40E6
:101580000A5007A90BAA05E0B00003195B691558BA
:101590006B400B50761C042EF6DB636A07A8019A99
:1015A0000F9900F0F1F920790421084320710020FF
:1015B000CCE600001D0C0000F8B516460F460400EE
:1015C00009D0002E07D025468035E86D401E102832
:1015D00004D31348F8BD61204001F8BD20794006CE
:1015E00004D4002211462046FFF7A2FE20790221F2
:1015F00008432071002018210CE0C217920F121826
:1016000092089200121983075269DB0ECB1ADA4056
:101610003A54401CEA6D8242EFDC00203260F8BD93
:101620001F0C000010B5040007D002230022A1689F
:1016300000F096FA010003D00CE06120400110BDDB
:10164000002010222261024683001B19401C5A61AF
:101650000428F9DB084610BDFFB587B007981E4681
:1016600000280FD0089800280CD0002E0AD010981F
:10167000002807D00998002801DB000705D024487E
:101680000BB0F0BD61204001FAE7079800798007B0
:1016900002D51F48401CF3E700242EE00027B800C5
:1016A0000119059008980D182846FEF7AFFD00BAFD
:1016B000010AE8780902014305986D467F1C29500C
:1016C000042FECDB079829460246436A2832084675
:1016D00000F05AF90021880003192F5C9A19D7707D
:1016E0002F5A491C3F0A97702F583F0C57702858A3
:1016F000000EF0540429EEDB049C204610300490C8
:1017000009998842CADD109804600020B8E70000FB
:101710001D0C000010B5022300F022FA10BD0000DD
:10172000FFB5D910490083B0891D02910368116883
:1017300054684B404168956861408468C0686C405B
:10174000A446D4681E0E60408C4CC5B2A65D655D93
:101750003606354367460E023F04360E3F0EA65D41
:10176000E75D36043F023E43354300950E0EDDB281
:10177000A65D655D36063543664636020704360EBD
:101780003F0EA65DE75D36043F023E433543AE465D
:10179000CDB2665D65462F0EE75D1D043F063E43F4
:1017A00007023F0E2D0EE75D655D3F042D022F43BE
:1017B0003E4301966546EDB2070E665DE75D0D049A
:1017C0003F063E431F023F0EE75D2D0E645D3F0462
:1017D00024022743029C3E43641E10320294002CD4
:1017E00065DD674C00986749204043000098654DCF
:1017F000C00908401B21484343400099184648400F
:101800001821C841434000981021C8414340009826
:101810000821C841434010685A4F43407046204059
:1018200041007046C00928401B25684341400846D6
:10183000754668401825E841414070461025E8414A
:10184000414070460825E84141405068019D4140B3
:101850000198ED0920403D4040001B277D43684032
:10186000019F05467D401827FD416840019D1027D6
:10187000FD416840019D0827FD416840956868402A
:101880008446304620403F4DF4092C4040001B2543
:101890006C436040044674401825EC4160401024BD
:1018A0003546E54108246840E641704049E7334C3D
:1018B000C5B2665D1D0E645D240626430C02250E2E
:1018C0002E4C645D65462D042F0E2C4D2404ED5DD9
:1018D0002D022C432643294C0096DDB2655D0E0E89
:1018E000A45D2406254364462402260E234CA45DF1
:1018F0000604370E214E2404F65D36023443254398
:10190000AE461E4CCDB2645D65461C4E2F0EF55D95
:101910002D062C4305022F0EF55D1F042E043D0EEF
:10192000164F7F5D65463F023E433443EEB2134D92
:10193000AF5D050E1148405D000607431802030E17
:101940000E48C05C09040B0E0C490004C95C936886
:101950000902084307431068009E63405168049CD5
:101960007040D268206075460498694041600498D0
:101970007A4083600498C26007B0F0BD5C380610FE
:101980007F7F7F7F0101010100B5FFF7C9FE00BD28
:1019900010B500F001F810BDF7B5029800248610CC
:1019A0000DE00098A7003D182846FEF72FFC00BA6E
:1019B000000AE978000208430199641CC851A64254
:1019C000EFDC0199029A084600F002F8FEBD000023
:1019D000F0B500231D46941003E0AA0086588E50EF
:1019E0006D1CAC42F9DC504F504A042C04D0062C3C
:1019F00028D0082C7ED14FE0C86805022D0E040EB9
:101A0000555D145D2D062C4305042D0EC0B2555DA9
:101A1000105C2D04000205432C439D007D5908688D
:101A20006840444001205B1C0C61840065180C591F
:101A3000EE68401C66402E610428F6DB0A2B71DA42
:101A40001031D9E7486905022D0E040E555D145D6D
:101A50002D062C4305042D0EC0B2555D105C2D04DF
:101A6000000205432C439D007D59086868404440AE
:101A700001205B1C8C61840065180C596E696640FE
:101A8000AE61032804D0401C0628F4DB1831D9E7E6
:101A9000082B47DA0420EEE7C86905022D0E040E74
:101AA000555D145D2D062C4305042D0EC0B2555D09
:101AB000105C2D04000205432C439D007D590868ED
:101AC0006840444001205B1C0C62840065180C597E
:101AD000EE69401C66402E620428F6DB072B21DAF3
:101AE000C86A050EC4B2555D145D2D062C4305026F
:101AF0002D0E00E016E00004555D000E105C2D0474
:101B00000002054308692C43444005200C6384000F
:101B100065180C59EE69401C66402E620828F6DBF9
:101B20002031B9E7F0BD00005C3A06105C380610C1
:101B300010B502690B2A09DD0F24A21AD400002275
:101B4000D243036AA2401340036201E00022026212
:101B50000246436B48321430FFF716FF10BD0000F9
:101B6000F8B59E468C46002807D0002905D05907B5
:101B70008C0F002A04D1012C02D061204001F8BD55
:101B8000416A102903D0182901D0202905D1012C40
:101B900005D00169491E102901D32148F8BDC26052
:101BA0000179F92319400171012C20D000210B4645
:101BB0008D002D18491C6B610429F9DB002113E00D
:101BC000CB179B0F5B189F08BF003D182E4614369D
:101BD0000096CF1B565CFF0018236D69DF1BBE40CB
:101BE0003543009E491C356003698B42E8DC01796E
:101BF000C9070DD1614681607146CA070146283187
:101C0000002A07D0032C05D0426A6046FFF7C0FEC9
:101C10000020F8BD426A6046FFF7BEFEF8E700000C
:101C20001F0C00007FB505469868012202739A6870
:101C30001C4651739868022202A90E3014F079FCF8
:101C4000A16805200D74E0807FBD70B50646088848
:101C50001D460C46001D81B213460222304614F088
:101C600021FE21882B46891C2180091D89B2022270
:101C7000304614F017FE2088801C208070BDFEB511
:101C800000240E462746056845E028680290A968AA
:101C9000022230460D3114F04CFC3088B84209D095
:101CA00087B2384607F03AF9014601AA384608F0EB
:101CB000B9F8019CA968022268460F3114F039FC7A
:101CC000E888401F81B22220005D002806D001284C
:101CD0000BD0002811D0012814D01BE0E08B6A46FD
:101CE0001288401E904206D307E0208C6A46128874
:101CF000401E904206D20720FEBD684600880818A4
:101D0000E18B03E0684600880818218C884201D9DD
:101D10000D20FEBD029D002DB7D100203080FEBDFC
:101D2000FFB5C8880025401E83B00E4687B2012447
:101D300027E0B0680222083001196846091D14F036
:101D4000F8FB6846008807F0E9F801001DD06846F6
:101D50000A8D0088824212D001AA08F063F8002898
:101D60000DD101992620405C400708D506986A00ED
:101D7000101802221C3114F0DCFB6D1CADB2A41C47
:101D8000A4B2BC42D5D30C98058007B0F0BDFFB516
:101D9000074683B0002000900D9807F0BFF8054675
:101DA00006980C300190002D26D00837BD4223D074
:101DB000288D0E9988421FD80D99884213D30E9909
:101DC000884210D8294602222A31019814F0B1FB2A
:101DD00010220C99069814F0A8FB002809D0298D30
:101DE0000E98814208D02E462C6A2036B442DDD0AF
:101DF0003EE005980021018007B0F0BDA08B0D9951
:101E0000884234D30E99884234D82046203002903C
:101E1000C078012808D02046083010220C9914F010
:101E200084FB002808D022E02146022208310198D4
:101E300014F07FFB0698F0E702988079400716D5EA
:101E40000098002801D1E08B0090E18B814211D1F4
:101E500005980222008841000498081821461C3188
:101E600014F067FB059805990088401C08802468D9
:101E7000B442C3D12D6899E70648002102680B20BF
:101E8000C00110180170417003218170C1700020E1
:101E9000704700003805002070B50D4D0446012341
:101EA00028689902401890261A46006F314618F0AB
:101EB000B5FA010003D030464C6018F09BFA0B20B5
:101EC0002968C00109180878401C087070BD00001E
:101ED0003805002010B5044600202082A074A168B7
:101EE000A1616161206020460AF094F8452801D084
:101EF000412010BDA08803211AF068FD04461BF0A4
:101F0000EBFB002812D072B60948012201681520A7
:101F100080010918487EA2401043487662B600202E
:101F20001FF020F8002801D019F0FCFA002010BDA5
:101F30003805002070B5C17C0E4D4906490EC174AC
:101F40000446012328689902401890260022006F59
:101F5000314618F063FA010003D030464C6018F0A7
:101F600049FA0B202968C00109184878401C4870BC
:101F700070BD00003805002000207047014800793E
:101F800070470000CC02002010B5012016F042FF7F
:101F900010BD10B5012016F036FF10BD0248C07804
:101FA000032800D903207047CC0200200EB5302151
:101FB0006A46118001219180118111780170517858
:101FC0004170117981705179C170117A0171517A22
:101FD000417100200EBD10B50621012018F03AFE17
:101FE000002800D0022010BD3EB50D4A044607CAA5
:101FF0006B4607C34B21684681715321C171A121F2
:102000000172542141720A2269462046FEF7BEF849
:102010002046062203490A30FEF7B8F800203EBDEC
:10202000082E0610D802002010B5034800F012FD5B
:10203000002800D0022010BDD42D061070470000EB
:1020400005490020401C0628FCDB4879C0221043CB
:1020500048710120C8717047D802002070B508F09F
:1020600011FB002827D1012016F0BDFF04F0C8FEA7
:102070000446114D03E008F005FB002818D104F0D8
:10208000BFFE001BA842F6D300F0FAFF04F0B8FE32
:10209000044601E000F0AAFF04F0B2FE001B642831
:1020A000F8D301E000F088F808F0ECFA0028F9D045
:1020B000002016F098FF70BDB80B000007494A7861
:1020C0000B78120612141A4302704B780A7819061C
:1020D000091411430912417000207047E7020020E3
:1020E000024909780170002070470000E6020020D4
:1020F00070B5427801781006001408430749020AB7
:1021000008700124CD1E4A70322801DB012000E056
:10211000002016F068FF6C70002070BDE702002000
:1021200001290BD1417802780806001404491043B4
:102130000870000A48700120C91E0870002070470E
:10214000E702002010B54178007809060914014320
:1021500008480170090A417009060278080C10430A
:102160000022054915F002F80146022014F0EEF8AD
:10217000002010BDE7020020FF7F000010B50D4CCD
:102180000078207016F02FFF2078012809D0002158
:10219000042014F0DBF80021012014F0D7F800200F
:1021A00010BD7D24E4012146042014F0CFF821461F
:1021B000F2E70000E602002070B5094C01206070D3
:1021C00000F010F8FF25F535284604F01FFE00202A
:1021D000607000F007F8284604F018FE002070BD7B
:1021E000CC02002010B50248407816F0FCFE10BD6D
:1021F000CC0200200020704700207047002070476C
:102200000020704712494A780B7812021A43027074
:102210004A780B7812021A43120A4270CA788B78F5
:1022200012021A438270CA788B7812021A43120A79
:10223000C2704A790B79120612141A4302714B7953
:102240000A791906091411430912417100207047D7
:102250000A0300200C494A780B7812021A430270D4
:102260004A780B7812021A43120A4270CA788B78A5
:1022700012021A438270CA788B7811021943090A34
:10228000C170002070470000040300200E49097847
:1022900001700D498A784B7812021A4342708A788D
:1022A0004B7811021943090A817007490A79CB78E2
:1022B00012021A43C2700A79CB7811021943090A33
:1022C0000171002070470000FF0200200D49CA780C
:1022D0008B7812021A430270CA788B7812021A4362
:1022E000120A42704A790B79120612141A4382704C
:1022F0004B790A791906091411430912C17000209B
:1023000070470000040300200E49097801700D4950
:102310008A784B7812021A4342708A784B781102FD
:102320001943090A817007490A79CB7812021A43C6
:10233000C2700A79CB7811021943090A0171002091
:10234000704700006C0500200649CA788B7812029D
:102350001A430270CA788B7811021943090A417036
:1023600000207047100300200E49097801700D49C4
:102370008A794B7912021A4342708A794B79110299
:102380001943090A817007490A7ACB7912021A4364
:10239000C2700A7ACB7911021943090A017100202F
:1023A000704700006C05002006494A790B7912023B
:1023B0001A4302704A790B7911021943090A4170D4
:1023C000002070471003002011494A780B78120250
:1023D0001A4302704A780B7812021A43120A4270AA
:1023E000CA788B7812021A438270CA788B781202EC
:1023F0001A43120AC2704A790B7912021A43027107
:102400004A790B7911021943090A4171002070477A
:102410001003002006494A780B7812021A43027012
:102420004A780B7811021943090A4170002070475D
:10243000F40200200D4A5178137809021943017003
:102440005178127809021143084A090A4170121D95
:10245000D1789378090219438170D1789278090272
:102460001143090AC170002070470000F2020020E9
:102470000E49097801700D498A784B7812021A4387
:1024800042708A784B7811021943090A8170074912
:102490000A79CB7812021A43C2700A79CB781102FA
:1024A0001943090A0171002070470000FA02002058
:1024B0000C494A780B7812021A4302704A780B785A
:1024C00012021A43120A4270CA788B7812021A4317
:1024D0008270CA788B7811021943090AC1700020F2
:1024E00070470000F602002000207047002070476F
:1024F00000207047002070470020704710B5044648
:10250000407821780002084316F06DFD607821784C
:102510000002084302490870000A4870002010BDFC
:10252000F402002041780278080203491043087041
:10253000000A487000207047F20200200A4A017821
:102540001170827843781102074A19435170090AC1
:1025500091700179C278080203491043C870000ADB
:102560000871002070470000FA02002041780378CB
:102570000A0207491A430A70120A4A70427803781D
:102580001002184302D08870000AC87000207047FB
:10259000F602002010B50021022013F0D7FE012121
:1025A000042013F0D3FE0021012013F0CFFE10BD54
:1025B000FEB5044617200E4600900190E620092142
:1025C00006254F2A0FD0154B07256D279A4210D1AB
:1025D000257067702A20A070042201A9E01CFDF775
:1025E000D5FD356018E02070617004226946A01C9A
:1025F000F5E72070617004226946A01CFDF7C6FD56
:10260000A571E7712A2020722046042201A9093011
:10261000FDF7BCFD0D2030600020FEBD6D2A0000DE
:102620001EB5104C1CCC0092029401936A4612888D
:102630000270120A42706A4652888270120AC27090
:102640006A4692880271120A42716A469279C27190
:102650006A46D27902726A46127A4272082008608B
:1026600000201EBDDC2E0610FEB5364C002700787B
:10267000661E3D462070012808D002280AD0032893
:1026800038D0042800D001273846FEBD01206070F4
:1026900002202DE000F09AFB694603E04A556D1CCC
:1026A000EDB2401C0278002AF8D1087800F0B0FBA7
:1026B00060706846407800F0ABFBA0706846C07858
:1026C00000F0A6FBE0706846007900F0A1FB2071E5
:1026D0006846807900F09CFB60716846C07900F024
:1026E00097FBA0716846007A00F092FBE071082029
:1026F0003070C9E700F062FB694603E04A556D1C83
:10270000EDB2401C0278002AF8D1087800F080FB76
:1027100060706846407800F07BFBA0706846C07827
:1027200000F076FBE0706846407900F071FB2071A4
:102730006846C07900F06CFB60716846407AA07111
:102740000720D5E7EA020020F8B5074600200090F0
:1027500014463D7804F054FB2A4E2B0017F0BCFBC6
:10276000073F1420093F052E3F00012C24D1797822
:102770001CE0012C20D124480178002902D000213E
:10278000017019E00121FBE7012C02D0022C04D0DA
:1027900012E01D48012505700EE07D21090208E0C8
:1027A000012C02D0022C03D006E000211648E7E7F6
:1027B0000021022013F0CAFD357015E0012C0CD168
:1027C000B8787C780002044300221049204614F0B7
:1027D000CDFC0146022013F0B9FD35700DE001205B
:1027E00000903570062D08D00748022100787070DF
:1027F0000448401E01700098F8BD200A7070B47043
:102800000321F5E7EA020020CD020020FF7F00004F
:1028100070B50C4601460C4E00783070801E0025C5
:10282000030017F059FB05040E0E0E0E0D00224694
:10283000701CFDF7ABFC0448401E641C047000E0F3
:102840000125284670BD0000EA020020F8B51646B2
:102850000D460746002416F067F8002806D03246D9
:102860002946384604F02CFA044604E020356879FD
:10287000002802D00E242046F8BD2879C10701D1D6
:10288000012E09D0810701D4022E03D04007F2D4D3
:10289000042EF0D10324EEE70224ECE77FB50546D1
:1028A000684600890C4600281AD0A0680C210173E4
:1028B000A068022202A90D3013F03BFEA06802229C
:1028C00003A90F3013F035FE0520E080212128698F
:1028D0008901084328610D20A873002004B070BD51
:1028E0004220FBE77FB50546684600890C9E0C46F2
:1028F000002816D069468989884212D8A068082124
:102900000173A068022202A90D3013F012FEA06824
:10291000022203A90F3013F00CFE012E04D0022E68
:102920000AD0422004B070BDA068022208A911306C
:1029300013F0FFFD072006E008AB10220921204616
:1029400013F0B0FF1520E080212128698901084398
:1029500028610920A8730020E4E77EB506461446E6
:102960000D46684607F074FF684600783070684688
:10297000407828706846807820707EBDF0B50022CF
:10298000104B03E09C5C521CA218D2B29C5C002C41
:10299000F8D1971D02243B253526202F08D29C54C0
:1029A0009A1855709070D4701671517100239371FC
:1029B000054A147055709070D470167151710020D2
:1029C0009071F0BDF50500206803002010B516F0E9
:1029D00063FC1E4C23212068490141180978002915
:1029E00009D1A0300079C00729D01AF0EFFA04F01D
:1029F00017FA04F043FC00F0D7F820680146403194
:102A00000A78C9798A4319D13E21095C002915D178
:102A10000F490A88120711D50922D2061269497A8C
:102A2000836AC90059180923DB01C018C06C801AD9
:102A300000020012814201DA18F0F2FC10BD05F02C
:102A400045FC06F0C5FA15F0B1FDD0E738050020C9
:102A5000C000002010B5837F01220024920241684B
:102A6000082B03D94224914202D310E0914201D2B3
:102A700042240CE001463422064813F05AFD00F0CF
:102A80007FF8002801DAC4B201E017F051F92046BE
:102A900010BD0000AC2E00203EB5174D154829682A
:102AA000827F0846A0310A730024603004764476A1
:102AB0008476E122C2768022027702224277302099
:102AC00008704C7002AA01A96846FFF746FF6846E5
:102AD0000078A22201016846007A891C00020143A5
:102AE000684600790003014328681152A030047140
:102AF0003EBD0000AC2E00203805002070B516F059
:102B0000B1FB09F0AFF913F03FFEFFF7B5F908F09C
:102B1000E1F9184C18492068184D40188110072019
:102B20002A68C00110180166616889084166A168B9
:102B30008908816615F06CFC0B2029688001081853
:102B4000228B0286628B4286A28B4285628C8285B2
:102B50002246172320325B011278C9188A7300219C
:102B6000017605F0F1F907F017FF19F01FF804F0EE
:102B70000BFC70BDAC2E00200000FCEF38050020DF
:102B800070B519F067FE074D2C6919F063FEC1B2EC
:102B9000204604F03BFA04F069FB6969001B081A3F
:102BA00070BD0000AC2E0020F8B52C4F3C68206EA4
:102BB0005C34401C002814D0002529480023C07B29
:102BC00000283ED00926F6062648002D1CD00021FC
:102BD0000A460B464169521C994204D1002902D091
:102BE00004E00125E9E7204B9A42F2D32160006915
:102BF00060603069A1680002090E000A09060143FD
:102C0000A16000F033F81DE03169A2680902090AE9
:102C1000150E08D0018BC90712D0416921600069E7
:102C20006060E37210E0881A00027D2300121B032B
:102C3000984205DD100E00060843A06000F016F86B
:102C4000F8BD6360002DFBD003CC1EF031F9FA20F3
:102C50001CF0C0FF39688862F8BD0000380500200C
:102C6000CC2E0020000010488813000004490020EA
:102C700008610448012100686030C171704700009C
:102C8000000010483805002010B514F08BFA10BD74
:102C900070B5254900230868024640304376037624
:102CA00015208001101843760F20203290750B22DA
:102CB0001846D2010C680546A418646A30352354BE
:102CC0000C68A418646A63550C683035A418646AEB
:102CD00063550C68A418656A04469034401CC0B261
:102CE0002B552D28E6D30868811805221202496A5F
:102CF0008218D1670C4630349467903151670B4984
:102D0000044648340B8009224A7105238B71CA712D
:102D10000B72488100F00CF8FF2020706070A070EA
:102D2000E0701F20207170BD38050020C000002019
:102D300010B5064801680648406A002803D02022E2
:102D400019F021FD10BD0020087010BD38050020CD
:102D5000AC2E002010B501200024000307F0BEF9BE
:102D6000012800D90224044807F0B8F9012800D945
:102D70000224204610BD00000210000010B51320F0
:102D80000224000209F0FCFD024809F0F9FD20468A
:102D900010BD00000113000010B511200224000234
:102DA00016F0DEF8204610BD00B50DF0C3FB00BDE7
:102DB0007047704700B50DF0D7FB00BD00A070470D
:102DC00030302E302E302E302E52000000A07047B2
:102DD00030312E30392E30303000000000B50DF08B
:102DE000D3FB00BD38B504461CF082FF60698288C1
:102DF00001688A18C188104601F090FFE0680090D1
:102E0000228AA36803CC0DF0EFFB38BD70477047F2
:102E10003038C0B2704770B586B00E460546022401
:102E200014216846FDF7DAF9324605A96846FFF72E
:102E3000D5FF6A460021107D07E04B00D35AAB4214
:102E400001D1002403E0491CC9B28142F5D32046D8
:102E500006B070BDFFB5324C83B0207826460A36E6
:102E60000C9D002813D0401CC0B20321FDF764F96B
:102E70002170601DFDF7CAF921461B3188421DD023
:102E8000611D1130FDF7CCF9607A401C1BE0012078
:102E9000207068461AF065FA03F0B2FF07466846EC
:102EA0000178407800020818FF21F531FDF744F958
:102EB0007818FF30611CF530FDF7B2F9611D30461E
:102EC000FDF7AEF900206072601DFDF79FF90399D0
:102ED0000170090A4170601DFDF798F9049981702D
:102EE000090AC170601DFDF791F905990171601D16
:102EF000FDF78CF901460D312846FDF791F90026C2
:102F000009E0601DFDF782F901460698721D805D9B
:102F1000761C8854F6B2AE42F3D307B0F0BD000081
:102F20004005002010B50446FFF744FF201A401C5E
:102F3000C0B210BD10B50B4800F09EF809480C3027
:102F400000F064F8FFF706FF0648183000F070F84C
:102F5000FFF714FF0348243000F07CF8FFF71CFF54
:102F600010BD0000142E061010B507F0ABFA09F0E2
:102F7000EDFF16F0BDFB16F02FF810BDF8B51A4C9A
:102F8000207800282ED0601CFDF740F9054603F09C
:102F900037FF854226D8267820E0607A801BC01C47
:102FA000C10F091849084900401AC0B20101401870
:102FB000001905460A351730FDF728F90090E87822
:102FC000AB780102194368782B7807021F432A79EE
:102FD0006B1D384600F00FF8761EF6B2002EDCD1DD
:102FE00000202070F8BD00004005002010B50DF055
:102FF00089FB10BD704738B5049C00940DF090FB20
:1030000038BD00B502F078FA00BD000010B50246E8
:1030100006480024016ECB20800008180DF03EFA0F
:10302000012800D90224204610BD00002004002001
:1030300010B5024606480024016E3320000108182E
:103040000DF0BAFB012800D90224204610BD000073
:103050002004002010B5024606480024016ECD2051
:103060008000081810F0C0FF012800D90224204673
:1030700010BD00002004002000B50DF079FB00BD5C
:1030800010B50DF087FB10BD7047000070B505004E
:10309000084618D00E4C6169002915D0218B0029F3
:1030A00012D000F061F8002805D10A496069884211
:1030B00001D0401E6061208B7D21C900484381B250
:1030C000284610F02CF970BD284610F02DF970BD7F
:1030D000402E0020FFFF000000B508497D22CB6A8A
:1030E000D2002431934203D39A1A8A6002D000BDE1
:1030F00000228A6010F018F900BD0000402E002068
:103100001F2801D9002101E00121814008467047B4
:1031100070B5134CE56A2434002D1ED07D26F604CC
:10312000B5421AD8934218D8D21A521C2388D2B268
:10313000834212D16180A0880A49884201D0401C94
:10314000A080A079002801D0904200D9A271E07936
:10315000904200D2E271002070BD022070BD0000DC
:10316000402E0020FFFF0000F1B58EB003260024A2
:1031700020216846FDF732F81C48458A002D05D00D
:10318000417A012905D0002903D003E001200FB0C6
:10319000F0BD0C46017A012901D0002901D1490076
:1031A0000C43817A012901D0002901D189000C4307
:1031B000C17A012901D0002901D1C9000C43077C43
:1031C00008A8077002222146401C0EF0ADF86846A0
:1031D0004582C7720221C176334608AA69460E9815
:1031E00013F01DF80028D2D00220D0E7402E002096
:1031F000F7B50546C00701D0280707D4A80701D5B1
:10320000280703D4680703D5280701D503243AE02B
:10321000EA07012002261E4C002A07D0627A012A02
:1032200005D0002A03D06072A07100E06672AA0780
:103230000027002A08DA227A012A07D0002A05D0BE
:103240002072E771A07101E02672E6716A070AD563
:10325000A27A012A08D0002A06D0A072A0710846DE
:1032600001F052FD00E0A67228070AD5E07A012895
:1032700008D0002806D0E772A771029801F088FDF7
:1032800000E0E67200240AF0D5FD2046FEBD0000F5
:10329000402E00207D21C90048430249C862002019
:1032A00070470000402E002010B50B4AD37A022B45
:1032B00004D0002906D0012904D00BE0022909D04E
:1032C000022010BDD172927E120703D58B4201D02D
:1032D000FFF74AFF002010BD402E0020002102E031
:1032E000491CC9B240080128FAD8084670470000B6
:1032F000FFB5154C87B06069119F0E46002804D0B9
:103300001249884203D1FF2505E0002503E0FFF7BD
:10331000E5FF401CC5B2208B002803D0FFF7DEFF7D
:10332000401CC0B2A18B628B237C05970293039251
:10333000019000950491638A31890022079800F07A
:10334000C3F90BB0F0BD0000402E0020FFFF0000CD
:10335000FFB589B000261C4608AA02211846069629
:103360000DF0D6F808980004000C079000D1022652
:10337000A57828461238ED2800D20226E778112FCA
:1033800000D90226207905907F2800D9022608AAB4
:103390000221601D0DF0BCF80898217A0207E0793F
:1033A0000907120F090D431809D074202649584304
:1033B000401820304078002801D104200690002ECB
:1033C00035D1224C07986082002D33D0FF2D33D0A9
:1033D000112D33D0681EC0B2FFF792FE80B260613B
:1033E000002F2ED0781EC0B2FFF78AFE20830598EA
:1033F00020746283A3831399009502AE019705910F
:103400000DC60A98638A0189069A099800F05CF94A
:103410000646206A0FF088FF6069002807D0208BDD
:10342000002804D07D21C900206A0FF078FF3046C3
:103430000DB0F0BD6661D3E70548D0E70448401EF3
:10344000CDE72683D3E70000E81F0020402E0020B0
:10345000FFFF0000FFB51F4C1F4F208D87B00E46A9
:10346000002803D0B84203D1FF2505E0002503E082
:10347000FFF734FF401CC5B27D21C900E06AFCF7AC
:103480005BFEB84201D9384602E00004000C0DD0C2
:10349000FFF724FF401CC1B20E4AA38C2032907A61
:1034A000002B05D0E78C002F02D002E00021F3E7CB
:1034B0000020D27A119F0492059702950390E08C28
:1034C0000090019131890022079800F02FF90BB08C
:1034D000F0BD0000402E0020FFFF0000FFB587B0C8
:1034E0000020464F0190079EF86206AA02210A9822
:1034F0000DF00EF806980404240C04D00120C0033B
:10350000844217D201E0012001900A9806AA022104
:10351000801C0CF0FDFF069805042D0C0DD0A80BA7
:10352000022808D03649681E884208D23068408890
:10353000A84204D002200BB0F0BD012001902F481A
:103540002E4F808C2037A04203D12C48C18CA94239
:1035500006D02A49002008857F21B972F87207E059
:10356000008D002804D02749884203D1FF2005E0C0
:10357000002003E0FFF7B2FE401CC0B200900A98A2
:1035800021461E4C0679A184E5840198002804D0C8
:103590000020A084E08406462EE0002E2CD0112EC0
:1035A00005D8701EC0B2FFF7ABFDFFF773FE206BAE
:1035B0000FF0BAFE7D21E06AC900884202D3206B79
:1035C0000FF0A8FE002D03D00120C003854202D3D6
:1035D000284601F083FC0098FA7AB97A02AD119B73
:1035E0000FC5E08C009001960898A38C01890022F9
:1035F000079800F09BF89EE70020D6E7402E0020B9
:10360000FF7F0000FFFF0000F0B585B00E460746C3
:1036100003AA022118460B9C0CF07AFF03980504BC
:103620002D0C03D00120C003854202D3022005B037
:10363000F0BD1548807A022803D0284601F092FB9D
:1036400000E00020318906460020029101902146C9
:103650000E48FCF7E5FD20460222294608300DF011
:103660006DFE2046032231460A300DF067FE2146EA
:10367000A3310520FCF7D4FD009401213846019BBD
:10368000029A0DF0B3FAD2E7402E00202E800000FF
:1036900008B5039A0092034A0989D378927800F01A
:1036A00075F808BD402E002038B51B78054D9A07E7
:1036B000920F059CDB08AA70EB700094098900F05A
:1036C00065F838BD402E0020FFB581B00F9C0F4635
:1036D0001646002521460620FCF7A2FD204626724C
:1036E000022204A90930FCF751FD0A98E0720B98F8
:1036F00020730C986073204602220DA90E30FCF74F
:1037000045FD204602220EA91030FCF73FFD214660
:10371000A3310A20FCF784FD2B463A460121009490
:1037200001980DF063FA05B0F0BD0000FFB581B05F
:103730000F9C0F461646002521461348FCF770FDE6
:1037400020462672022204A90930FCF71FFD2046FC
:1037500002220AA90B30FCF719FD0B9860730C9834
:10376000A0730D98E0730E9820742146A3310920B0
:10377000FCF756FD2B463A460121009401980DF0C6
:1037800035FA05B0F0BD00003C800000FFB581B007
:103790000A9C1E461746002521460A48FCF740FDB4
:1037A000F000384320722146A3310120FCF738FD98
:1037B0002B4600940121029A01980DF017FA05B0EA
:1037C000F0BD00002580000070B50C467D228368A6
:1037D00041680C4DD20099420DD2591A91420AD338
:1037E0004A00AA4207D9002801D00FF027FD002087
:1037F0006061208202E091B20FF091FD204602F05C
:10380000CFFC70BD8813000010B5002283780AE059
:10381000332424015443241824898C4201D150B20A
:1038200010BD521CD2B29342F2D80020C04310BD4A
:1038300010B50446FFF7E8FF411C10D03321090101
:10384000484301196A20405C002808D0012806D0AE
:10385000022804D008696421FCF76EFC10BD00202A
:1038600010BD00B5FFF7D0FF401C01D0002000BD07
:10387000012000BDF0B5002415E0332636010025F7
:10388000664336186F00F719FF8B8F4205D1157804
:103890005C5515786D1C157003E06D1CEDB2042DA0
:1038A000F0D3641CE4B28578A542E6D80020F0BDD0
:1038B000F0B5054610788BB0174600281BD00A28B3
:1038C00019D80A22101A332212015043174A101A2B
:1038D00086B2B1420FD3002405E031462846FCF7FA
:1038E0007DFC641CA4B2B442F7D33946284600F0EC
:1038F0003CFC012802D902200BB0F0BD282168460B
:10390000FCF76CFC0021684608E0332212014A43B0
:1039100052198B002632491CC250C9B2AA788A4279
:10392000F3D8D0B2694601F08BFFE5E7E41F000051
:1039300070B502460AF098FB00230125012800D14A
:1039400001231248C17B012901D102210B43016DE2
:10395000192040011418207A102815D8667A3018DA
:103960000007000F2C267043801802468032D57461
:10397000052595749370042283300DF0D5FC207AD0
:10398000401C2072002070BD022070BD2004002069
:10399000F8B500240D46064627460CE0332000010A
:1039A000604343192246294630461B1D009700F00C
:1039B00025FC641CE4B2A878A042EFD8F8BD000052
:1039C000FFB58DB016981E00154601D0042802D010
:1039D000022011B0F0BD0BAA022118460CF087FDA1
:1039E0000B980BAA84B20221B01C0CF080FD0B983E
:1039F000A97886B200204EE03322120142435219C8
:103A00001389A34245D15289B21AFF2A41DC44B23C
:103A1000601C42D00D980A90332000016043471982
:103A20000997202101A83F1DFCF7D8FBB988022285
:103A30000CA80DF079FC0CA80222314602300DF0E2
:103A400073FC1021684641836037397901770E98FD
:103A5000818A6846C1820E98C07B002801D0104838
:103A600040786946C8730AF013FA6946C87704209B
:103A700000900CAB062201A90A9812F0CDF806209E
:103A8000099B0090E2B229461B1D0D9800F0B6FB81
:103A90009FE7401CC0B28142AED8012099E70000E8
:103AA000402E002078B505981C00154626D0042825
:103AB00024D36A46022118460CF019FD00986A4684
:103AC00086B20221A01C0CF012FD0098314684B28F
:103AD0002846FFF799FE411C10D0332109014843C5
:103AE00042195089A04207D19069002801D00FF0F7
:103AF000A5FB002090619082002078BD022078BD57
:103B0000F8B506461C7806981546002B03D0012808
:103B100001D1012C01D90220F8BD898A1046FFF796
:103B200073FE411C0BD03321090141434B1919216C
:103B3000490159184A7CA24203D1032103E0012024
:103B4000F8BD4C740221C2B20091294630461B1DBB
:103B500000F054FBF8BD0000FFB589B012981D00BD
:103B600016467DD00A287BD30A98C07B002877D1DF
:103B7000B17826E0332212014243921913890A9A3E
:103B8000928A93421BD13321090148438419A08AA8
:103B9000002803D0211D099800F053FA2189012043
:103BA00001F090FC00202081A069002801D00FF0D6
:103BB00045FB3321201D0901FCF710FB03E0401CED
:103BC000C0B28142D6D80020B17808E03322120179
:103BD000424392191289002A06D0401CC0B2814289
:103BE000F4D801200DB0F0BD40B20290401CF8D0D6
:103BF00028784106890F07D0012907D002296CD007
:103C000003296CD0002102E00A2100E00F21069177
:103C1000C106890F65D0012965D0022965D0032925
:103C200065D000274007400F63D0FFF769FA687836
:103C30000A285ED333220299120151438C191921AB
:103C4000490161180091087405AA0321A81C0CF011
:103C50004EFC0598284A01460A39914249D200E0B3
:103C600047E064214843206104AA0221681D0CF04A
:103C70003EFC0498A082E87900283AD0009904AA72
:103C8000C8732846022108300CF031FC049860818A
:103C9000322047430A981825455706980A21684359
:103CA000381AFCF75FFA642800DA642000998D73F3
:103CB000A0830A98808A20810A982030017E029889
:103CC000C0B201F0B9FE012000900298231DC2B2DB
:103CD0003146099800F092FA84E7142197E71921F8
:103CE00095E70A279EE70F279CE714279AE71927ED
:103CF00098E7022076E70000B64B0300FFB585B0D9
:103D00001F001FD00E9803281CD3C0071AD0898A21
:103D10000798FFF779FD0546401C13D038780090CE
:103D200033200001079968434418192040012018E6
:103D30000190817C0098814232D00E980026400884
:103D4000039028E0022009B0F0BD7000C01902AA5B
:103D50000221401C0CF0CBFB029882B2002084466A
:103D6000411E4300E318DB8B002B04D0934203D1A8
:103D700001239C4600E041B2401CC0B20428F0D3AD
:103D8000481C0AD06046002802D148002018C2838F
:103D9000761C0398F6B2B042D7D80199009888747F
:103DA00004200090231DEAB20799059800F026FA36
:103DB0000020C8E7FFB585B008980E9F00281ED0E8
:103DC000032F1CD3F8071AD0898A0798FFF71CFD28
:103DD0000446401C13D008980799007800903320BF
:103DE0000001604346181920400130180190817C81
:103DF000009881422BD000257808039022E0022011
:103E000009B0F0BD08986900081802AA0221401CF8
:103E10000CF06DFB029883B2002041007218D18B28
:103E2000002904D0994204D10021D18301E07F1CF4
:103E3000FFB2401CC0B20428EFD3042F04D06D1C85
:103E40000398EDB2A842DDD8019900988874052046
:103E50000090331DE2B20799059800F0CFF90020D9
:103E6000CEE70000FFB58BB005460020694608701C
:103E700001200590D08A144601464E4A401E9042C9
:103E800007D22846FFF7C0FC694608720120087077
:103E90001CE04948814214D1002102A80DE03322E0
:103EA00012014A4352191289002A04D06B461A782B
:103EB0008154521C1A70491CC9B2AA788A42EED8A1
:103EC00004E002AB6A462846FFF7D4FC002668E00F
:103ED00002A8805D3321090148434019E17B001DA0
:103EE000012965D9354A1599128B914260D8A18A6A
:103EF0008288914259D00E99097802291AD10E9AD6
:103F00000021537917791A023A432C234B431B188B
:103F10007827FF5A974207D1DB6E2769BB4203D24D
:103F200000220592069103E0491CC9B21029ECD386
:103F3000102903D00599012902D00EE00121059135
:103F4000192149014218117A102931D2537A5B188C
:103F50001B071B0F491C06931172069A2C235A4308
:103F600017183846803000210790C17421460C3163
:103F700007C93B46683307C318460E220E99FCF763
:103F800005F938466030C17A491EC1720798159903
:103F9000817438468230159A1499FCF7F7F8761C2C
:103FA000F6B268460078864292D300200FB0F0BD8A
:103FB0000220FBE7FF7F0000FFFF0000200400203D
:103FC000F0B50746192040011618707A2C23584383
:103FD00080188030C07C8FB0012804D0384600F0B3
:103FE00060F80FB0F0BD0D461446202101A8FCF783
:103FF000F5F8707A2C2148430119052209A882316D
:10400000FCF7C4F8307A022801D2002100E0012137
:1040100008A8417230216846418385776420015D9C
:1040200068460177A188C1820021C1730121C1774F
:104030000620009009AB022201A9384611F0ECFDE0
:10404000CFE730B58BB00C460546202101A8FCF720
:10405000C5F8208A002822D0A188022209A80DF0E4
:1040600063F909A8E188022202300DF05DF9002011
:10407000694648836420005D0877208AC8827F20D3
:10408000C87309F005FF6946C8770420009009ABA2
:10409000052201A9284611F0BFFD0BB030BD02205A
:1040A000FBE770B588B00E460546144620216846E9
:1040B000FCF794F8192040012218507A2C2148432B
:1040C00000194030018E68460182507A2C21484305
:1040D00000194030418E68464182507A2C21484375
:1040E00000196030817A68468172507A2C235843D7
:1040F00000196030C37A6846C372507A2C23584343
:104100000019C06E302303906846C382002902D094
:1041100038206946C88201216846C17686766420C7
:10412000015D68460176507A2C2148430019024609
:104130008030837C8232694628460DF02FF808B023
:1041400070BD30B5054600240BE03320000160430C
:1041500040190189002902D0001DFFF7E9FB641C0A
:10416000E4B2A878A042F0D830BD0978002902D086
:104170008170002070470320704770B50E460546D9
:10418000002411E033210901614349190A89002AF9
:1041900008D06031097AB14204D1204601F064FCB4
:1041A000002804D1641CE4B2A978A142EAD870BD09
:1041B0007CB5054600208B781BE033242401444362
:1041C00064182689002E12D06826365D96420ED1DC
:1041D000332212014243511889890123019300912E
:1041E000296863894A88218901F0CCFB7CBD401C89
:1041F000C0B28342E1D800207CBD0000FFB58FB083
:104200000D90189E00201C46099002F0F9FD0A90BE
:1042100021682546401A6035A97919225201A7184C
:104220000B0015F059FE07050F536B95E6F8920049
:10423000002E7DD0012E03D10A9820600120C1E01C
:10424000022081E0002EFBD1218B81427DD210988B
:1042500010990088401C088020810D9811990E90BB
:104260000091202101A8FBF7B9FF322108A80173B2
:104270001026467304218173B97AC1732189022201
:104280000CA80DF051F8684646830099817729798A
:104290000177A188C1820026C6730121C17706205B
:1042A00000900BAB042201A90E9811F0B5FC2089F7
:1042B000009001960D98E3880068A18842881198C3
:1042C00001F060FB0A98206002207BE0002E0BD0FA
:1042D000022E01D0032EB3D100203872787220460E
:1042E000FFF726FB0320B9E07D21C90088422CD9C5
:1042F0000026A680119801F08FFA4EE0002E22D100
:10430000208A584A411E914210D20D990968498865
:1043100088420BD020462246534914300EF072FFDB
:10432000012803D8012160690EF0F9FF052000E0A3
:104330000BE0A871208A0090FB7A397BA088E268A4
:1043400001F0C4F801E001200990099813B0F0BD14
:10435000002E0CD0022E24D0032E2CD0042E2ED0D2
:10436000052E2CD0062E2FD0072EEED068E7E16860
:104370008142EAD2A188022001F0A4F80026A6809A
:10438000119801F049FA6069002801D00EF056FF3B
:10439000332109012046FBF721FFAE710A98206006
:1043A000D1E7387A002806D0401E3872787A401C4F
:1043B0000007000F78720A982060052002E00A9832
:1043C00020600620A871C0E7A188032001F07AF8D8
:1043D0000026A680119801F01FFA6069002801D01C
:1043E0000EF02CFF332109012046FBF7F7FEAE71DA
:1043F000ABE7002EBAD1397B8142A6D2387A0028A9
:1044000002D12046FFF794FA224611990D98FFF742
:10441000D7FD22E0FFE7002EA8D1397B814294D25C
:104420000D980C90202101A8119EFBF7D7FEB97BB7
:1044300008A801733021684641838677297901777E
:10444000A188C1820021C1730121C17700910BAB0A
:10445000092201A90C9811F0DFFB0420A8710A9829
:10446000206072E7FF7F0000C937041010B50B7899
:10447000032B23D84A78032A20D88A78072A1DD804
:10448000CA780A2A1AD34A680A2A17D31A4CA242AF
:1044900014D8CC68944211D80A7C0A2A0ED34A7CDC
:1044A000002A0BD0052A09D812228A563C24E2425F
:1044B00004DCCA7C022A01D30A2A01D9032010BDD8
:1044C0000246603213704B7853708B789370CB78C0
:1044D000D3704B6883600B7A64246343C382CB68D8
:1044E0006343C360087C1071487C5071887C907174
:1044F000C87CD071002010BDFFBB340000B502F0B5
:1045000029F8012803D101F0E9F8002800D00120A2
:1045100000BDF7B506461A3082B001270D4600905F
:1045200070290FD3002405E070213046FBF756FEBA
:10453000641CA4B2AC42F7D330460499FFF796FF4F
:10454000012802D9022005B0F0BD6946384601F0C5
:1045500077F9F8E710B5002200F0F0F910BDFFB5CB
:10456000144683B00D460646012221460C9F00F0FA
:10457000E5F900281DD10097224629463046069BC2
:1045800000F0AFF9002814D1AA8A22822035297EB2
:104590005C200155E97EA08A019100903068638A11
:1045A0004188002001F0EEF902222146304600F059
:1045B000C5F907B0F0BD10B51146062200F0BEF9EE
:1045C00010BD10B51146029A002B01D0012A01D06E
:1045D000022010BD1A7869235B5C934203D1042248
:1045E00000F0ACF910BD012010BD0000FFB581B096
:1045F0000A981D0014460F460AD0062808D12E78C6
:104600006A460421681C0BF072FF6879012802D900
:10461000022005B0F0BD6B2108552037F87E012837
:1046200011D10F48017B20464030012902D00229D8
:1046300009D106E0F10710D0017F022011F046FEFB
:1046400001E0F10709D03046009910F0C7FA0322C3
:104650002146019800F072F9DBE7017F0320EDE7C6
:10466000402E002030B58BB00C460546202101A815
:10467000FBF7B4FD28680222418809A80CF054FE1B
:1046800009A8618A022202300CF04EFE0021684621
:104690004183228AC2820C4842786846C27309F07C
:1046A000F7FB02466846C27701772182002001F0BD
:1046B000B3F80420009009AB052201A9284611F0A7
:1046C000ABFA0BB030BD0000402E002030B58BB0EF
:1046D0000C460546202102A8FBF780FD6820005DFE
:1046E0006946C007C00F08713020C883208A4883FC
:1046F0000020C874012208A9CA70087001AB02A981
:104700002846009211F088FA0BB030BD70B58CB01D
:104710000C460546202104A8FBF760FD21466031C8
:1047200008784A7880079207400ED20E10438A78A4
:1047300001AE5207520F10436A461071C87850718B
:104740000322B01CA1680CF0EFFD218A0222701D2B
:104750000CF0EAFD01266A46D672618A022203A89D
:104760000CF0E2FD10206A46D084301F50840020F7
:10477000D07608AAD67210720A20009001AB0322EC
:1047800004A9284611F048FA0CB070BDFFB59BB0E3
:104790000D4619901646202111A8FBF71FFD692030
:1047A000405D69460871002401AF09E01E99600070
:1047B000095AC0190222401C0CF0B6FD641CE4B278
:1047C000B442F3D3302110A84183298AC182002149
:1047D000C1730122C277017781777000401C00907D
:1047E00001AB072211A9199811F016FA1FB0F0BDFC
:1047F000FFB59BB00D4619901646202111A8FBF776
:10480000EDFC6920405D69460871002401AF09E0B4
:104810001E996000095AC0190222401C0CF084FD48
:10482000641CE4B2B442F3D3302110A84183298A36
:10483000C1820021C1730122C277017781777000A4
:10484000401C009001AB082211A9199811F0E4F95D
:104850001FB0F0BD70B51646044600224034054630
:10486000012905D0002904D1FFF748FE002801D016
:10487000E27770BD0120E07702F0C2FA801968602B
:1048800070BD01236A221354018300207047022364
:104890006A22135401830020704710B5028A002A4F
:1048A00007D04030007F884203D1002001F0DCF8BF
:1048B00010BD002010BD1CB50C8A002C0FD05C234D
:1048C0005B5C93420BD18A8A0123009201930068BA
:1048D0004B8A41882246002001F054F81CBD00207C
:1048E0001CBD38B504981546002B01D0062801D010
:1048F000022038BD2C46603418782179814212D3C9
:104900000A2810D320715A78A078FEF7F9FB90425C
:1049100009D898786179814205D803200621185674
:104920006156814201DD012038BD6A460221181D11
:104930000BF0DDFD0098A882002038BDF0B599B0DD
:104940000190002017460D46079002F059FA059095
:1049500029682C46461A284640300490817F283822
:10496000603417900B0015F0B7FA0705163363D3C0
:10497000FEFD390000262E83324601212846FFF72E
:1049800069FF26726672E0792073059828600499A1
:1049900001208877B3E1E88AB04207D9821B002161
:1049A0002846FFF757FF012019B0F0BD0598286091
:1049B000688A2946401C68820198FFF7A7FE662294
:1049C00000212846FFF746FF04980221817796E1EF
:1049D000002F04D0012F1DD0022F1ED021E1662E02
:1049E0000AD9002201212846FFF734FF7D21C900A2
:1049F000019801F04DFC05E06620821B002128464D
:104A0000FFF728FFBF488642C4D9012007900499C8
:104A10000020887701F068FF71E105982860002088
:104A200020726072E079207304980321817735E168
:104A3000002F09D0032F37D0002201212846FFF78D
:104A400009FF02200790E5E7E078811CB1420AD215
:104A5000002201212846FFF7FDFE7D21C9000198B3
:104A600001F016FC05E0821B00212846921CFFF78E
:104A7000F1FEE07821794018801CB0428AD201F022
:104A800033FF207B002809D0401E20730598286042
:104A900004E1E27800212846921C7BE00499002082
:104AA00088770120079072E001F01EFF207A012133
:104AB000401C2072E0792073607A401C607201987B
:104AC000FEF7F2FB08AA06A9019801F013FB68465D
:104AD000027E002A0ED008AB29460198FFF756FE49
:104AE000049804218177E27800212846921CFFF780
:104AF000B1FE0AE0049905208877002201212846AA
:104B0000FFF7A8FE288AFEF782F905982860F6E0EC
:104B1000002F02D0042F40D083E0E078811CB14206
:104B200009D2002201212846FFF794FE217901983D
:104B300001F0AEFB05E0821B00212846921CFFF726
:104B400089FEE07821794018801CB042DFD201F064
:104B5000CBFE207B002811D0401E2073059808AAA8
:104B600006A901E053E028E02860019801F0C2FAAC
:104B70006846027E002ACAD008AB8AE00499002069
:104B800088770120079029460198FFF76BFD0022E6
:104B900001212846FFF75EFEB1E001F0A5FE059871
:104BA0002860E0792073049905208877288AFEF729
:104BB0002EF9607A401C6072E9E7002F31D1A07AAB
:104BC0000627002812D005992960179B012807D0D5
:104BD000012229460198FFF70BFE0498877758E7D2
:104BE000012229460198FFF7D1FDF6E7E07A012876
:104BF00002D0E868B04208D2059828600120E0722F
:104C000029460198FFF762FDE7E7821B71E0002F5C
:104C10000FD0052F58D0032F56D0042F54D0062F75
:104C200052D002200790002201212846FFF712FEF1
:104C3000F0E6E078811CB14209D200220121284629
:104C4000FFF708FE2179019801F022FB05E0821BA5
:104C500000212846921CFFF7FDFDE07821794018DD
:104C6000801CB0424BD201F03FFE207B00281AD0BE
:104C7000401E207305982860A07A00280ED0179B4C
:104C8000012805D0012229460198FFF7B1FD00E770
:104C9000012229460198FFF779FDFAE62946019895
:104CA000FFF714FDF5E604990020887701200790AE
:104CB000298A00F01CFC29460198FFF7D3FC00214B
:104CC0000198FEF7F1FA62E701F00EFE0598286000
:104CD000E0792073052F0ED0032F0CD0062F0AD0B9
:104CE0000020A072607A401C6072052004990222A4
:104CF000887700214DE7207A401C2072F5E707985D
:104D000052E600004E040000024610B50248818CB5
:104D1000806EFEF7CDFD10BD20040020014A906694
:104D2000918470472004002010B5074A0749937A00
:104D3000896E012B05D0D27A022A01D0FFF70AFC36
:104D400010BDFEF725FE10BD402E002020040020DF
:104D5000014600B50248806EFEF783FD00BD0000ED
:104D600020040020014610B50248806EFEF760FD69
:104D700010BD00002004002013460A46014600B57D
:104D80000248806EFEF776FD00BD00002004002082
:104D9000024610B50248818C806EFFF7BAFB10BD49
:104DA00020040020F8B51C46CB8E3D4E9F06069D84
:104DB0003A4BB66E0ED5092A0ED8012A07D0022A20
:104DC00005D0072A03D0082A01D0092A4CD1CF7B6D
:104DD000002F49D1012A15D0032A13D0052A11D05A
:104DE000062A0FD0072A0DD0082A0BD0DB7A022B17
:104DF0000BD0022A3AD0042A3ED0092A42D00A2AED
:104E000046D831E09B7A012B01D00520F8BD130074
:104E100015F062F8092A062A0C2A12181E242A0004
:104E2000234632460095FEF76BFEF8BD2346324618
:104E30000095FEF791FEF8BD234632460095FEF739
:104E4000BFFDF8BD234632460095FEF72BFEF8BDA8
:104E5000234632460095FEF751FFF8BD2346324601
:104E60000095FEF7A7FFF8BD0220F8BD23463246A5
:104E70000095FFF7BBFBF8BD234632460095FFF7D0
:104E80006EFBF8BD234632460095FFF79AFBF8BD4E
:104E9000234632460095FFF78EFBF8BD402E0020DA
:104EA000200400201CB5009313460A460146049CCA
:104EB00002480194806EFEF7D5FF1CBD200400203F
:104EC00000B50448807A012803D10348806EFFF7BB
:104ED00038F900BD402E00202004002000B506490E
:104EE000C97A022905D001460448806EFFF7C9FC43
:104EF00000BD022000BD0000402E00202004002044
:104F000000B50649C97A012901D0022000BD014639
:104F10000348806EFFF7BBFC00BD0000402E002060
:104F20002004002010B50146084A0948937A806E93
:104F3000012B05D0D27A022A05D0FFF7AEFC10BDB6
:104F4000FFF71BF910BD012010BD0000402E00200E
:104F50002004002010B50649C97A022905D0054968
:104F60000522896EFFF7EAFC10BD012010BD00008C
:104F7000402E00202004002010B50A46084B0949A5
:104F80009C7A896E012C05D0DB7A022B05D0FFF7C5
:104F900092FC10BDFFF70CF910BD012010BD000000
:104FA000402E00202004002010B5024A117500F0A8
:104FB000ADF810BD8C2E002010B5084B1A7D002ACC
:104FC00009D00520521EC0011A75081880680028F3
:104FD00000D0804710BD0EF031F910BD8C2E00209E
:104FE000064A0021535C834201D101207047491CCD
:104FF0000906090EF6D0002070470000300400209A
:1050000006480178012907D00121017000210173B0
:105010000348017008467047022070478C2E00201C
:105020003004002000B503A20221064808F012FB5C
:1050300000BD00004865616C746820536572766538
:105040007200000049500410FFB51C4885B000787C
:105050001E46174600282ED002AA194638460BF0E5
:105060008CFD050027D00B22154902980BF076FD28
:10507000040020D0E088761BB0421CDC2089B042BE
:1050800019DB78190390E068002814D00227A720C4
:105090000BF06AFC05000BD000960195E6682246ED
:1050A000039B06990598B047074628460BF0A0FCDD
:1050B000384609B0F0BD0220FBE700008C2E00202E
:1050C0002C36061070B50F4E0D46308A002818D0C9
:1050D000A7200BF049FC040007D00246318A28467D
:1050E00000F06CF920460BF083FC074A907A401ED2
:1050F0000006000E907204D1F0690EF09FF80820AF
:10510000907270BD8C2E002020040020052310B565
:105110000246DB01C01880680C4C00280BD0207DB3
:10512000002811D020460A4918300EF06BF80128EB
:1051300004D9042108E00020207505E07D21C90084
:10514000A0690EF0E7F80146084610BD8C2E00203D
:10515000B94F041030B587B00546684608F0A0FE88
:1051600028681A4C4030008D208268468079A074EF
:105170006846017B8806800E890920D0012920D04D
:10518000022921D0124948436178002904D0E27CE9
:1051900001219140FAF7D0FFE081E0690EF04EF86E
:1051A0000A482A460B491C300EF02CF8012804D876
:1051B000E1890022E0690EF095F807B030BD642166
:1051C000E1E77D21C900DEE70349DCE78C2E002002
:1051D000C0270900C55004101027000010B5034A6D
:1051E0000989127D039B00F0CFF810BD8C2E0020A2
:1051F000F8B50746074C1878079E20750D463846C7
:10520000FFF784FF227D29893346384600F0BCF839
:10521000F8BD00008C2E002010B5034A19781175D6
:10522000FFF774FF002010BD8C2E0020FFB583B067
:105230000E4601AA022118460D9F0BF069F901984C
:1052400084B2302C02D0032007B0F0BD064D0521FA
:10525000E81DFAF7C3FF00972A7B3189234603989C
:1052600000F0E6F8F0E700008C2E002008B51846A4
:105270006A4602210BF04CF9009880B2302801D028
:10528000032008BD05210248FAF7A8FF002008BD49
:10529000932E00207CB50C46054601AA0221184633
:1052A000079E0BF035F9019883B2302B01D0032013
:1052B0007CBD009621890022284600F0B9F87CBD0B
:1052C000FFB51C7883B01F460D4620460D9EFFF7A4
:1052D00087FE002808D001AA0221781C0BF018F9DB
:1052E000019883B2302B02D0032007B0F0BD0448F0
:1052F0002246047300962989039800F099F8F4E790
:105300008C2E002038B51C781D462046FFF768FE1D
:10531000002808D06A460221681C0BF0F9F80098B2
:1053200080B2302801D0032038BD02480473002029
:1053300038BD00008C2E002010B5034A0989D27CAC
:10534000039B00F0A5F810BD8C2E002010B51A4666
:105350001278039B0F2A01D9032010BD024CE2747E
:10536000098900F095F810BD8C2E002010B5197831
:105370000F2901D9032010BD024AD174FFF7EAFEBC
:10538000002010BD8C2E0020F8B50E4607461546AD
:105390001C4619460848FAF743FF21462572A331F7
:1053A0000120FAF73DFF00233246012138460094E0
:1053B0000BF01CFCF8BD000007800000F7B50024CE
:1053C00082B0302168460194018015462646274662
:1053D00011460420FAF724FF2F726846007868729D
:1053E00068464078A872114F002039188978002942
:1053F00003D02A19641CD172E4B2401CC0B2052843
:10540000F3D32946A331E01CFAF70AFFB87C002841
:1054100001D0202006430120314601430095019B25
:10542000039A02980BF0E2FB05B0F0BD8C2E002031
:10543000FFB581B00A9D002417462646294605205F
:10544000FAF7EEFE2F726846007C68726846407C70
:10545000A8720E4900200A18D279002A03D02B190D
:10546000641CDA72E4B2401CC0B20528F3D32946AA
:10547000A331E01CFAF7D4FE334600950121029ACD
:1054800001980BF0B3FB05B0F0BD00008C2E00209E
:10549000F8B50E46074615461C4619460848FAF761
:1054A000BFFE21462572A3310120FAF7B9FE002381
:1054B00032460121384600940BF098FBF8BD0000FD
:1054C0003780000010B5FDF773FC10BDF8B50E462F
:1054D00007461D4664211046069CFAF72DFE02463B
:1054E0002B46314638460094FDF763FCF8BD10B5F5
:1054F000FDF78CFC10BD00000549096E002905D0A0
:105500000522D20189188860002070470220704768
:105510002004002010B5022000F016FF10BD00008E
:10552000FFB5264C87B0206B1D4680073ED4206B0C
:105530000126C007002806D015F0CBF8002835D189
:10554000206B7040206309981F2805D80A2D03D3CB
:105550000520C002854202D903200BB0F0BDA07B1C
:10556000C00901D0002700E00127E8000521FAF773
:10557000E3FD82B281B20020114B059303900490A9
:1055800000900190029007980693012806D003200E
:105590003B4615F07DF8002808D101E00020F7E730
:1055A0000899099817F0E3FE002801D00220D4E7FB
:1055B000206B304320630020CFE700002004002050
:1055C000FFFF0000FEB50D46174A0A39914201D28D
:1055D000A84201D90320FEBD144C216B890701D5D7
:1055E0000120FEBDA17BC90901D0002600E00126F3
:1055F000C0000521FAF7A0FD87B2E8000521FAF7FF
:105600009BFD002100910A46019180B23346394644
:1056100015F06AF8002801D00220FEBD206B02219F
:10562000084320630020FEBDF7270000200400206F
:1056300010B5094C206BC0070BD015F04AF80028B4
:1056400001D0022010BD206B0121484020630020C2
:1056500010BD012010BD00002004002010B5084C32
:10566000206B800704D5802015F054F8002801D065
:10567000012010BD206B022148402063002010BD96
:10568000200400200A4610B50146104617F06FFEB0
:10569000002800D0022010BD70B50D4C206B800694
:1056A000000F14D001202071E070606F094988421A
:1056B00008D201F0A5FB05460A21606FFAF73CFD10
:1056C000281803E001F09CFB03494018E06770BD17
:1056D00020040020A0860100102700000248006B73
:1056E000C00700D0012070472004002010B50348F7
:1056F0007D21C900406FFAF71FFD10BD2004002076
:1057000010B50CF086F810BDF3B504460220002752
:10571000254681B03F4E20350FE0E019C07E742150
:10572000484383191A4642322046313302990CF01D
:1057300087F9002808D07F1CFFB2A17EB942ECD8BF
:10574000012804D9002715E0E119C97E2976FEBD9C
:10575000E019807F7421484383191A46FF32FF33D2
:105760002B3220461A3302990CF06AF9002808D02F
:105770007F1CFFB2617FB942EAD80128E7D9002730
:1057800015E0E119897F297640E0E0192030407862
:10579000029980008019FF308130826E20461346C6
:1057A00020320CF04DF9002808D07F1CFFB2297878
:1057B000B942EAD80128CAD900271BE0E18E20228D
:1057C0001143E186E11920314978A976FEBDE0193F
:1057D0002030007B029980008019FF308130826E7A
:1057E00020461346303210330CF02AF9002805D039
:1057F0007F1CFFB2E97AB942E9D8FEBDE18E2022D2
:105800001143E186E1192031097BA9760121E9766E
:10581000FEBD0000E81F002010B50A280CD881004A
:1058200006480818FF308130806E002804D04421DB
:10583000FAF7D4FC002010BD032010BDE81F0020A3
:1058400030B50A2801D9022030BD0022064C07E0FD
:105850009300CD581B19FF338133521CD2B29D6681
:105860008242F5D3002030BDE81F0020F0B50022B1
:10587000424C434E20E0742353431B191D462035F0
:105880006F78002F16D02D7C8D4205D10778451CEE
:105890007A5505786D1C0570FF3301335D7A002D54
:1058A00008D01B7E8B4205D1C378051D5A55C3789D
:1058B0005B1CC370521C92B2B38A9A42DBD30022A3
:1058C00093001B19FF3381339D6E002D21D040358D
:1058D0002D78002D19D08D4205D18679C51D7255C0
:1058E00085796D1C85719B6E742540339B786B4365
:1058F0001B19FF3301335B7A002B06D0457C03462E
:105900001233EA54437C5B1C4374521CD2B20A2A01
:10591000D6D30278002A01D000210BE0C1780029FB
:105920000DD18179002914D1417C00291BD123E0BC
:10593000491CC9B28A42FBD8C178002906D000218F
:10594000C27801E0491CC9B28A42FBD8817900299A
:1059500006D00021827901E0491CC9B28A42FBD8F5
:10596000417C002906D00021407C01E0491CC9B2DD
:105970008842FBD80020F0BD0120F0BDE81F0020C8
:1059800020040020F0B528A5E0CD87B0049603954B
:105990000C9C05970E0A6D466E73A973110AE97384
:1059A0002A74190A6974AB74210AE9742C750925E3
:1059B0000A2802D9032007B0F0BD1E4E80008019CE
:1059C000FF308130846E7421204640300746807855
:1059D00022464843831903A81021009101902032E8
:1059E0000295214638460CF0EDFC0146B878742249
:1059F00050438319FF200A30C05C01280DD103A851
:105A00001021019022460091204630320295611803
:105A10004130E8330CF0D6FC0146012901D90220BF
:105A2000C9E70020C7E700000100000000000000F7
:105A300000000000E81F00200A2803D8084A928AC4
:105A4000914201D903207047820006481018FF30A8
:105A50008130806E002801D0403081700020704776
:105A600020040020E81F0020F8B50A2826D881006D
:105A700013480818FF308130806E00281ED004467D
:105A8000054640356878287021463031204610227E
:105A90000E462030FAF77AFB1022A11820460F4656
:105AA000FAF774FB0020687010213046FAF796FB75
:105AB00010213846FAF792FB0020F8BD0320F8BD0C
:105AC000E81F00200448C06E002802D04030007952
:105AD000704707207047000020040020F3B581B014
