:020000041006E4
:109800000060002061260710BD1907102DFB06100F
:10981000AA5555AA45554C42000000000000000022
:10982000000000000000000000000000613D071083
:1098300000000000000000001D1F07101542071067
:10984000E7E006108D1A071000000000000000007D
:10985000194907105F3D0710DDC60610D14A0710F1
:1098600000000000000000000000000000000000F8
:1098700000000000DDB9061031FB06102FFB0610BA
:1098800000000000C7120710C912071025130710A7
:109890006513071081260710A71A0710A5CC06101C
:1098A00000000000000000000000000000000000B8
:1098B00000000000000000000000000000000000A8
:1098C00000F002F800F08FF80CA030C80838241817
:1098D0002D18A246671EAB4654465D46AC4201D1E8
:1098E00000F081F87E460F3E0FCCB646012633428B
:1098F00000D0FB1AA246AB4633431847E4260100CA
:1099000064270100103A02D378C878C1FAD8520708
:1099100001D330C830C101D504680C607047000025
:109920000023002400250026103A01D378C1FBD87B
:10993000520700D330C100D50B607047F0B54346E5
:109940004C4655465E466746F8B40E4C6B4623605F
:109950000D4C20680D4C20600D4C20680D4C206093
:109960000D4C20680D4C2060BFF34F8F30BF054C6D
:109970002468A546F8BC9846A146AA46B346BC460C
:10998000F0BD00000800002004ED00E0E40200202B
:1099900024ED00E0E802002000E200E0EC020020FC
:1099A00010B5662902D112F06DF910BD642902D1FB
:1099B00000F0A4F810BD782902D100F0D5F810BD50
:1099C000732902D101F03DFA10BD002010BD1FB572
:1099D00001F064FA04000020002112F037F8E06082
:1099E0001FBD10B510BD04488546FFF7F0FF0FF00E
:1099F00019FE01F021FE00000060002003B4FFF713
:109A0000F0FF03BC01F070FE70B505460C4616462B
:109A100002E00FCC0FC5103E102EFAD2082E02D352
:109A200003CC03C5083E042E07D301CC01C5361F65
:109A300003E021782970641C6D1C761EF9D270BD7C
:109A40000FB4054910B503AA029801F0FFF910BC44
:109A500008BC04B018470000CC02002070B50446D2
:109A600085690068C10601D5302600E02026C007C0
:109A700007D070BD62683046A1689047206A401CDC
:109A800020626D1EF6D570BD70B5044685690078FC
:109A9000C00707D170BD6268A16820209047206A86
:109AA000401C20626D1EF6D570BD70B50C46054693
:109AB000012A05D02878800600D5EA69002302E053
:109AC000012305E05B1C934202D2E05C0028F9D13F
:109AD000A869E618C01AA861286AC0182862284632
:109AE000FFF7BCFF04E06A682078A968641C90470F
:109AF000B442F8D32846FFF7C7FF70BDF7B500257D
:109B000075291068009914A611D0C046C0460028D7
:109B100002DA404211A608E0009909688A0701D5D7
:109B20000FA602E0490704D50EA6012501E0C046B4
:109B3000C046009F0024243704E001F09BF9303137
:109B40003955641C0028F8D12B463246214600982E
:109B500000F0FFFEFEBD0000000000002D00000030
:109B60002B0000002000000070B504460D46214681
:109B70001068C046C0462188090502D50F4A7A44BC
:109B800002E00E4A7A440E3223460021243305E0D7
:109B900006070009360F965D5E54491C0028F7D170
:109BA00020780023000705D5702D03D0002901D0AF
:109BB00002231132204600F0CCFE70BDEF220100DE
:109BC000F3B50446002081B020622046E168884752
:109BD00000287DD0252802D06268A16883E0454F27
:109BE00000257F442046E16888472028064608DB98
:109BF000312E06D2B81920380078002801D005434C
:109C0000F0E7A80701D5042085430020E06107465E
:109C1000A0612A2E0AD030460BF070FB002827D016
:109C2000B8000019303E0090866119E00298BA0031
:109C3000121902C8916102902046E1688847012FFD
:109C4000064617D1E06900281FDA202085431CE072
:109C500000980A218069484300998019303888614A
:109C60002046E168884706460BF048FB0028EFD104
:109C7000012F0AD02E2E08D12046E16888470646DB
:109C8000202005437F1C022FC3DBA069002803DAD4
:109C90004042A06101200543E80701D01020854320
:109CA000002E24D030464138192803D80120C002A4
:109CB00005432036204625603146029A1546FFF7B7
:109CC0006FFE00280CD0012807D0ED1DE80800E049
:109CD0000DE0C0000830029077E72D1D029574E773
:109CE00062683046A1689047206A401C6CE7206A91
:109CF000FEBD0000B3220100034610B50B439B07D5
:109D00000FD1042A0DD308C810C9121FA342F8D0DE
:109D100018BA21BA884201D9012010BD0020C043E1
:109D200010BD002A03D0D30703D0521C07E0002047
:109D300010BD03780C78401C491C1B1B07D103780D
:109D40000C78401C491C1B1B01D1921EF1D11846F6
:109D500010BD10B5044600F002F8204610BDF8B55D
:109D6000042A2CD3830712D00B78491C0370401CA3
:109D7000521E83070BD00B78491C0370401C521EE7
:109D8000830704D00B78491C0370401C521E8B07BC
:109D90009B0F05D0C91ADF002023DE1B08C90AE08B
:109DA000FFF732FEF8BD1D4608C9FD401C46B44011
:109DB0002C4310C0121F042AF5D2F308C91A521EF0
:109DC000F0D40B78491C0370401C521EEAD40B7867
:109DD000491C0370401C012AE4D409780170F8BDC5
:109DE000431A70B593421BD28918801804E0491EAB
:109DF000401E0B78521E03709307F8D106E010390D
:109E0000103878C9103978C01038103A102AF6D2B4
:109E100003E0091F001F0B680360121FF9D570BD16
:109E2000FFF7F2FD70BDF8B50646144608438007FB
:109E300007D0751AA54219D20819102D13D231195D
:109E400007E03046FFF7CCFFF8BD401E491E027800
:109E50000A70641EF9D2F8BD471B2A463946FFF73F
:109E60007EFF641B3846A542F6D3011B22463046CE
:109E7000FFF775FFF8BD134610B50446CAB2194680
:109E80001002821810048218204600F00FF82046B5
:109E900010BD01E004C0091F0429FBD28B0701D5C6
:109EA0000280801CC90700D00270704700290BD0C7
:109EB000C30702D00270401C491E022904D3830745
:109EC00002D50280801C891EE3E70022EEE7002213
:109ED000DFE70378C2781946437812061B0219435C
:109EE0008378C0781B04194311430902090A00064C
:109EF00008437047002203098B4273D3030A8B4245
:109F000058D3030B8B423CD3030C8B4221D312E07A
:109F100003460B437FD4002243088B4274D30309CA
:109F20008B425FD3030A8B4244D3030B8B4228D36B
:109F3000030C8B420DD3FF22090212BA030C8B4291
:109F400002D31212090265D0030B8B4219D300E031
:109F5000090AC30B8B4201D3CB03C01A5241830BB6
:109F60008B4201D38B03C01A5241430B8B4201D366
:109F70004B03C01A5241030B8B4201D30B03C01A8F
:109F80005241C30A8B4201D3CB02C01A5241830A09
:109F90008B4201D38B02C01A5241430A8B4201D338
:109FA0004B02C01A5241030A8B4201D30B02C01A62
:109FB0005241CDD2C3098B4201D3CB01C01A5241C9
:109FC00083098B4201D38B01C01A524143098B4252
:109FD00001D34B01C01A524103098B4201D30B013B
:109FE000C01A5241C3088B4201D3CB00C01A524160
:109FF00083088B4201D38B00C01A524143088B4225
:10A0000001D34B00C01A5241411A00D201465241BD
:10A01000104670475DE0CA0F00D04942031000D3DC
:10A020004042534000229C4603098B422DD3030A31
:10A030008B4212D3FC22890112BA030A8B420CD341
:10A04000890192118B4208D3890192118B4204D36A
:10A0500089013AD0921100E08909C3098B4201D3EA
:10A06000CB01C01A524183098B4201D38B01C01A24
:10A07000524143098B4201D34B01C01A524103099B
:10A080008B4201D30B01C01A5241C3088B4201D34A
:10A09000CB00C01A524183088B4201D38B00C01AF7
:10A0A0005241D9D243088B4201D34B00C01A5241CE
:10A0B000411A00D20146634652415B10104601D35B
:10A0C0004042002B00D54942704763465B1000D3E5
:10A0D000404201B50020C046C04602BD0246C80F3E
:10A0E000C00781434B0030B54B405B009B0D20D037
:10A0F0001923DB06C91801231B05994220DB032421
:10A10000A40704251346AB400BD3002B04D1EB0668
:10A1100013409B00E34204D4012464070023121976
:10A120005941FF231B0599420BD2C9000143500F2F
:10A1300009E0CB0204D501430803024305D00548DA
:10A1400030BDFF21C905084330BD08460721090578
:10A15000884330BD0000C07FF0B50C46871A9C4193
:10A160000D46861A9D4103D2C01BA141D2196341FD
:10A170000D0D1F0DC94EEC1BAE435CD07F057F0D4E
:10A180000026002F51D02D05AC46A943DD02012346
:10A19000ED0A1B051D4320231B1B24D41746E74053
:10A1A000381871412F46E740CC199D402818314698
:10A1B00061410C0D27D161449A4013D50023401C06
:10A1C000594152000ED14008400001224B00520577
:10A1D000D34207D305204007C14201D5B04900E072
:10A1E000B0493046F0BD6B00002A00D001229A1819
:10A1F0001F23203C1B1B01D5002302E0E54028184B
:10A2000071410C0DD7D0012424050919C407CD07CD
:10A2100040084908E40F28436144002CD5D00024AD
:10A22000401C61419A40D0D1CDE76A05520DD9D189
:10A23000C90FC907D5E79C4D4E00002801D0012465
:10A2400000E0002434195F00002A01D0012600E05C
:10A250000026BE19954FAC420CD8AE420AD8B44283
:10A2600006D001256D05EC42BCD010461946F0BD64
:10A270009942FCD000203946F0BDF0B51FB40C4621
:10A280000F46811A9F412546861A9D4106D2012517
:10A29000ED076F40401ABC4152187B41210D1E0D45
:10A2A0008D1BAC467D4D8D437ED075056D0D7CD0EC
:10A2B0000D05AE46AC431B031B0B794D52429D412D
:10A2C000202366469B1B14D31746F74038180026F8
:10A2D0000090744160462F460741E41900989D4064
:10A2E0002818664116D4714671189A4025D5012365
:10A2F00020E093182A466A415200002B00D0521CDD
:10A300001E23203E9B1B002B61DD3541EE172818D4
:10A310006641E8D5001876415B1C9A4000D3401C8A
:10A320004B05F3181524E34010D3002B52D071468F
:10A330007118D30FC01802D3491C05B0F0BD01231A
:10A34000DB079A42F9D140084000F6E701225205A6
:10A35000B21801D1002853D00123CC0ADB02994363
:10A36000891E002A08D1020C03D0020C0004103907
:10A3700002E00246002020390023550B05D11202CD
:10A380000823550B01D152010D23550C01D11201A7
:10A390001B1DD50C01D192009B1C150D01D1520043
:10A3A0005B1C2025EE1A01E02CE022E00546F5407A
:10A3B00015439840CA1AE10769181305C918002AFD
:10A3C000BBDA032040070818C10FC9070FE0714628
:10A3D0006118B2E7F10740080843711071444A0060
:10A3E0000CD001235B059A42A7D2C90FC9070020F0
:10A3F000A3E74905490D26D1002001E00028F4D14A
:10A4000000219AE7284D6600002801D0012100E0D4
:10A41000002171185F00002A01D0012600E000260B
:10A42000BE19224FA94210D8AE420ED8B14208D070
:10A4300001256D05E94206D01946A80241401046A3
:10A440007BE79C4201D0214677E70020394674E73C
:10A4500010B50C465C4005D50124E4076340FFF7C6
:10A460000CFF10BDFFF778FE10BD30B40C465C4009
:10A4700004D50124E407634030BC6DE630BCFCE643
:10A4800070B50124E40761400D465D4002D4FFF73A
:10A4900063FE70BD6340FFF7F0FE70BDFF07000074
:10A4A0000000F0FF0000F07F0000E0FF0000F87FF8
:10A4B0000346CA02400D10B510430A1504D001240A
:10A4C000E4072043002A05DB0A4CA21A04D4D0403A
:10A4D000FF2A00DD002010BD4A00002B01D0012022
:10A4E00000E00020101801225205D042F2D8C8170F
:10A4F000C04310BD1E040000F0B58B4C0F0925466B
:10A5000089B0BD437BD01D092646AE43FAD00E4626
:10A510005E402740F60F3E43254071D02401214282
:10A52000FBD0FF24AD19A4042D1B039501252D0597
:10A53000DB02DB0AC9022B43C90A29431E010901B8
:10A54000040F130F050121431701880B8203914368
:10A550002D098C46A90B1E438A039543B30B9A031E
:10A5600096433F09BA0B9403A74302962E467E43B7
:10A570000497B6464E19D7190C46019654430597D1
:10A580007E43371B7646BF1B3601B646BE0B3619D7
:10A5900000967646BC043719009C01D3641C0094D5
:10A5A0006400002F01D001263443029E049F7543AE
:10A5B00066467E430496760034196E003419009482
:10A5C000029C019E1C196643751BAE4606946546A7
:10A5D0004519059C05956C43594375460891691AC0
:10A5E0000191049E01465143A41B0491611A009CF1
:10A5F0000791E10605D061090122114302E072E0F2
:10A600006EE06109089D00272C0A2D066918049D3B
:10A610007C412A0A2D066918019D6241AC0DAD02EC
:10A620006D185441079A910D920255196141029A91
:10A63000644658435443069B059A5A43121A131B07
:10A640009A0E9B015B187A41010B0005C31851411A
:10A65000220A200644195A419A4200D2491C01207C
:10A660004002814203D315230226F64302E014235D
:10A670000326F6432020C51AA9401746AF40DA400A
:10A680000A4320460399D840091473181905511834
:10A69000039A3843D2075140AC4009D0012294407C
:10A6A00006D30022401C5141002C01D1400840003B
:10A6B0001E4A934212D3012203989206904207DB6E
:10A6C0000520400709181A480143C012414004E020
:10A6D000032040070818C10FC907002009B0F0BDCA
:10A6E0000020F107FAE705180C464C4111486D426D
:10A6F000A04115D394181A465A410E48644290411D
:10A700000ED301204A004005824209D35A008242FA
:10A7100006D35940C90F084AC90700201143DDE795
:10A7200000200649DAE700000000FF07FE070000EE
:10A73000FFFFFF7F0000E0FF0000F07F0000F87FD8
:10A740000121C9050123411842001B06D3185B0EE5
:10A750000AD0C1100722D206891840075242D142BE
:10A7600001D5520089187047090208D50146002A10
:10A7700003D0C10FC907002070471046704742023E
:10A7800002D0002002497047072109050143F4E780
:10A790000000F87FF0B5FF252D04C609C209FF2788
:10A7A00004462E400137CB093E4348402A402B4007
:10A7B0000746002A6BD0002B69D0AA4267D0AB4273
:10A7C00065D0002800DA32460125ED0529432C43E7
:10A7D00009022002090AD21A4B0C7F24E31A434CC7
:10A7E000000A7C44E35C7D242404121914145B00E9
:10A7F000A218884201D3521C00E0400049420C4696
:10A800005C4324115C43DB016415E318040A5C43D8
:10A81000C502200D0C4644436419250A5D432303F9
:10A82000EC0C0D46654300030019EB184C42A342A3
:10A8300001D35B18401CD4052018002B07D05B0007
:10A84000C91804D3401C002901D1400840003F2111
:10A8500089048A4209D3002A08DC1106090F04D0B2
:10A86000032149074018C00FC007F0BD0122410075
:10A87000120689187F2252069142F6D20521490715
:10A88000C84201D59010F0BDFF20C005F0BD002FDB
:10A8900000DA32461648AA4207D2AB4205D2190264
:10A8A000090E17D0F80FC007F0BDFF2563002D0675
:10A8B000AB42F9D84900A942F6D8AB4201D1A9422E
:10A8C000F2D0A94201D1002101E061004908D00580
:10A8D0000843F0BD1102090EFBD0FF200243D00552
:10A8E000F0BD0A460146104654E70000C4160100B8
:10A8F0000000C07F1F22030C02D10F2200041CD0D5
:10A90000030E01D10002083A030F01D10001121F0A
:10A91000830F01D18000921E002801DB4000521EEF
:10A92000D2055118021251181922904004D3491C23
:10A93000002801D14908490008467047C10FC907DE
:10A9400000D04042012292071143D3E70121890739
:10A95000D0E7FFB504460D4681B024300090216851
:10A96000880604D51022E0699143216000E00120AF
:10A97000A84201DD471B00E000270498A1697A196D
:10A980001018081AA0612078C00602D42046FFF7EC
:10A9900065F8002608E003986268A168805D90472A
:10A9A000206A401C761C206204988642F3DB2078E3
:10A9B000C0060AD52046FFF751F806E06268A16894
:10A9C00030209047206A401C206238467F1E0028B5
:10A9D000F4DC07E000986268A168405D9047206A57
:10A9E000401C206228466D1E0028F3DC2046FFF73D
:10A9F0004BF82078000602D5022005B0F0BD0120FA
:10AA0000FBE700007047FFB50C461E468FB003CA37
:10AA1000089009914F007D0D00D16D1E0021084660
:10AA20000020C0460321099A89050840002A03DA5C
:10AA30008200801840080840800D01280A9002DD3D
:10AA40000020C0430A90089807430DD0F048F14910
:10AA5000281848430714189800281DD07542291E4D
:10AA60001DDD0A9842421BE01898012802D0002000
:10AA7000302104E00020F24305E02154401CB042A4
:10AA8000FBDB30460022189B002121540F998B607C
:10AA90000A60486013B0F0BDBD1B6D1CDFE70A9A69
:10AAA000002900DA69420BA800F096FA0BAB07CB3D
:10AAB00003AB07C30899099800F0FAFA6B4607C37D
:10AAC0000146D5480918002D00910BDDD2490398A5
:10AAD0000A9A49424018002303A90390684600F0EF
:10AAE00057FD08E003990A9A0023081803A9039068
:10AAF000684600F0F7FC6B4607C30004000C03D067
:10AB00000020C043410800E01046189A002A03D0F4
:10AB10000022009215461EE0751E05D400F0C2F911
:10AB2000303262556D1EF9D501220843079602D0D6
:10AB300000227F1C04E02078302801D100227F1EF3
:10AB4000002A069787D01EE0112D07DA00F0AAF937
:10AB5000303262556D1C02460A43F5D1084303D0DA
:10AB60000098002819D00EE00021681E05E0235C43
:10AB7000625C63542254401E491C8142F7DBA81BCF
:10AB8000401E07950690079A18990020A0540F9828
:10AB9000079B069A81600CC07CE711260020189064
:10ABA00059E7D21DF0B50D460446D10893B0C9004F
:10ABB00003C90C900D910AF087FA02460D98C00F58
:10ABC00001D02D2007E02068810701D52B2002E06D
:10ABD0004007C00F4001032A0F9001D0072A05DB70
:10ABE00003462946204600F0B3F90EE1207880069E
:10ABF00001D5E76900E006272846652D04D06628C0
:10AC000014D0672D69D12DE00020112F009001DBB9
:10AC1000112300E07B1C0CAA03A910A8FFF7F3FE88
:10AC20001199002610987D1C0E9142E001203B46B0
:10AC30000CAAC0070B900120009003A910A8FFF7F1
:10AC4000E2FE119D12981099002600280E9501D160
:10AC5000781C0D18781B02D446427D1C761EE81B1A
:10AC600000903AE0012F00DA01270020112F009018
:10AC700001DD112300E03B460CAA03A910A8FFF751
:10AC8000C2FE11993D46109800260E9121780907C1
:10AC90000BD40E99A94200DA0D4603A9012D04DD5B
:10ACA0004A19203AD27F302A06D0B84201DA011D73
:10ACB00004DA012100910FE06D1EEFE7002802DCAD
:10ACC00086192D1A03E0411CA94200DD0D46801BA8
:10ACD000401C00900120C0070B902078000705D48D
:10ACE0000098A84202DB0020C04300906946002083
:10ACF000C8720B98012102AF0337C907884225D0DB
:10AD0000022010902B2011900B9800280BDA404263
:10AD10000B902D20119006E00B9800F0ABF830312D
:10AD20007F1E0B9039701099481E00291090F3DC9B
:10AD30000B980028F0D111987F1E387020880005EC
:10AD400001D5452000E065207F1E387001A8C01B9A
:10AD5000C01D0B900F98002800D0012041190098C9
:10AD6000C01709180B980818A169081A401EA0619D
:10AD70002078C00602D42046FEF770FE0F98002807
:10AD800005D06268A1689047206A401C2062207844
:10AD9000C00625D52046FEF761FE21E0002E07DB28
:10ADA0000E98B04204DD03A86268805DA16802E0ED
:10ADB0006268A16830209047206A761C401C20629F
:10ADC0000098401E002800900AD100F067F8C06883
:10ADD00062680168405CA1689047206A401C20625C
:10ADE00028466D1E0028D9DC07E062683878A16823
:10ADF0007F1C9047206A401C20620B99481E002946
:10AE00000B90F2DC2046FEF73FFE032042E60000F6
:10AE100001FCFFFF104D0000E1DFFFFF10B54369AB
:10AE2000002B02D0C046C04601E0FEF73EFE0120E6
:10AE300010BD1278014624310A7000224A700122A6
:10AE4000ECE711680022D243E8E70000084B70B538
:10AE50000D467B4400F069F80446284600F0E8FB04
:10AE6000002802D00020C04370BD204670BD000005
:10AE700021C7000001468008081A02091018020ABA
:10AE80001018020C1018C008820012185200891AFB
:10AE900001E0401C0A390A29FBD27047004870477C
:10AEA000140500200B4670B5024689078008084348
:10AEB00019469D08141AA9412509080705430809E0
:10AEC0002C194841250A01060D43010A2C1941415C
:10AED000200C0D0428430D0C00194D410021401990
:10AEE0004D41C00869070843E908840F8D002543D8
:10AEF000840024184D4124196D41121BAB4107E019
:10AF00000925ED432C11521963410024401C614175
:10AF10001C460A250026551BB441F1D270BD000025
:10AF200001694A1C02610878704700B58FB0029130
:10AF3000002105910549019379440391114604903C
:10AF40006846FEF73DFE0FB000BD0000E5FFFFFFC5
:10AF5000F8B51F46044601230068DB0203260146BC
:10AF60001840072A05DB002801D017A506E017A521
:10AF700004E0002801D016A500E016A510208143AA
:10AF80002160A069C01E002FA06101D0401EA061F9
:10AF90002046FEF763FD002F09D038466268A1689D
:10AFA0009047206A401C2062C01C206206E0206A94
:10AFB000FAE762682878A1686D1C9047761EF8D27F
:10AFC0002046FEF761FDF8BD4E414E006E616E00F9
:10AFD000494E4600696E6600F7B516468AB033489A
:10AFE00078446C4603467C33C06F5A689B680DC436
:10AFF0002E487844763003AC0DC80DC43720C0010C
:10B00000081837211B30FEF783FF05460C46803DAC
:10B010001B3C02D56442012000E00020002709907B
:10B0200010E0E0070CD00C202049784379443246E8
:10B030004C3941186846012300F054FA6B4607C3A7
:10B0400064107F1C002CECD1184F7F442E3F16E07B
:10B05000E80712D02001C0190EC806910893079284
:10B060000068F04201D1981908903246012306A9E0
:10B0700003A800F037FA03AB07C36D10641C002D62
:10B08000E6D10998002806D032466946012303A874
:10B0900000F07EFA05E001233246694603A800F07D
:10B0A00021FA0A9B07C30DB0F0BD0000080F010094
:10B0B000034640000A4610B5400D0BD00121C907D8
:10B0C0000F24A40200191C0364082143540D2143DA
:10B0D000D20207E000210120F2E7D40F490021430A
:10B0E0005200401E0029F8DADB0FDB07184310BDC1
:10B0F000FFB50D46144685B04868516809F0B2FFA7
:10B1000000910190A868A16809F0ACFF029103903A
:10B11000A868616809F0A6FF029A1218824202929A
:10B1200001D2012000E00020019A0B18D21800285B
:10B13000019202D08A4202D903E08A4201D2012060
:10B1400000E000200099081800906868A16809F0E4
:10B1500089FF029A12188242029201D2012000E075
:10B160000020019A0B18D2180028019202D08A42BE
:10B1700002D903E08A4201D2012000E000200099B8
:10B1800008180090286821684000490040084908D4
:10B190004018FA49471814E001994000C90F0843C4
:10B1A0000090019802994000C90F0843019002984D
:10B1B00003994000C90F08430290039840007F1E86
:10B1C000039000980028E7DA0898002801D0EC4E98
:10B1D00000E00026B74201DA012000E0002000284C
:10B1E00004902AD0F71BF806C00E15D0029B202130
:10B1F000091A039A8B401A430392029A019BC24098
:10B200008B401A430292019A009BC2408B400099E6
:10B210001A430192C14000917B110DD06F4603206B
:10B22000C11A03D500218200B95003E08A008100D1
:10B23000BA587A50401EF3D5374603980299002831
:10B2400000D00120014308980291002808460CD044
:10B25000002800D001200199019A490508430121E5
:10B26000D20AC902D202019200E001210E9B012202
:10B27000D207012B02D0002B03D013E0002807D106
:10B2800020E0904204D890420CD1019B0B4209D09F
:10B29000019B5918019105D10099491C009101D1D8
:10B2A0007F1C009200280DD0102108460020C046C7
:10B2B0000498002806D00F98002803D008210846DB
:10B2C0000020C04628682168019B009A4840C10FB1
:10B2D0000598C90739430EC009B0F0BDFFB587B066
:10B2E000099A089808995368926840688968964650
:10B2F0000022039317469446089A12685300099A4D
:10B300005B081268520052089A1A9E4BD4180A9A87
:10B31000002A01D0352200E04022069200220123BB
:10B3200015460492DB07059324E0002D05D17546F0
:10B330000346039E4D1BB34109D375466646039BE6
:10B34000491B049D9841059B7519AC465F416346B6
:10B350003B4308D0059B049EDD0776082E435B081F
:10B360000496059301E0521E641EC50FED074918AF
:10B370004041521C069B9A42D7DB002D04D17546F2
:10B38000039A6B1A824101D203200CE0039A0B4608
:10B390006B404240134303D0014303D0012002E03D
:10B3A000022000E0002061460191002100970291F7
:10B3B0000A99002905D0614640020143704B019172
:10B3C00002E08007002302909C4201DA012000E0A5
:10B3D000002007003AD01A1BD006C00E15D0029DDF
:10B3E0002021019C091AC5408C402543029C8C40B9
:10B3F00000D001242543019C0295009DC4408D404E
:10B4000000992C430194C140009154111DD06D4608
:10B410000221002202290CD10320001B07E0002892
:10B4200004DB8600AE59002E00D00122401C032808
:10B43000F5DB081B02D588002A5004E0800028585C
:10B4400010438A00A850491EE3D51C460A980028DC
:10B4500002980CD0002800D001200199019A4905DA
:10B4600008430121D20AC902D202019200E001215F
:10B47000109B0122D207012B02D0002B03D013E036
:10B48000002807D11FE0904204D890420CD1019BC4
:10B490000B4209D0019B5918019105D10099491C13
:10B4A000009101D1641C009200280CD010210846A4
:10B4B0000020C046002F06D01198002803D0082194
:10B4C00008460020C04608980999019A009B006828
:10B4D00009684840C10F0798C907214382600AC024
:10B4E0000BB0F0BD00B585B0019300920A4601464D
:10B4F000002302A8FFF7FCFD02A807C805B000BDA5
:10B50000FFB50A461F4685B00799019301230091B4
:10B51000014602A8FFF7ECFD02990398049ECA0FAA
:10B520004900D20700920F22490892028C1A00218A
:10B53000002800DB0C46450013486D08844214D3F4
:10B54000079A002A04DA441E0026104DF64302E052
:10B5500004460D460E46102108460020C046002F26
:10B5600003D0042108460020C0462005E90A08430C
:10B57000009908436905F20A1143ADE602C0FFFFD6
:10B58000013C0000FF3F0000FF070000FFFFFF7FBE
:10B5900000B585B0019300920A460146002302A837
:10B5A000FFF79CFE02A807C8A8E7FFB50A461F469A
:10B5B00085B00799019301230091014602A8FFF786
:10B5C0008DFE02990398049ECA0F4900D20700928B
:10B5D0000F22490892028C1A0021002800DB0C4639
:10B5E000450011486D08844214D3079A002A04DAF2
:10B5F000441E00260D4DF64302E004460D460E465D
:10B60000102108460020C046002F03D00421084620
:10B610000020C0462005E90A08430099084369054F
:10B62000F20A114358E60000FF070000FFFFFF7F0A
:10B63000C06880210840704710B50446C046C04627
:10B640002046FEF7DBF910BD82078B079A4237D1FF
:10B6500070B5920F0AD0032402780B78401C491C65
:10B66000002A2BD09A4229D12042F5D11D4EF40157
:10B6700004C808C9951B9543254010D19A4207D1AB
:10B6800004C808C9951B9543254008D19A42EFD0BC
:10B6900012BA1BBA01209A4200D2404270BD12BABF
:10B6A0001BBA2DBA18241000E0401900E140401ADE
:10B6B00005D12E00E64002D1083CF4D1D01A70BD6D
:10B6C00002780B78401C491C002A09D09A4207D105
:10B6D00002780B78401C491C002A01D09A42EFD016
:10B6E000D01A70470101010101491820ABBEFEE7E5
:10B6F00026000200704770B58C180578401C6B0757
:10B700005B0F01D10378401C2A1106D10278401C3E
:10B7100003E00678401C0E70491C5B1EF9D12B0714
:10B7200005D40023521E0DD40B70491CFAE7037890
:10B73000401CCB1A921C03E01D780D70491C5B1C49
:10B74000521EF9D5A142D8D3002070BD8121C90570
:10B7500080220128088802D0904308807047104357
:10B76000FBE78121C90502220128088806D0402371
:10B770001843088008889043088070471043FBE70F
:10B780008121C905012802D0088810220BE04868F1
:10B790004002088802D5FF22013204E0042210434F
:10B7A00008800888012210430880704710B50A49B4
:10B7B00000220A7048708A7002200871C87008461A
:10B7C00000F00DF90120FFF7CCFF0120FFF7BEFFCD
:10B7D000012000F0B3F810BDDC02002010B50023FA
:10B7E0000222012100F040F8014910F08BF910BD50
:10B7F0001F858B40F8B581250746ED056868400335
:10B8000002D54724240600E0134C0846FFF79EF8B3
:10B8100006463846FFF792F869680906890F01293C
:10B8200003D069680906890F05D16968490301D504
:10B830000A4C00E00A4C2146FEF7ACFF04467F218B
:10B84000C905304610F018F9214610F05BF905499A
:10B8500010F058F9F8BD000000720A4700031547C0
:10B86000002C21479A991940F8B581250E46ED051F
:10B8700069681F46490302D54724240600E0204C8E
:10B88000FFF75CF8009068680006800F012803D07D
:10B8900068680006800F05D16868400301D5194C1F
:10B8A00000E0194C7F25ED053846FFF74FF8294693
:10B8B00010F0E2F8FEF744FF05460F460098022E0E
:10B8C000214611D0FEF766FF104910F01BF9FEF774
:10B8D00037FF0F4A0F4BFEF7D3FD2A463B46FEF7D4
:10B8E0000BFEFEF7FBFBF8BDFEF754FF074910F017
:10B8F00009F9FEF725FF064A064BFEF7A9FDECE71E
:10B9000000720A4700031547002C21479A991940F5
:10B91000333333333333E33F10B5002302220121A5
:10B92000FFF7A2FF034910F0EDF8034910F042F9C8
:10B9300010BD00000080C8430080854381210122A2
:10B94000C90592040128486802D010434860704736
:10B950009043FBE770B50D46044600F036F88121B0
:10B96000C905496800B28905890F022C0ED0012C47
:10B9700010D0032C14D0062C12D0072C10D0052C7C
:10B9800011D0042C13D0FEF7D9FF70BD0B462A4608
:10B99000022102E00B462A460121FFF765FF70BD38
:10B9A000FFF728FF70BD2946FFF718FF70BD0A4654
:10B9B0002946FFF7B1FF70BD8121C905097C01420D
:10B9C00001D001207047002070478120C0054168E8
:10B9D000490301D4C08A7047808A7047704781212B
:10B9E000C9054A68C0239A4303789B071B0E1A4374
:10B9F0004A604378012292050F2B4B6823D0934372
:10BA00004B604A680E239A4343785B071B0F1A4327
:10BA10004A604A6830239A4303799B079B0E1A4376
:10BA20004A6082780123DB02082A4A680ED09A43D2
:10BA30004A604A680323C0781B0280079A43800D3E
:10BA400002434A60704713434B60E2E71A43EFE753
:10BA5000FEB5224E7068800705D505F003FD7068BD
:10BA60000221884370607068400618D51C4D002480
:10BA70002F46803F04E0385D08F073F9641CE4B29F
:10BA80002878A042F7D80020287001461448802268
:10BA9000803806F004F87068402188437060706850
:10BAA000C00719D07068400716D57068800613D596
:10BAB00009F008F8064601A808F0FEFF094C0A4DF7
:10BAC00001980090334600222188288809F030FF31
:10BAD0006428F5D001F09EF8FEBD00002003002090
:10BAE0009C04002000030020FE0200207FB50546D4
:10BAF0009868012202739A681C4651739868022262
:10BB000002A90E3005F0C7FFA16805200D74E08082
:10BB10007FBD70B5064608881D460C46001D81B2E3
:10BB200013460222304606F01FF921882B46891C55
:10BB30002180091D89B20222304606F015F92088BD
:10BB4000801C208070BDFEB500240E462746056887
:10BB500045E028680290A968022230460D3105F0C0
:10BB60009AFF3088B84209D087B2384602F002FF07
:10BB7000014601AA384603F079FD019CA96802221A
:10BB800068460F3105F087FFE888401F81B2222008
:10BB9000005D002806D001280BD0002811D0012814
:10BBA00014D01BE0E08B6A461288401E904206D3F8
:10BBB00007E0208C6A461288401E904206D2072079
:10BBC000FEBD684600880818E18B03E068460088DF
:10BBD0000818218C884201D90D20FEBD029D002D40
:10BBE000B7D100203080FEBDFFB5C8880025401EBB
:10BBF00083B00E4687B2012427E0B06802220830E5
:10BC000001196846091D05F046FF6846008802F0E4
:10BC1000B1FE01001DD068460A8D0088824212D014
:10BC200001AA03F023FD00280DD101992620405CD4
:10BC3000400708D506986A00101802221C3105F04A
:10BC40002AFF6D1CADB2A41CA4B2BC42D5D30C9883
:10BC5000058007B0F0BDFFB5074683B00020009017
:10BC60000D9802F087FE054606980C300190002DD5
:10BC700026D00837BD4223D0288D0E9988421FD880
:10BC80000D99884213D30E99884210D82946022272
:10BC90002A31019805F0FFFE10220C99069805F054
:10BCA000F6FE002809D0298D0E98814208D02E4634
:10BCB0002C6A2036B442DDD03EE005980021018098
:10BCC00007B0F0BDA08B0D99884234D30E998842FD
:10BCD00034D8204620300290C078012808D0204671
:10BCE000083010220C9905F0D2FE002808D022E07E
:10BCF000214602220831019805F0CDFE0698F0E7B2
:10BD000002988079400716D50098002801D1E08B71
:10BD10000090E18B814211D10598022200884100F8
:10BD20000498081821461C3105F0B5FE05980599C0
:10BD30000088401C08802468B442C3D12D6899E76C
:10BD40000648002102680520400210180172417265
:10BD500003218172C1720020704700007803002027
:10BD600070B50D4D044611212868C9014018902670
:10BD700001231A46806F314609F0FAFA010003D018
:10BD800030464C6009F0E0FA0520296840020918A5
:10BD9000087A401C087270BD7803002010B5044674
:10BDA00000202082A074A168A1616161206020460A
:10BDB00004F0DEFE452801D0412010BDA0880321FB
:10BDC0000BF018FC04460CF01DF9002812D072B6D6
:10BDD0000948012201684F20400109184878A24013
:10BDE0001043487062B600200EF0DAF9002801D046
:10BDF0000AF054FA002010BD7803002070B5C17C11
:10BE00000E4D4906490EC174044611212868C90126
:10BE10004018902601230022806F314609F0A8FACD
:10BE2000010003D030464C6009F08EFA05202968E5
:10BE300040020918487A401C487270BD78030020FF
:10BE4000F0B53BA00FC897B006AC0FC43CA00FC81C
:10BE50000FC43FA00FC80FC441A00FC80FC41022C9
:10BE600006A9434805F017FE424800900923012225
:10BE70003F49022009F0F7FB00284AD13C48102234
:10BE80000AA9103005F007FE3A481025801C00264C
:10BE90000127374A0446009503950296083C04970B
:10BEA00001960590142310320221E08809F0BCFBB2
:10BEB00000282ED12E4810220EA9103005F0EBFDDF
:10BEC00020460A302A4A0095039502960497019667
:10BED0000590142310320221E08809F0A5FB002808
:10BEE00017D12348102212A9103005F0D4FD2046A6
:10BEF0000C3005900C201E4A02970497039501967A
:10BF00000090142310320221E08809F08DFB0028F4
:10BF100005D019A0FDF794FD472017B0F0BD638947
:10BF2000A28921891E48FDF78BFD0020F5E700005E
:10BF3000669A0C200008969EE2119EB10F1873D9E4
:10BF4000669A0C200008969EE2119EB1192A73D9B8
:10BF5000669A0C200008969EE2119EB1E8F273D911
:10BF6000669A0C200008969EE2119EB1E7F273D902
:10BF7000A0040020040300204572726F72207768CD
:10BF8000696C6520616464696E67204261747465E0
:10BF9000727920736572766963652E0A000000006D
:10BFA00080BF0710F0B52BA00FC893B006AC0FC42C
:10BFB0002CA00FC80FC42FA00FC80FC4102206A9B1
:10BFC000304805F068FD304C062301222D4902203F
:10BFD000009409F048FB00282FD12A4810220AA912
:10BFE000103005F058FD10260027A01C0125254A19
:10BFF000009603960297019704950590142310323A
:10C000000221208809F010FB002816D11D481022BB
:10C010000EA9103005F03FFD201D05900C20194A97
:10C020000295039604950197009014231032022183
:10C03000208809F0F9FA002805D014A0FDF700FDCA
:10C04000472013B0F0BDA288618819A0FDF7F8FC65
:10C050000020F6E7669A0C200008969EE2119EB139
:10C06000E0F273D9669A0C200008969EE2119EB108
:10C07000E1F273D9669A0C200008969EE2119EB1F7
:10C08000E2F273D9A0040020FE0200204572726F14
:10C0900072207768696C6520616464696E6720430B
:10C0A00068617420736572766963652E0A0000000A
:10C0B00043686174205365727669636520616464C6
:10C0C00065642E0A545820436861722048616E648A
:10C0D0006C6520253034582C2052582043686172FA
:10C0E0002048616E646C6520253034580A000000D9
:10C0F00010B503F025FB012800D0002000F002F865
:10C1000010BD000070B5254C002621780546002999
:10C110000AD0012910D002291FD0032929D0267066
:10C12000002D00D1267070BD0028FBD001202070AA
:10C1300000F09AFD606070BD002D0CD000F094FD01
:10C140006168401A1428F6D903F0FAFA012806D1DA
:10C150000220207003E02670E4E7002D19D000F0E3
:10C1600083FD6168401A7D21C9008842E3D903201C
:10C1700020700BA0FDF764FC012007F069FE002091
:10C1800007F097FE002007F094FE002007F091FED4
:10C19000C6E709A0FDF754FCC4E70000D402002064
:10C1A00054686973206973204C6F6E672042757400
:10C1B000746F6E0D0A000000546869732069732063
:10C1C0005465737420666F722053686F7274427581
:10C1D00074746F6E50726573730D0A00F8B516466D
:10C1E0000D460746002407F0F5FB002806D032462E
:10C1F0002946384600F0BEFC044604E02035687944
:10C20000002802D00E242046F8BD2879C10701D1AC
:10C21000012E09D0810701D4022E03D04007F2D4A9
:10C22000042EF0D10324EEE70224ECE7F8B50E4625
:10C23000314915468A88521C90422AD12F4C2078C9
:10C24000002815D0214680390027401867703246F3
:10C25000294605F020FC20788019C0B220707F2884
:10C2600005D980220021A01A05F019FC2770F8BD1D
:10C27000224880220021803805F011FC1F483246F8
:10C280002946803805F007FC2670012007F0DCFE07
:10C29000F8BD4B881A4A9B1C984205D12878012882
:10C2A000F6D1106804210CE00B899B1C984203D046
:10C2B0004B899B1C984207D128780128E8D1106847
:10C2C000802108431060F8BD8989491C88420DD13E
:10C2D00068782A7801021143642903D92820643937
:10C2E000414389B2002005F053FBF8BD014605A08B
:10C2F000FDF7A6FBF8BD0000FE0200209C04002014
:10C3000024030020556E6578706563746564206849
:10C31000616E646C653A203078253034642E0A00F2
:10C320007EB5044616460D46684603F0B5FA6846E3
:10C3300003782370407828706846807830707EBD1E
:10C34000F0B50022104B03E09C5C521CA218D2B244
:10C350009C5C002CF8D1971D02243B253526202F0C
:10C3600008D29C549A1855709070D47016715171FF
:10C3700000239371054A147055709070D470167133
:10C38000517100209071F0BD7C030020F00200206C
:10C3900010B508F07BF91E4C47212068490141186F
:10C3A000097A002909D1A0300079C00729D00BF003
:10C3B00043FB00F069FC00F091FE00F01FF92068DB
:10C3C000014640310A78C9798A4319D13E21095C76
:10C3D000002915D10F490A88120711D50922D20662
:10C3E0001269497A836AC900591809231B02C018C7
:10C3F000406D801A00020012814201DA09F0CCFE81
:10C4000010BD01F0B3FD02F00FFB07F013F9D0E708
:10C4100078030020C0000020F8B5044609480F4604
:10C420004168C9070DD0406800060AD5064D074E81
:10C4300000943B4600222988308809F079FA642864
:10C44000F6D0F8BD200300200803002004030020DC
:10C4500010B5837F0122002492024168082B03D982
:10C460004224914202D310E0914201D242240CE0D6
:10C4700001463422064805F00EFB00F07FF8002844
:10C4800001DA482401E008F03DFD204610BD00001F
:10C49000C00400203EB5174D15482968827F084624
:10C4A000A0310A7300246030047644768476E12259
:10C4B000C2768022027702224277302008704C70C8
:10C4C00002AA01A96846FFF72BFF68460078A2225E
:10C4D00001016846007A891C000201436846007920
:10C4E0000003014328681152A03004713EBD0000D2
:10C4F000C00400207803002070B508F0ABF804F009
:10C5000061FA05F0A3FBFFF71BFC03F07DFC184C60
:10C5100018492068184D4018811001202A68C0026F
:10C520001018816661688908C166A1688908016779
:10C5300007F048F81D2029688001228B081802871F
:10C54000628B4287A28B4286628C82862046203094
:10C5500002783B204001081882750021017001F02B
:10C560007DFB03F083FA0AF0B7F900F03DFE70BDE1
:10C57000C00400200000FCEF7803002070B5002507
:10C58000ED430AF081FF01282ED000231849032231
:10C59000888BFF24401E10438A7F4D3462438218EB
:10C5A000088B282460431218488B302460431218EB
:10C5B0000846203040782C24604310180D4A181883
:10C5C00084184869A0420DD10B4884420AD90D69EC
:10C5D0000AF05AFFC1B2284600F048FC00F076FD90
:10C5E000401B251A284670BDFF23B533CEE7000057
:10C5F000C004002035190000540A0000F8B52C4F83
:10C600003C68206E5C34401C002814D0002529486A
:10C610000023C07B00283ED00926F6062648002DC0
:10C620001CD000210A460B464169521C994204D194
:10C63000002902D004E00125E9E7204B9A42F2D319
:10C640002160006960603069A1680002090E000A7B
:10C6500009060143A16000F033F81DE03169A268CA
:10C660000902090A150E08D0018BC90712D04169C9
:10C67000216000696060E37210E0881A00027D2387
:10C6800000121B03984205DD100E00060843A0604F
:10C6900000F016F8F8BD6360002DFBD003CC0DF060
:10C6A00025FDFA200CF0AEFF39688862F8BD000065
:10C6B00078030020E00400200000104888130000E8
:10C6C0000449002008610448012100686030C171FC
:10C6D00070470000000010487803002010B505F0F6
:10C6E000B1FE10BD70B525490023086802464032EE
:10C6F000537613764F225201821853700F22203046
:10C7000082750522184652020C680546A418E46A90
:10C71000303523540C68A418E46A63550C6830352E
:10C72000A418E46A63550C68A418E56A04469034BA
:10C73000401CC0B22B552D28E6D308688118CA6A60
:10C740004A60144630340C601321C90141189032FC
:10C75000CA670B49044648340B8009224A710523F5
:10C760008B71CA710B72488100F00CF8FF202070A9
:10C770006070A070E0701F20207170BD78030020F1
:10C78000C000002010B5064801680648406A00282D
:10C7900003D020220AF011FE10BD0020087010BD49
:10C7A00078030020C0040020F8B5069C1F461546FB
:10C7B0000646002C13D0A06802220D3005F06BF95C
:10C7C000E81E82B23B460721204605F0CDFAE580FF
:10C7D000A068012E05D01D2101730020F8BD47205F
:10C7E000F8BD1B21F8E770B515460646FFF7F6FCC5
:10C7F0000446082D0BD1052C09D1304607F0EAF884
:10C80000002804D0008A4004800F00D00024204675
:10C8100070BD2423184204D0C81F092803D8203231
:10C82000D17100207047422070470000F1B5FFB081
:10C830008BB00124600205900027CC48079701685F
:10C84000E320C000081803908A98C74D0005000D2A
:10C850000AAA05A906F0D5FD0690002872D1042683
:10C860000AA805994218203AD27F0B2A23D0002625
:10C87000002004900AA88119022201A8029105F063
:10C880000AF96846818809AB08AA039802F0D0FE2D
:10C89000012817D002287DD068468088854200D3C1
:10C8A0000546844200D92046044602988078012833
:10C8B00071D013363BE1491E761E36040591360CC5
:10C8C000CFD1D5E708980090002F79D100990222A6
:10C8D0002831029805F0DBF800281ED1009820309E
:10C8E000017B02988078814217D1012808D10098F5
:10C8F000029902220830C91C05F0C9F8002815D099
:10C9000002988078022808D10098029910220830F5
:10C91000C91C05F0BCF8002808D00098008DA8427A
:10C9200000D80546A04200D22046044602990AA833
:10C930008978012907D013360599B6B28E4204D3FF
:10C94000012707E005E1761DF6E78119022201A81B
:10C9500005F0A1F80399009808318E462EE0844630
:10C960006946026A8B8820300DE0918B994203D38F
:10C97000012F7DD199427BD9A94200D80D46A14211
:10C9800000D30C4612688242EFD10498002817D1D8
:10C99000604601E015E0BFE0006870450ED0018DF3
:10C9A000994203D3012F09D1994207D98D4200D36F
:10C9B0000D468C4200D80C46012F59D17045CED17E
:10C9C000BAE008980090002F72D1009902221C3121
:10C9D000029805F05CF800281ED100982030C1783C
:10C9E00002988078814217D1012808D100980299D5
:10C9F00002220830C91C05F04AF800281AD0029813
:10CA00008078022808D10098029910220830C91CA9
:10CA100005F03DF800280DD00098808BA84200D882
:10CA20000546A04200D2204604460298807801289C
:10CA300026D003E002988078012805D013360798A5
:10CA4000B6B201281ED021E00098494900898842E9
:10CA500016D18A9800F084FE0146009800F062FD2D
:10CA60000099098C4843009989694018022200E026
:10CA700038E00299491D05F00EF801200790D4E72F
:10CA8000761DDCE7B61C0020B6B2079005988642FA
:10CA900001D3012705E00AA88119022201A804F0A8
:10CAA000FAFF039A0099083209980968944630E021
:10CAB0001AE086466A46938820300DE08A8B9A42B7
:10CAC00003D3012F0ED19A420CD9AA4200D81546A1
:10CAD000A24200D3144609688142EFD1049800288D
:10CAE0002AD102E00120049026E0704600686045EB
:10CAF0000FD0028D016A9A4203D3012F09D19A42C5
:10CB000007D9954200D31546944200D81446012F08
:10CB1000E8D16045CDD10FE00298C078022805D158
:10CB200002980079292801D1B61CB6B2761D059865
:10CB3000B6B2864200D301270598811B042902D38F
:10CB4000864200D294E604980028FBD1A54203D97E
:10CB500006987FB00CB0F0BD224629468A9803F0B3
:10CB60007DF80690F5E70000FFFF00007803002045
:10CB70000229000070B515460C46064606F013FF64
:10CB800020346179012D09D00A0702D54207920F9E
:10CB90000FD0CA0625D5020709D522E0CA0702D060
:10CBA0004207920F05D08A0705D5020703D4082053
:10CBB00070BD052070BD490707D5C00709D0E179D0
:10CBC000304606F078FE5F2805D02079C00704D0F3
:10CBD00005E00F2070BD0C2070BD022070BD00204C
:10CBE00070BD890607D5C007F3D0E179304606F05D
:10CBF00062FE5F28EFD02079810701D4022D07D093
:10CC0000410701D4042D03D00007E8D4082DE6D154
:10CC1000032070BD10B50649002008700548016862
:10CC200020229143016014210348FDF74EF910BD05
:10CC3000F8020020240300209C03002010B50848BF
:10CC40000649416107490723CA691202120A4404CE
:10CC50002243CA6100218161036110BD7E3E000054
:10CC600000E000E004ED00E00148006870470000CB
:10CC70002C03002003490A680B689B1A8342FBD3EC
:10CC8000704700002C03002010B505F043F904F0B4
:10CC90000BFF0AF0F9FB012801D100F004F800F0C5
:10CCA000C1F810BD7047704700207047002101E0B7
:10CCB00000BF491C8142FBD370470000F3B58BB025
:10CCC00005461C2249A103A8FCF79EFE684602F017
:10CCD000E3FD09240126E406002D6AD044206946BC
:10CCE00088764948017A314301724C206946C875FB
:10CCF00020200875B22048775B2008A90870434AB5
:10CD0000906A4349030C8B420AD108AFFB788F2706
:10CD10003B4008AFFB70FB784007400E0343FB70BD
:10CD2000506A020C8A420AD16B465A7CCF231A40C1
:10CD30006B465A745A7C8007800E02435A743348FB
:10CD40004038006B020C8A4209D108AAD1788908C0
:10CD50008900D170D1788007800F0143D170694676
:10CD6000C87DFB2108406946C8754878897800016C
:10CD7000084312280BD308A9C8780421084308A93E
:10CD8000C8706946C87D08A9C978FFF7D9FA03A811
:10CD9000012180B209044018E060E068C003FCD4BF
:10CDA00069464878897800010843122801D307F0C2
:10CDB000D9F91849088B0028FCD00E8317208881E8
:10CDC000002008610C98002806D02169102001403D
:10CDD000226902408A42FBD0002D02D00E49142065
:10CDE00008700F490D4808600DB0F0BD023F000209
:10CDF0003E30023C20023B4C023A400239B202343F
:10CE00005B02350B0000000000002040C00700104E
:10CE100055AA0000000010480000C040CCBCECFC4B
:10CE200014000020F8B5104E30682030C57D002D6C
:10CE300019D0002405277F0210E0E9070BD0C019A4
:10CE400001695820604308184030417D204603F0B6
:10CE5000B7FE002807D06D08641CE4B23068AC212E
:10CE6000095CA142E9D8F8BD78030020F3B581B090
:10CE7000934A012101A804F080FD924C0422206015
:10CE8000432101A804F079FD11272168FF01C91988
:10CE9000C8660422432101A804F06FFD2168042222
:10CEA000C9190867FF21843101A804F066FD2168D3
:10CEB000854DC9194867A97F0C2201A80B3104F0E0
:10CEC0005CFD05262168760289194863A97F202226
:10CED00001A804F052FD2168102289194862A97F37
:10CEE00001A804F04AFD21682822891988620521D9
:10CEF00001A804F042FD2168302289190863052148
:10CF000001A804F03AFD2168FF228919C8620132A4
:10CF1000012101A804F031FD216858228919C86354
:10CF2000A97F01A804F029FD216820228919086140
:10CF3000A97F01A804F021FD2168782289194861A0
:10CF4000A97F01A804F019FD0F212268C901511819
:10CF500088630722032101A804F00FFD0F21226836
:10CF6000C9015118C8632822012101A804F005FD58
:10CF70000F212268C90151184864AA8B012101A818
:10CF800004F0FBFC0721226809025118C866298BAE
:10CF9000282201A804F0F1FC072122680902511897
:10CFA0004866698B302201A804F0E7FC072122685B
:10CFB0000902511888660C22012101A804F0DDFC49
:10CFC00021680C228919C860012101A804F0D5FC50
:10CFD000216828228919C968886028462030009075
:10CFE000417801A804F0C9FC216804228919C968A4
:10CFF000896888600098417801A8491C04F0BDFC4C
:10D00000216810228919C96889684860A97F01A828
:10D0100004F0B3FC21680222C9190866A97F01A89F
:10D0200004F0ABFC21680222C9198863A97F01A81A
:10D0300004F0A3FC21680222C919C863A97F01A8D2
:10D0400004F09BFC21680222C9190864A97F01A889
:10D0500004F093FC21680122C9194864A97F01A842
:10D06000491C04F08AFC21681022C919C8650B21EB
:10D0700001A804F082FC07212268090251184860C7
:10D080000422802101A804F078FC216889198861B4
:10D09000029ADC204243012101A8443204F06DFCD5
:10D0A00021688919C861029AD8204243012101A848
:10D0B0002C3204F062FC2168891908620198FEBDD7
:10D0C000540A000078030020C0040020704710B507
:10D0D000C001000C00F0ECF9002010BDFEB572B6E6
:10D0E0003F4D0823286801464030C2791A43C27177
:10D0F00062B6002011276C46FF0182005218D21937
:10D10000926F52884300401CC0B2E2520328F4D30D
:10D1100072B6C8190021466E416662B6F00702D0A9
:10D1200000200AF057FDB00702D501200AF052FD99
:10D13000700702D502200AF04DFD300702D503200A
:10D140000AF048FD002623E00D281AD2211D254AA9
:10D150008000125820469047002812D072B62868E6
:10D16000F7224030C1791140C17162B630E03A28EF
:10D1700007D21C49231D8000E8390A581946204669
:10D180009047029829684018C019806F2188018053
:10D1900071006846415AB00002902A688018C01990
:10D1A000806F0288920892001418028808348A421C
:10D1B0000ED0A27891070BD09107890F012901D1D8
:10D1C00004460834A0788008C006E078CFD5BBE7D5
:10D1D000761CF6B2032EDBD30AF0E6FBFEBD0000A0
:10D1E0007803002004BE071070B50AF0F7FB124C5C
:10D1F00011252068ED014019C06E40210AF0B6F9F2
:10D20000216849198867086F40210AF0AFF9216841
:10D210004919C867486FFF2181310AF0A7F9092130
:10D2200023680902591808600448082200211818C8
:10D2300004F035FC70BD000078030020E408000015
:10D24000FEB506462A4814460068E322D200851837
:10D25000C888032806D02346002202210420FEF7B6
:10D2600045FC43E08968022268460D3104F013FC56
:10D27000326990052FD468460188172903D35C20B2
:10D28000405B172801D2172002E0814200D20846F5
:10D290007080012040020243022032610190144854
:10D2A0001B210068890141183788C97E76880123CF
:10D2B000490710D51121C901083040182422806F78
:10D2C000022108F055F8002805D08780C680014665
:10D2D000019808F039F8A06803260673A06829466B
:10D2E00002225C310D3004F0D6FBE6800020FEBD4A
:10D2F00078030020F7B590B000206A460D90908228
:10D300006A4AE3231268DB00D218CB880446022B5A
:10D3100008D0002218210420129BFEF7E7FB002012
:10D3200013B0F0BD8B6800205E7B0A900B9088885C
:10D330003032019209900027019808F0A7FB0546BA
:10D3400020E028680890A9880998814219D1A96825
:10D35000022207A80D3104F09EFB002F01D1684680
:10D36000878B6846808B87420BD12946019808F04D
:10D37000DAFB002028600A98002811D00B9805607D
:10D380000B95089D002DDCD1002FD4D112981921C6
:10D390008068017301211298012EC18002D081E0C2
:10D3A0000A95EDE702A90AA8FEF7CDFB002879D07F
:10D3B00069460A891821129BFEF798FB002671E046
:10D3C00081680546022202A80D3104F064FB012E9B
:10D3D00066D16846008901F0CDFA014668460EAA7A
:10D3E000008902F043F90E9C1099204600F09AF84B
:10D3F0000D9055E02F68012E3FD1002F06D0B9685F
:10D40000022205A80D3104F046FB02E00020694627
:10D410008882A968022204A80F3104F03CFBE88846
:10D420000D99401F80B20090208CA2694843694644
:10D430001018098A009A43180921284604F0A4FB11
:10D440002220005D012804D16846018A009808184E
:10D45000E08368460189808A81420ED0208C0D9934
:10D46000A269484310180021019000911098E38BA5
:10D470000188A28B022008F019F90A9908680A901D
:10D48000002008600A99002900D10B90012128464C
:10D4900004F016FC69460889898A884202D13D4613
:10D4A000002DA7D10A9800288AD139E778030020F7
:10D4B00000B508490968084A914209D14006010CA3
:10D4C00006483F22028181611121018000F022F88B
:10D4D00000BD000014000020CCBCECFC000010409B
:10D4E00000B5094A1268094B9A420BD1084A3F23FA
:10D4F000138180089061064840300160332010801D
:10D5000000F008F800BD000014000020CCBCECFCCA
:10D51000000010400248018AC907FCD07047000093
:10D520000000104030B5024623239B5C0020012BF5
:10D530001AD112890D4B9A4216D10D4A0523126851
:10D540005B02D318A0325B69127B0AE045010C88AC
:10D550005D5B24052D05240D2D0DAC4204D0401C2F
:10D56000C0B28242F2D8002030BD00000229000083
:10D5700078030020F7B578480F460068E321C9001A
:10D580004418F88888B0072804D200220621042015
:10D590000A9B2AE0B968022268460D3104F07BFA42
:10D5A000B968022201A80F3104F075FAB9680222A5
:10D5B00004A8113104F06FFAF888C01F80B20390FC
:10D5C00068460288808882420CD8002A0AD00898CF
:10D5D000002142880A9804F0A9FC002808D04520C0
:10D5E0000BB0F0BD062101200A9BFEF77FFAABE0ED
:10D5F0000A98072180680834017301216846018177
:10D600000594008801F0B6F905007CD086E06846F4
:10D61000008A0522D202904202D0521C904226D1AA
:10D6200068460088814278D329460B220831384663
:10D63000039B04F03FFB69466A8D098A8A426CD1DC
:10D640000399022901D0102967D1002865D12A4603
:10D650002846296A28322030814202D06B6A1C3366
:10D6600000E0134602A90A98FEF753FA55E02E4649
:10D670002C6A2036B4424ED14FE06946A08B09880F
:10D68000884247D369468988884257D82320005D5D
:10D6900001283FD120460899FFF744FF218CA26959
:10D6A000414351180B223846039B04F003FB0690BC
:10D6B00008980122008821460005000DFEF78EFD26
:10D6C00001466A462089128A904223D1002921D13D
:10D6D000E28B03998A421DD1069900291AD1089933
:10D6E0006A4649881289891A042927D322461B4988
:10D6F0001C32884208D12068B04205D00089884297
:10D7000002D02468F7E719E023461C3302A90A98DF
:10D71000FEF7FFF92468B442AFD12D680598854221
:10D720000CD06846298D8088814207D808986A46BF
:10D7300040881289801A042800D368E76846008967
:10D74000012803D90A99C880002049E76846028861
:10D7500006210A200A9B48E77803002003280000DE
:10D7600010B50D4900050B680521490259184A6991
:10D770000021000DA0331B7B0AE04C01145B240543
:10D78000240D844202D14801801810BD491CC9B241
:10D790008B42F2D8002010BD78030020FFB589B07D
:10D7A000002405460794D0881646052804D0002298
:10D7B000042108460C9B20E0B168022208A80D3124
:10D7C00004F069F9B168022268460F3104F063F988
:10D7D0006846028C008882420CD8002A0AD00A9837
:10D7E000002142880C9804F0A1FB002808D04520B5
:10D7F0000DB0F0BD042101200C9BFEF777F9B9E0D4
:10D800006846008C01F0B6F8060076D0083504951D
:10D810000498864272D06946308D098C884230D394
:10D820006946098888422CD8002C0AD10121079129
:10D830000C9805218068022401730C980799806870
:10D8400041730A984088001B042857D30798012881
:10D8500054D1201D81B23346283302220C9804F0A3
:10D8600083FAA01D81B233462A330222A41C0C98ED
:10D8700004F07AFA6946A41C308D0988A4B2884263
:10D8800074D03746356A2037BD42C1D060E0694662
:10D89000A88B098C88425AD369460988884265D882
:10D8A000002C36D02320415D0798814260D10A9830
:10D8B0004088001B042802D30799012904D01228AC
:10D8C00056D30798022853D1201D81B22B461C3312
:10D8D00002220C9804F048FAA41C0798A4B201286C
:10D8E0000DD0201D81B22B46083310220C9804F075
:10D8F0003BFA2046103084B229E03DE036E0201D9E
:10D9000081B22B46083302220C9804F02DFAA01C99
:10D91000F1E72320415D07910C98052180680222E0
:10D9200001730C980799806841730C9829468068A8
:10D930001C310E3004F0AFF8079901290CD02B46AA
:10D940000833102208210C9804F00EFA14242D68D4
:10D95000BD429CD136685BE70C982946806802225C
:10D960000831103004F097F80624F0E7002C03D0BB
:10D970000C98C48000203BE76846028C04210A20F2
:10D980000C9B3AE7830810B50A480021026805207D
:10D9900040021018A0324069127B07E04C01045B82
:10D9A000002C01D0994204D0491CC9B28A42F5D852
:10D9B000002010BD7803002070B50C460B4E81008E
:10D9C0000B4832680D1801232032D37721462846B0
:10D9D000FFF786FD28680021844201D1084600E057
:10D9E000FB2032682032D17770BD00007803002020
:10D9F0000000041038B5184A14682246BA32AE3412
:10DA0000A378DD0701D001290AD05B070CD50129D5
:10DA10000AD0217949070BD5E17A002905D007E022
:10DA2000E07880210843E07038BD0121E172508028
:10DA300020794106090FF7D078210840694608701F
:10DA4000002048706A460221422007F091FD2079AB
:10DA500087210840207138BD7803002070470000FE
:10DA6000FFB50C4678A103C995B001910090002143
:10DA700008A801730321C90268464186012108A84C
:10DA8000734E017435681746AE3502F053F800281E
:10DA900008D170493068401801F0BAFEA878002813
:10DAA00002D0462019B0F0BD0BA8159900F09AFAE3
:10DAB0000028F7D1072010A90871012C05D0022CED
:10DAC0000AD0002C0ED04220ECE708A8017B1020E1
:10DAD000014308A8017305E011A90BA800F091FA11
:10DAE0000028DFD110A8027901230CA9284600F0F4
:10DAF0007BFE00287ED102222946189803F0CBFF36
:10DB000029886846818115214902018207840126FE
:10DB100086734E2108A881700024C4700671072105
:10DB20004171867103A902A800F018FC002861D198
:10DB3000022202A91E9803F0AEFF082F02D2684607
:10DB4000478502E008206946488569460C850B46F2
:10DB500028880AAA098901F071FB00286DD13E4985
:10DB6000684601820227078408A8847103A902A8D5
:10DB700000F0F4FB002860D1022202A91F9803F0F4
:10DB80008AFF68460470694644704F850B462888B2
:10DB90000AAA098901F052FB00284ED108A8007B8F
:10DBA000C00723D02C496846C91C01820821018482
:10DBB00008A88770047103A902A800F0CFFB002811
:10DBC0003BD1FF216846C1718171C1708170417084
:10DBD0000170447104716946082048850B46288805
:10DBE0000AAA098901F02AFB002826D108A8007B8F
:10DBF000800600E021E022D5298868468181164907
:10DC0000A53101820684867308A88770C4700471E8
:10DC100007214171847103A902A800F09FFB00282D
:10DC20000BD169460E700C854E850B4628880AAAD2
:10DC3000098901F003FB002801D0472032E708A83A
:10DC4000007BA87000202DE7626C75656E726721FD
:10DC500078030020DE060000012A000003480021AE
:10DC60000068AE30C17081707047000078030020FA
:10DC700038B50246174801240068AE30022A1FD08A
:10DC8000052A03D0072A07D00B2A20D10846097994
:10DC90004088FFF7AFFE1AE000790024020600D5A5
:10DCA0000124820703D1C20601D480060FD508469D
:10DCB00000216A461170694607F0A2F9044606E0A1
:10DCC0008178490703D50179FB2211400171204673
:10DCD00038BD000078030020704700000FB410B575
:10DCE000079C01282DD1684680891749884210D1A8
:10DCF00003A80FC800F0AAF900281DD105F090FA7A
:10DD0000FA281ED001281CD92078F3210840207061
:10DD100017E00D49491C884208D0C91E884205D029
:10DD2000491C884202D0C91C88420AD103AC0FCCDE
:10DD300000F08CF9002800D0632010BC08BC04B0AF
:10DD400018470020F9E70000022A0000FFB5074647
:10DD500071480D4604688FB0AE34A1781E46C806DF
:10DD600002D5E078C0067DD4880607D5E078800625
:10DD7000800F03D0022F01D0002E73D08806800FB1
:10DD800006D0022F08D0032F06D0002E6AD003E061
:10DD9000012F01D0002FF8D1880603D4002D01D027
:10DDA000012D5FD1002E06D130200140384602F00F
:10DDB000BDFA002856D1119900200870A07880067D
:10DDC000800F7DD00CA908A802F062FD07900DA974
:10DDD0000AA802F0D7FD06900798002802D00698FE
:10DDE000002801D1012E58D1022F04A807D001F03C
:10DDF00063FC002E3CD00798002803D012E005F009
:10DE0000ABFDF6E7444F45483B68062208A91818C1
:10DE100003F03DFE0028386808D04030417E4908B4
:10DE2000490041760698002805D014E04030417E34
:10DE300001221143F5E7384F38483B6806220AA90A
:10DE4000181803F024FE002838680CD04030417EBA
:10DE5000FD22114041760798002809D00698002835
:10DE600006D01AE043E04030417E02221143F1E740
:10DE7000294806220368294804A9181803F00BFE54
:10DE8000052069460873002E02D1084606F0DAFC28
:10DE900023480290684606F087FCA078800611D5DA
:10DEA0001198032101702079C10603D5002D01D0FE
:10DEB000022D1CD1800605D5012D03D0032D00E0D5
:10DEC00018E014D1A078C00623D51199012008705C
:10DED0002079C10601D5002D09D1810601D5012D7A
:10DEE00005D1000615D5002D13D0012D11D04220EB
:10DEF00013B0F0BD012F0CD1002E0AD10648062226
:10DF000003680648611D181803F0C5FD119901202A
:10DF100008700020ECE7000078030020DE06000017
:10DF2000A0BB0D003EB509F041FB044609F0CCFB57
:10DF3000082C01D1082813D00A480B490068062292
:10DF40004118684603F0A7FD68464079400601D5B0
:10DF5000022000E00320012302AA0021FFF7F6FEC1
:10DF60003EBD000078030020DE0600001FB50E480D
:10DF70000468AE34E078010612D5A178C9070CD048
:10DF8000800708D5042069460873684606F05AFCE5
:10DF9000022007F093FA0020E0704006400EE07087
:10DFA00000F02EF81FBD000078030020F0B58DB002
:10DFB0000C4616A9E0C90021089109910A910B911C
:10DFC0001599049105A9E0C112A962C900930191B4
:10DFD00013460146039602952246012007F0D4F825
:10DFE0000DB0F0BD0A07920F01D0422070478A079A
:10DFF000FBD002788907890F0A430270002070471E
:10E00000704742207047000010B50446022000F01F
:10E0100051F80D4800210268052040021018A03276
:10E020004369107B05E04A019A5A002A04D0491C32
:10E03000C9B28842F7D810BD48011C52C018026905
:10E0400004210A43026110BD780300201FB582B08D
:10E05000002401F091FB694601F018FB009A684624
:10E06000116A0089203209E023235B5C012B04D173
:10E070000B89834201D1641CE4B209689142F3D157
:10E08000204606B010BD000010B50446014604202D
:10E0900001F0DCFF002809D00548E3210068C90031
:10E0A000401821463C3007F021FD432010BD000000
:10E0B0007803002004490A683B21490151180A7875
:10E0C00002430A70704700007803002000B5113841
:10E0D000C0B2FFF757FC002804D0012201695205A5
:10E0E0001143016100BD7047F0B503790122920729
:10E0F0000168002B02D0062B03D007E053688B4346
:10E1000003E00023037153680B43536000210F2485
:10E110000368CB40DB07DB0F36D0082909D2D56A6C
:10E120008B0026469E40B54306799E403543D56216
:10E130002AE00B46083B082B0AD28B002646203BE0
:10E14000156B9E40B54306799E40354315631BE031
:10E150000B46103B082B0AD28B002646403B556BE2
:10E160009E40B54306799E40354355630CE0172920
:10E170000AD9114F8B002646603B3D8B9E40B5432C
:10E1800006799E4035433D83491CC9B21A29BFD345
:10E1900041790129D168036809D09943D160817917
:10E1A00001299168006804D081439160F0BD194352
:10E1B000F4E70143F9E7000020000040012189074E
:10E1C0000968014201D0012070470020704700001B
:10E1D000012902D003490860704701218907C863FB
:10E1E000704700004000004003480068AE3080786F
:10E1F0008006800F7047000078030020F3B597B0C9
:10E200000D8848880590081D1DC80DAE1DC68C8A56
:10E21000CE8A087E1390C86920310190087800905A
:10E220004878049088780390C87802900F7900F0BD
:10E2300047FD002817D10120400284425FD8B44234
:10E240005DD8002F01D1B44259D114A9284601F05C
:10E250001DFA002806D115AA1499059801F006FAAE
:10E26000002802D0602019B0F0BD149D11A92846E5
:10E27000183002F0EFFF10A88088002810D0284640
:10E2800012A9203002F0E6FF10A8838800892A8DA9
:10E290001818696A10188A8B904203D16120E2E74E
:10E2A0004820E0E715982C4B02899A4227D1232277
:10E2B000125C012A23D10068006816901398012887
:10E2C0001FD16846808E29221202801A030006F0B0
:10E2D000EEFE0604180404070A18022C0FD110E001
:10E2E000072C0CD10DE0042C09D3E00707D1012F36
:10E2F00007D1A64203D3042E01D3F00701D0422058
:10E30000B1E702980B90039B049A0A930992009834
:10E31000019A0C9708900696059407920DA81DC8BF
:10E32000019002A81CC013980B4600902A4616992B
:10E33000179800F0AFF9002895D168460649808EFD
:10E34000FF31884205D01798018800200A4601F065
:10E3500085FC002087E7000003280000F3B5A5B086
:10E3600008881A9088780C4611901022091D13A86D
:10E37000FBF7F5FCA08A1090A17D68460172E07D54
:10E380000F90207E2090677EA07E1F900020064682
:10E390000146129020A801810F20BB4C2390E3215D
:10E3A0002068C9004018199000F08AFC00280BD1A1
:10E3B00001211098490288425FD821A91A9801F0DA
:10E3C00065F9002802D0602027B0F0BD2198179091
:10E3D00001F0D2F91A9988420CD102A8019016983E
:10E3E000009013AD0ECD1198FFF778FC002801D0F6
:10E3F0006320E9E76846017A8806800F05D001208E
:10E4000012902068A030007B4600C80703D0129805
:10E41000401CB61C1290080603D51298401CB61C6E
:10E42000129017980DA918301D9002F013FF68463E
:10E43000129C808EA41CA04237D317980EA92030BE
:10E44000019002F007FF6846018F00290DD0179850
:10E45000179A6B46406A9B8E128D5918808B511803
:10E46000081AA04201D26120AEE71798846911987A
:10E470002568012803D0022803D04220A4E7052004
:10E4800000E01320E0832A4639460F98FEF7C1F9D1
:10E49000422899D0199FE28B4037788B398B411AEB
:10E4A000109810188019814201DA48208CE70EA9D3
:10E4B000019802F0CFFE6846008F0028179802D01E
:10E4C000406A808B00E0008D2599401C08802598CB
:10E4D00001210088A083259802220088401CA8837F
:10E4E0006A482081204620301790C1700021817039
:10E4F00081711998398B406D40186946A061097A7D
:10E500000170A06929461C31401C03F0C4FA11981F
:10E510000128A0697ED0102213A9C01C03F0BBFA09
:10E520002846102213A9083003F0B5FA388B1330AF
:10E5300038832E4620361198F0701098E8831F9883
:10E54000B07010982084109828841998398B406DE9
:10E550004018A8610021109A03F0A1FA398B109895
:10E5600008183883179901200871179900204871FD
:10E5700030716846007A810701D5012131710107A8
:10E580000227002902DA317939433171410703D575
:10E590003179042211433171400603D530790821C5
:10E5A000084330710F9870712098B07121461D9802
:10E5B00002F079FE2146019802F056FE29461D9888
:10E5C00002F071FE2946019802F04EFE12980028D2
:10E5D00041D068461A998181A18BC1810784478403
:10E5E000012408A8047122A80A9008A8847323991A
:10E5F00041730F993820014008A801730721C173A6
:10E60000002505746846007AC00708D0204869468E
:10E61000088200E02AE003A924A8FFF7EFFD68467E
:10E62000007A8006800F07D019486946401E08828C
:10E6300003A924A8FFF7E2FD6846007A00060AD580
:10E64000292109026846018208A84473057303A9B9
:10E6500024A8FFF7D3FD259801881298401C0818BC
:10E6600082B2002001F0FAFA0020ADE6022213A9DE
:10E67000C01C03F010FA2846022213A9083003F048
:10E680000AFA388B401D53E7780300200328000066
:10E6900003290000FFB55248E322006887B0D2008A
:10E6A0008218069210AA109B0126169F9288012BB1
:10E6B00004D14C4B9A4201D1A030067B069D3446D2
:10E6C0004035688B2B8B7C43C31A0998203003900C
:10E6D000A34222DA48200BB0F0BD2320405C012881
:10E6E00019D108896C46208098420CD03D4C641E9C
:10E6F000A04208D0641CA04205D0641CA04202D0F5
:10E70000A41CA04207D1374CFF3CA04201D090424C
:10E7100001D16220DFE7096801E029231B02039889
:10E720008142DAD109981B99846918982246FEF72C
:10E7300070F84228CFD01C98012804D11598874240
:10E7400001D24220C7E71598E083204620301C996B
:10E750000590817027840A98808B401CA0831098B4
:10E76000012814D02046102211A9083003F093F993
:10E7700005991098C8700698298B406D4018A061C3
:10E78000298B384670430818288300250FE011A80C
:10E790000FC808340FC4183CEAE72846A16978433B
:10E7A0000818159A179903F076F96D1CEDB2B54269
:10E7B000F3D3059918984871059919980871059926
:10E7C0001A98887109982146183002F06CFD21468C
:10E7D000039802F049FD0798A18B018000207AE799
:10E7E0007803002002290000FFB58FB014460E7890
:10E7F000102205A8891CFBF7B2FA5048E3210068F3
:10E80000C900451800F05CFA00281ED1002C57D032
:10E81000012E09D16846808A4949884204D1284698
:10E82000A968083081424BD12846103029690390ED
:10E83000814209D00AA9284602F00CFD6846018DE4
:10E84000601E0D90814202D2482013B0F0BD2846D0
:10E8500008300CA9049002F0FDFC6846008E0028E8
:10E8600014D0EF680AA93846183002F0F3FC384695
:10E8700020300CA902F0EEFC6846398D008D091895
:10E880006846008E401C081887B200E0012701206E
:10E890000004C01BA04201D26120D6E72C69286881
:10E8A00001901298012802D0022803D008E0052028
:10E8B000C00200E023486085012E03D0022E05D05F
:10E8C0004220C2E720460830022202E020460830FB
:10E8D000102205A903F0DFF8204631462030064615
:10E8E00001730F98214607802785039802F0DBFC0F
:10E8F0002146049802F0B8FC27461837E7616662A3
:10E90000A76126620D9884B20BE02846019902F0B7
:10E91000CAFC3846019902F0A7FC2868641EA4B21C
:10E920000190002CF1D10F9801880D98081882B23F
:10E93000002001F093F9002087E700007803002011
:10E94000011800000128000002460948E321006880
:10E95000C90041188868083103E0038D934202D250
:10E9600000688842F9D1884200D100207047000039
:10E9700078030020034610B50F48E3210068C90062
:10E9800041188868083103E0148D9C4203D8104672
:10E9900002688A42F8D18A420CD1018D994209D28B
:10E9A0000146026A20318A4203D0416A898B99422A
:10E9B00000D2002010BD000078030020024610B5F0
:10E9C0000B48120501680520400208184369002021
:10E9D000120DA031097B07E044011C5B2405240DC6
:10E9E000944203D0401CC0B28142F5D810BD000053
:10E9F00078030020F7B505461746019807F046F85A
:10EA00002E050446360D0CE0A0882568B04207D1DB
:10EA10002146019807F087F83946204603F050F95F
:10EA20002C46002CF0D1FEBDF0B58BB0002064491F
:10EA30000290E3200A68C000141872B610464030F5
:10EA4000C57902231D43C57162B625464035287A33
:10EA5000C0077DD0052040021018002647694AE013
:10EA600071017A5A002A44D0C919069109694A02EB
:10EA70001FD48A0227D5022104910699012309880F
:10EA80000905090D03911B2189014118C97E8907D8
:10EA90000FD51121C901083040182322806F0221AF
:10EAA00006F066FC010004D0039A8A80049806F000
:10EAB0004BFC069800880090069800F083F80098B8
:10EAC00004F072FD15E0480713D50698008800058C
:10EAD000000D04F045FD002805D1069800880005CA
:10EAE000000DFDF7A3FE06990420096981430698ED
:10EAF0000161761CF6B23248AC210068095CB14273
:10EB0000AED803F0D5FB20462430064607F004F8C3
:10EB1000012802D0012003F0CDFA2046183006F07B
:10EB2000FBFF012802D0002003F0C4FA3C34204649
:10EB300006F0F2FF01280FD002A9204607F015F8D1
:10EB40000420029901F082FA0028F0D0204600E06B
:10EB500034E0029906F0B7FF287A00062ED5304639
:10EB600006F0DAFF012829D1002003F029F8A98B4B
:10EB700023314909491CC9B2FBF7BCF900281DD053
:10EB80000F4D044628681121C9010830401842265B
:10EB900001233822806F314606F0EAFB01000DD0D8
:10EBA00000228A80CC80304606F0CEFB3B212A68CA
:10EBB000490151180A78802082430A700BB0F0BDD9
:10EBC00078030020F0B504463C48E3210068C90002
:10EBD0004518218A85B089041AD5022104911B2188
:10EBE00089014118497F412627880123C9070FD091
:10EBF0001121C901083040183122806F022106F02E
:10EC0000B7FB010004D08F808E71049806F09CFB46
:10EC10002946208801221831FFF7ECFE294620887A
:10EC200001223031FFF7E6FE2946208801222431F7
:10EC3000FFF7E0FE2946208800223C31FFF7DAFE8C
:10EC400020880005000DFFF7B9FE85002946113127
:10EC50006846017305F0F6FD2946123168460173D6
:10EC600005F0F0FD294613316846017305F0EAFD11
:10EC700068461435057305F0E5FD208800F028FA94
:10EC8000208801050D48090D026805204002101872
:10EC9000028F914201D100210187E069002802D052
:10ECA000012103F00DF8202200212046A56802F082
:10ECB000F6FE1720A560608005B0F0BD7803002047
:10ECC00010B50B48E3210068C90044184034207A8D
:10ECD000C00709D0002002F073FF217A890701D50F
:10ECE000002803D0002010BD472010BD642010BDB7
:10ECF00078030020F0B55FA099B000685E491590D8
:10ED0000E3220868D2008418052252028218526950
:10ED10002546403514922A7AD20702D0622019B0D3
:10ED2000F0BDAA8B01235B029A4201D9AB8303E0B9
:10ED3000172A01D21722AA83149AA0301392067BB5
:10ED40000DE0761EF6B2139871010F18B8680F9097
:10ED500038462022002102F0A2FE0F98B860002E53
:10ED6000EFD120460830E0606460A0602460083085
:10ED7000139060612061FF220021083006F09BFEA5
:10ED80002046FF220021243006F095FE2046AA7F6F
:10ED90000021303006F08FFE2046FF2200213C305B
:10EDA00006F089FE00222A7210461721324B05E038
:10EDB000149E4701BE19401C7180C0B21E68A03667
:10EDC000367B8642F4D8002028832F8C688C00265E
:10EDD000149008E02820E16C70430918204602F0E6
:10EDE00043FA761CB6B2BE42F4D3002608E03020C7
:10EDF000216D70430918139802F036FA761CB6B2EA
:10EE000014988642F3D30120FFF754F90124684691
:10EE100004701A4941802346042269460CA8FFF772
:10EE2000E3FC002822D16846018E818214490183C7
:10EE3000042606858475202108A881720024C472E6
:10EE4000047307214173847305A90DA8FFF786FA9F
:10EE500000280BD1684604874687818E15AB0EAA21
:10EE6000008E00F0EBF9002800D158E7002028724E
:10EE7000472054E70000FFFF78030020011800003E
:10EE8000052A0000F8B504467D480E460068E321D7
:10EE9000C90047184820C05DC0077BD0B088FEF786
:10EEA0005FFC0546012C02D0002C75D0E6E0002D59
:10EEB0000CD0286941074AD4B268F188147B002934
:10EEC000F4D062060CD56888884201D20121B2E0F4
:10EED000D22C01D0522CF9D13846314618303FE0BF
:10EEE000A106890E1E293ED81E2C21D101071FD54F
:10EEF0000821884328612988012005F069F901214A
:10EF0000304602F0DDFE5E4811210068C90108307C
:10EF1000401842242D8801233922806F214606F0B3
:10EF200027FA010003D08D80204606F00DFAA5E0F7
:10EF3000E1070AD01D2C10D01B2C0ED0410529D47E
:10EF4000012189020843EE6192E0C00601D5452007
:10EF5000F8BD2988002005F029F9384631462430CB
:10EF600006F0C4FD8AE029882022002002F04CFE31
:10EF700005000FD00121304602F0A2FE2B460022F0
:10EF800021460620FCF7B2FD2846FFF77DF875E024
:10EF900000E001E04120F8BDB068047B1D2C3AD0B0
:10EFA0001B2C41D00021304602F08AFE032C46D0B3
:10EFB000052C44D0072C42D0092C40D00B2C3ED03D
:10EFC0000D2C3CD00F2C3AD0112C38D0132C36D02D
:10EFD000172C34D0192C32D0012C30D0022C35D043
:10EFE000042C33D0062C31D0082C2FD00A2C2DD055
:10EFF0000C2C2BD00E2C29D0102C27D0122C25D045
:10F00000162C23D0182C21D0522C1FD0D22C1DD03E
:10F010001E2C2FD032E0002D03D02988012005F0CE
:10F02000C5F83146022001E03146012005F04CF8D8
:10F03000002823D00021304602F042FE1EE029695C
:10F040001020814329612988002015E0286940218A
:10F0500088432861010511D5FF210131084328614A
:10F060002988022005F0A2F801212869C9028843F5
:10F07000286103E02988032005F0AAF80020F8BDE4
:10F080007803002010B5114AE3231268DB00D21880
:10F090004032127AD20706D002280AD0052804D0BE
:10F0A0000B2810D101E0412010BD4888FEF7ACFFCD
:10F0B00009E04888FEF754FB002804D001220169CA
:10F0C000920511430161002010BD0000780300206B
:10F0D000F1B5FFB085B04720019000206946088057
:10F0E0005348E3210068C90047188498FEF738FBAD
:10F0F0000290002874D0B96808374FE0684600884D
:10F100000D4604AC20186B46022228310CF041FB5E
:10F1100068460088294620186B4601222C310CF0E5
:10F1200038FB2E462036307B69460128098804A822
:10F1300009D040186B461022294608310CF029FBF3
:10F1400001902C6A27E040186B460222F4E76946DA
:10F15000098804A8401821466B4602221C310CF095
:10F1600018FB6946098804A8401821466B4601220D
:10F1700023310CF00EFB2320005D6946012809882D
:10F1800004A830D0401821466B46102208310CF0FC
:10F1900000FB01902468B442D9D12968B942ADD1AD
:10F1A000019800281CD16846008881070AD0214AAE
:10F1B000011D11406A4611800A1A04A908180B2182
:10F1C00002F06DFC0298008804F0CAF9002807D10B
:10F1D000849869460005000D04AA098804F042F8E5
:10F1E0007FB006B0F0BD401821466B4602220831C0
:10F1F0000CF0CFFA019020890F498842CAD12046ED
:10F200000299FEF78FF94000A16903906A46091838
:10F21000128804A880186B4602220CF0BAFA0190FA
:10F22000A169039802220818002102F038FCB1E716
:10F2300078030020FCFF000002290000F0B507461B
:10F2400017480E4600683B2149014018007885B0F8
:10F250001D461446C00706D003A9384600F016FA2A
:10F2600000280AD102E0472005B0F0BD04AA3046CC
:10F27000039900F0FBF9002801D06020F4E704991D
:10F28000228860880968002A00D0088C32466E46C1
:10F2900031C603233946002000F004F8E4E70000FB
:10F2A00078030020FFB5002099B0239A0B901290AC
:10F2B00005461490064615901C46DB480B46006830
:10F2C000E321C900411803910021229F089109916F
:10F2D0005188069111880A913B2149014018007814
