:020000041004E6
:1000000000600020B5AB0410AD8D0410796A0410B7
:10001000AA5555AA45554C420000000000000000BA
:10002000000000000000000000000000BDC6041039
:10003000000000000000000063A4041069C904105F
:10004000E3490410F58D04100000000000000000DA
:1000500059CF0410BBC60410A52C0410CDD0041039
:100060000000000000000000000000000000000090
:10007000000000001D1804107D6A04107B6A041043
:1000800000000000A7880410A9880410AB880410A1
:10009000AD880410D5AB0410298F04105D32041014
:1000A0000000000000000000000000000000000050
:1000B0000000000000000000000000000000000040
:1000C00000F002F800F08FF80CA030C808382418AF
:1000D0002D18A246671EAB4654465D46AC4201D180
:1000E00000F081F87E460F3E0FCCB6460126334223
:1000F00000D0FB1AA246AB463343184740710100BB
:10010000C0710100103A02D378C878C1FAD85207FA
:1001100001D330C830C101D504680C6070470000BD
:100120000023002400250026103A01D378C1FBD813
:10013000520700D330C100D50B607047F0B543467D
:100140004C4655465E466746F8B40E4C6B462360F7
:100150000D4C20680D4C20600D4C20680D4C20602B
:100160000D4C20680D4C2060BFF34F8F30BF054C05
:100170002468A546F8BC9846A146AA46B346BC46A4
:10018000F0BD00000800002004ED00E0E0020020C7
:1001900024ED00E0E402002000E200E0E80200209C
:1001A00010B5662902D116F019FD10BD642902D1DF
:1001B00000F0A4F810BD782902D100F0D5F810BDE8
:1001C000732902D100F009FF10BD002010BD1FB53A
:1001D00000F030FF04000020002116F0E9FCE06090
:1001E0001FBD10B510BD04488546FFF7F0FF13F0A2
:1001F00029FB01F089FA00000060002003B4FFF73A
:10020000F0FF03BC01F0D8FA70B505460C4616465F
:1002100002E00FCC0FC5103E102EFAD2082E02D3EA
:1002200003CC03C5083E042E07D301CC01C5361FFD
:1002300003E021782970641C6D1C761EF9D270BD14
:100240000FB4054910B503AA029800F0CBFE10BC0C
:1002500008BC04B018470000D802002070B504465E
:1002600085690068C10601D5302600E02026C00758
:1002700007D070BD62683046A1689047206A401C74
:1002800020626D1EF6D570BD70B504468569007894
:10029000C00707D170BD6268A16820209047206A1E
:1002A000401C20626D1EF6D570BD70B50C4605462B
:1002B000012A05D02878800600D5EA69002302E0EB
:1002C000012305E05B1C934202D2E05C0028F9D1D7
:1002D000A869E618C01AA861286AC01828622846CA
:1002E000FFF7BCFF04E06A682078A968641C9047A7
:1002F000B442F8D32846FFF7C7FF70BDF7B5002515
:1003000075291068009914A611D0C046C04600286F
:1003100002DA404211A608E0009909688A0701D56F
:100320000FA602E0490704D50EA6012501E0C0464C
:10033000C046009F0024243704E000F067FE3031FF
:100340003955641C0028F8D12B46324621460098C6
:1003500000F0CDFBFEBD0000000000002D000000FD
:100360002B0000002000000070B504460D46214619
:100370001068C046C0462188090502D50F4A7A4454
:1003800002E00E4A7A440E3223460021243305E06F
:1003900006070009360F965D5E54491C0028F7D108
:1003A00020780023000705D5702D03D0002901D047
:1003B00002231132204600F09AFB70BDBE6B010093
:1003C000F3B50446002081B020622046E1688847EA
:1003D00000287DD0252802D06268A16883E0454FBF
:1003E00000257F442046E16888472028064608DB30
:1003F000312E06D2B81920380078002801D00543E4
:10040000F0E7A80701D5042085430020E0610746F6
:10041000A0612A2E0AD030460DF086F9002827D098
:10042000B8000019303E0090866119E00298BA00C9
:10043000121902C8916102902046E1688847012F95
:10044000064617D1E06900281FDA202085431CE00A
:1004500000980A21806948430099801930388861E2
:100460002046E168884706460DF05EF90028EFD186
:10047000012F0AD02E2E08D12046E1688847064673
:10048000202005437F1C022FC3DBA069002803DA6C
:100490004042A06101200543E80701D010208543B8
:1004A000002E24D030464138192803D80120C0023C
:1004B00005432036204625603146029A1546FFF74F
:1004C0006FFE00280CD0012807D0ED1DE80800E0E1
:1004D0000DE0C0000830029077E72D1D029574E70B
:1004E00062683046A1689047206A401C6CE7206A29
:1004F000FEBD0000826B0100034610B50B439B0755
:100500000FD1042A0DD308C810C9121FA342F8D076
:1005100018BA21BA884201D9012010BD0020C04379
:1005200010BD002A03D0D30703D0521C07E00020DF
:1005300010BD03780C78401C491C1B1B07D10378A5
:100540000C78401C491C1B1B01D1921EF1D118468E
:1005500010BD10B5044600F002F8204610BDF8B5F5
:10056000042A2CD3830712D00B78491C0370401C3B
:10057000521E83070BD00B78491C0370401C521E7F
:10058000830704D00B78491C0370401C521E8B0754
:100590009B0F05D0C91ADF002023DE1B08C90AE023
:1005A000FFF732FEF8BD1D4608C9FD401C46B440A9
:1005B0002C4310C0121F042AF5D2F308C91A521E88
:1005C000F0D40B78491C0370401C521EEAD40B78FF
:1005D000491C0370401C012AE4D409780170F8BD5D
:1005E000431A70B593421BD28918801804E0491E43
:1005F000401E0B78521E03709307F8D106E01039A5
:10060000103878C9103978C01038103A102AF6D24C
:1006100003E0091F001F0B680360121FF9D570BDAE
:10062000FFF7F2FD70BDF8B5064614460843800793
:1006300007D0751AA54219D20819102D13D23119F5
:1006400007E03046FFF7CCFFF8BD401E491E027898
:100650000A70641EF9D2F8BD471B2A463946FFF7D7
:100660007EFF641B3846A542F6D3011B2246304666
:10067000FFF775FFF8BD134610B50446CAB2194618
:100680001002821810048218204600F00FF820464D
:1006900010BD01E004C0091F0429FBD28B0701D55E
:1006A0000280801CC90700D00270704700290BD05F
:1006B000C30702D00270401C491E022904D38307DD
:1006C00002D50280801C891EE3E70022EEE70022AB
:1006D000DFE70378C2781946437812061B021943F4
:1006E0008378C0781B04194311430902090A0006E4
:1006F00008437047002203098B4273D3030A8B42DD
:1007000058D3030B8B423CD3030C8B4221D312E012
:1007100003460B437FD4002243088B4274D3030962
:100720008B425FD3030A8B4244D3030B8B4228D303
:10073000030C8B420DD3FF22090212BA030C8B4229
:1007400002D31212090265D0030B8B4219D300E0C9
:10075000090AC30B8B4201D3CB03C01A5241830B4E
:100760008B4201D38B03C01A5241430B8B4201D3FE
:100770004B03C01A5241030B8B4201D30B03C01A27
:100780005241C30A8B4201D3CB02C01A5241830AA1
:100790008B4201D38B02C01A5241430A8B4201D3D0
:1007A0004B02C01A5241030A8B4201D30B02C01AFA
:1007B0005241CDD2C3098B4201D3CB01C01A524161
:1007C00083098B4201D38B01C01A524143098B42EA
:1007D00001D34B01C01A524103098B4201D30B01D3
:1007E000C01A5241C3088B4201D3CB00C01A5241F8
:1007F00083088B4201D38B00C01A524143088B42BD
:1008000001D34B00C01A5241411A00D20146524155
:10081000104670475DE0CA0F00D04942031000D374
:100820004042534000229C4603098B422DD3030AC9
:100830008B4212D3FC22890112BA030A8B420CD3D9
:10084000890192118B4208D3890192118B4204D302
:1008500089013AD0921100E08909C3098B4201D382
:10086000CB01C01A524183098B4201D38B01C01ABC
:10087000524143098B4201D34B01C01A5241030933
:100880008B4201D30B01C01A5241C3088B4201D3E2
:10089000CB00C01A524183088B4201D38B00C01A8F
:1008A0005241D9D243088B4201D34B00C01A524166
:1008B000411A00D20146634652415B10104601D3F3
:1008C0004042002B00D54942704763465B1000D37D
:1008D000404201B50020C046C04602BD0121C90505
:1008E0000123411842001B06D3185B0E0AD0C11029
:1008F0000722D206891840075242D14201D5520040
:1009000089187047090208D50146002A03D0C10F93
:10091000C9070020704710467047420202D00020ED
:1009200002497047072109050143F4E70000F87FF9
:10093000F0B5FF252D04C609C209FF2704462E4045
:100940000137CB093E4348402A402B400746002A46
:100950006BD0002B69D0AA4267D0AB4265D000288B
:1009600000DA32460125ED0529432C430902200215
:10097000090AD21A4B0C7F24E31A434C000A7C4428
:10098000E35C7D242404121914145B00A21888422D
:1009900001D3521C00E0400049420C465C43241144
:1009A0005C43DB016415E318040A5C43C502200DB7
:1009B0000C4644436419250A5D432303EC0C0D46A1
:1009C000654300030019EB184C42A34201D35B18A6
:1009D000401CD4052018002B07D05B00C91804D395
:1009E000401C002901D1400840003F2189048A426F
:1009F00009D3002A08DC1106090F04D00321490796
:100A00004018C00FC007F0BD01224100120689182E
:100A10007F2252069142F6D205214907C84201D5EC
:100A20009010F0BDFF20C005F0BD002F00DA324667
:100A30001648AA4207D2AB4205D21902090E17D0B6
:100A4000F80FC007F0BDFF2563002D06AB42F9D8B3
:100A50004900A942F6D8AB4201D1A942F2D0A9423D
:100A600001D1002101E061004908D0050843F0BD33
:100A70001102090EFBD0FF200243D005F0BD0A464B
:100A80000146104654E70000F76501000000C07FF2
:100A90001F22030C02D10F2200041CD0030E01D12F
:100AA0000002083A030F01D10001121F830F01D188
:100AB0008000921E002801DB4000521ED205511812
:100AC000021251181922904004D3491C002801D168
:100AD0004908490008467047C10FC90700D0404285
:100AE000012292071143D3E701218907D0E7FFB51F
:100AF00004460D4681B0243000902168880604D554
:100B00001022E0699143216000E00120A84201DD4C
:100B1000471B00E000270498A1697A191018081AE9
:100B2000A0612078C00602D42046FFF797FB00267C
:100B300008E003986268A168805D9047206A401CC5
:100B4000761C206204988642F3DB2078C0060AD522
:100B50002046FFF783FB06E06268A16830209047DB
:100B6000206A401C206238467F1E0028F4DC07E023
:100B700000986268A168405D9047206A401C20622E
:100B800028466D1E0028F3DC2046FFF77DFB207809
:100B9000000602D5022005B0F0BD0120FBE70000F1
:100BA0007047FFB50C461E468FB003CA08900991E6
:100BB0004F007D0D00D16D1E002108460020C0466B
:100BC0000321099A89050840002A03DA8200801867
:100BD00040080840800D01280A9002DD0020C04333
:100BE0000A90089807430DD0EF48F0492818484369
:100BF0000714189800281DD07542291E1DDD0A987B
:100C000042421BE01898012802D00020302104E065
:100C10000020F24305E02154401CB042FBDB30468B
:100C20000022189B002121540F998B600A604860B4
:100C300013B0F0BDBD1B6D1CDFE70A9A002900DA76
:100C400069420BA800F094FA0BAB07CB03AB07C3C8
:100C50000899099800F0F0FA6B4607C30146D4489A
:100C60000918002D00910ADDD14903980A9A4942DA
:100C7000401803A90390684600F011FD07E00399AE
:100C80000A9A081803A90390684600F0D0FC6B4646
:100C900007C30004000C03D00020C043410800E05B
:100CA0001046189A002A03D00022009215461EE032
:100CB000751E05D400F0C2F9303262556D1EF9D5AB
:100CC00001220843079602D000227F1C04E020780E
:100CD000302801D100227F1E002A069789D01EE00D
:100CE000112D07DA00F0AAF9303262556D1C024668
:100CF0000A43F5D1084303D00098002819D00EE02C
:100D00000021681E05E0235C625C63542254401E8F
:100D1000491C8142F7DBA81B401E07950690079AE5
:100D200018990020A0540F98079B069A81600CC068
:100D30007EE71126002018905BE7D21DF0B50D4626
:100D40000446D10893B0C90003C90C900D910CF072
:100D5000B9FC02460D98C00F01D02D2007E0206895
:100D6000810701D52B2002E04007C00F4001032A74
:100D70000F9001D0072A05DB03462946204600F0E4
:100D8000B3F90EE12078800601D5E76900E0062777
:100D90002846652D04D0662814D0672D69D12DE032
:100DA0000020112F009001DB112300E07B1C0CAA16
:100DB00003A910A8FFF7F5FE1199002610987D1CD5
:100DC0000E9142E001203B460CAAC0070B90012087
:100DD000009003A910A8FFF7E4FE119D1298109946
:100DE000002600280E9501D1781C0D18781B02D41E
:100DF00046427D1C761EE81B00903AE0012F00DA87
:100E000001270020112F009001DD112300E03B4657
:100E10000CAA03A910A8FFF7C4FE11993D4610982B
:100E200000260E91217809070BD40E99A94200DA09
:100E30000D4603A9012D04DD4A19203AD27F302A3C
:100E400006D0B84201DA011D04DA012100910FE059
:100E50006D1EEFE7002802DC86192D1A03E0411C05
:100E6000A94200DD0D46801B401C00900120C007F8
:100E70000B902078000705D40098A84202DB0020E0
:100E8000C043009069460020C8720B98012102AF50
:100E90000337C907884225D0022010902B201190DB
:100EA0000B9800280BDA40420B902D20119006E0A1
:100EB0000B9800F0ABF830317F1E0B903970109911
:100EC000481E00291090F3DC0B980028F0D11198EF
:100ED0007F1E38702088000501D5452000E0652080
:100EE0007F1E387001A8C01BC01D0B900F980028F2
:100EF00000D0012041190098C01709180B98081854
:100F0000A169081A401EA0612078C00602D42046BC
:100F1000FFF7A4F90F98002805D06268A1689047F0
:100F2000206A401C20622078C00625D52046FFF7A5
:100F300095F921E0002E07DB0E98B04204DD03A8EE
:100F40006268805DA16802E06268A1683020904715
:100F5000206A761C401C20620098401E00280090E9
:100F60000AD100F067F8C06862680168405CA16857
:100F70009047206A401C206228466D1E0028D9DC5C
:100F800007E062683878A1687F1C9047206A401C9F
:100F900020620B99481E00290B90F2DC2046FFF7D7
:100FA00073F9032044E6000001FCFFFF104D000030
:100FB000E1DFFFFF10B54369002B02D0C046C046F9
:100FC00001E0FFF772F9012010BD127801462431CB
:100FD0000A7000224A700122ECE711680022D24315
:100FE000E8E70000084B70B50D467B4400F069F857
:100FF0000446284600F084FB002802D00020C043AD
:1010000070BD204670BD0000C1F20000014680089E
:10101000081A02091018020A1018020C1018C00849
:10102000820012185200891A01E0401C0A390A296C
:10103000FBD27047004870472C0400200B4670B567
:10104000024689078008084319469D08141AA941D9
:1010500025090807054308092C194841250A0106F6
:101060000D43010A2C194141200C0D0428430D0C9D
:1010700000194D41002140194D41C008690708433E
:10108000E908840F8D002543840024184D4124195C
:101090006D41121BAB4107E00925ED432C1152199C
:1010A00063410024401C61411C460A250026551B53
:1010B000B441F1D270BD000001694A1C0261087898
:1010C000704700B58FB00291002105910549019349
:1010D00079440391114604906846FFF771F90FB007
:1010E00000BD0000E5FFFFFFF8B51F4604460123E1
:1010F0000068DB02032601461840072A05DB0028AA
:1011000001D017A506E017A504E0002801D016A518
:1011100000E016A5102081432160A069C01E002FA9
:10112000A06101D0401EA0612046FFF797F8002F74
:1011300009D038466268A1689047206A401C206246
:10114000C01C206206E0206AFAE762682878A1687D
:101150006D1C9047761EF8D22046FFF795F8F8BD33
:101160004E414E006E616E00494E4600696E66004B
:10117000F7B516468AB02F4878446C4603467C3350
:10118000C06F5A689B680DC42A487844763003AC17
:101190000DC80DC43720C001081837211B30FFF7D8
:1011A000B7FA05460C46803D1B3C02D5644201203F
:1011B00000E00020002709900FE0E0070BD00C2092
:1011C0001C497843794432464C394118684600F04E
:1011D0002EFA6B4607C364107F1C002CEDD1154F0F
:1011E0007F442C3F15E0E80711D02001C0190EC83C
:1011F0000691089307920068F04201D1981908906F
:10120000324606A903A800F012FA03AB07C36D101B
:10121000641C002DE7D1324669460998002803A8CE
:1012200002D000F03CFA01E000F001FA0A9B07C38B
:101230000DB0F0BD405E0100034640000A4610B507
:10124000400D0BD00121C9070F24A40200191C0373
:1012500064082143540D2143D20207E000210120FC
:10126000F2E7D40F490021435200401E0029F8DA6A
:10127000DB0FDB07184310BDFFB50D46144685B0E4
:10128000486851680CF0ECF900910190A868A168D9
:101290000CF0E6F902910390A86861680CF0E0F99F
:1012A000029A12188242029201D2012000E000202C
:1012B000019A0B18D2180028019202D08A4202D952
:1012C00003E08A4201D2012000E0002000990818C2
:1012D00000906868A1680CF0C3F9029A1218824263
:1012E000029201D2012000E00020019A0B18D218CE
:1012F0000028019202D08A4202D903E08A4201D238
:10130000012000E00020009908180090286821685A
:1013100040004900400849084018F549471814E0C2
:1013200001994000C90F08430090019802994000BC
:10133000C90F08430190029803994000C90F084360
:101340000290039840007F1E039000980028E7DA7F
:101350000898002801D0E74E00E00026B74228DABE
:10136000F71BF806C00E15D0029B2021091A039A1C
:101370008B401A430392029A019BC2408B401A434E
:101380000292019A009BC2408B4000991A4301923D
:10139000C14000917A110BD06B460320811A01D510
:1013A000002101E0890059588700401ED951F5D528
:1013B000374603980299002800D00120014308987D
:1013C0000291002808460CD0002800D00120019985
:1013D000019A490508430121D20AC902D2020192A9
:1013E00000E001210E9B0122D207012B02D0002B2D
:1013F00003D013E0002807D116E0904204D89042B1
:101400000CD1019B0B4209D0019B5918019105D1C8
:101410000099491C009101D17F1C0092002803D043
:10142000102108460020C04628682168019B009AC8
:101430004840C10F0598C90739430EC009B0F0BD37
:10144000FFB587B0099A0898089953689268406870
:10145000896896460022039317469446089A1268B4
:101460005300099A5B081268520052089A1AA24B5C
:10147000D4180A9A002A01D0352200E040220692B0
:101480000022012315460492DB07059324E0002D7A
:1014900005D175460346039E4D1BB34109D37546DE
:1014A0006646039B491B049D9841059B7519AC46F4
:1014B0005F4163463B4308D0059B049EDD077608E9
:1014C0002E435B080496059301E0521E641EC50F6F
:1014D000ED0749184041521C069B9A42D7DB002D6C
:1014E00004D17546039A6B1A824101D203200CE0A5
:1014F000039A0B466B404240134303D0014303D091
:10150000012002E0022000E000206146019100215C
:10151000009702910A99002905D0614640020143D3
:10152000744B019102E08007002302909C423ADA5A
:101530001A1BD006C00E15D0029D2021019C091A4D
:10154000C5408C402543029C8C4000D0012425439B
:10155000019C02953D46C4408D4039462C43C14014
:101560000194009154111DD06D46022100220229E0
:101570000CD10320001B07E0002804DB8600AE59D5
:10158000002E00D00122401C0328F5DB081B02D5E9
:1015900088002A5004E08000285810438A00A85090
:1015A000491EE3D51C460A98002802980CD0002852
:1015B00000D001200199019A490508430121D20A6E
:1015C000C902D202019200E00121109B0122D20740
:1015D000012B02D0002B03D013E0002807D116E026
:1015E000904204D890420CD1019B0B4209D0019B40
:1015F0005918019105D10099491C009101D1641C31
:101600000092002803D0102108460020C046089808
:101610000999019A0068096848400099C30F079822
:10162000DB0723430360826041600BB0F0BD1FB550
:10163000002300920A46014601A8FFF71DFE01ABF8
:1016400007CB04B010BDF0B585B0012300920A4667
:10165000014601A8FFF710FE01990F22029892029D
:10166000CF0F4900039E49088C1AFF07002100286C
:1016700000DB0C46450021486D08844206D30D4628
:101680000E460446102108460020C0462005E90AFF
:10169000084369053843F20A05B01143F0BD1FB590
:1016A000002300920A46014601A8FFF7C9FE01ABDC
:1016B00007CBC6E71FB5012300920A46014601A8E1
:1016C000FFF7BEFE01AB0F2407CBA402C30F4000FF
:1016D000DB074008001B002900DB00204900000553
:1016E0004908CC0A204349051843D20A1143A8E708
:1016F00002C0FFFF013C0000FF3F0000FF070000A9
:10170000C06880210840704710B50446C046C046F6
:101710002046FEF773FD10BD82078B079A4237D132
:1017200070B5920F0AD0032402780B78401C491C34
:10173000002A2BD09A4229D12042F5D11D4EF40126
:1017400004C808C9951B9543254010D19A4207D17A
:1017500004C808C9951B9543254008D19A42EFD08B
:1017600012BA1BBA01209A4200D2404270BD12BA8E
:101770001BBA2DBA18241000E0401900E140401AAD
:1017800005D12E00E64002D1083CF4D1D01A70BD3C
:1017900002780B78401C491C002A09D09A4207D1D4
:1017A00002780B78401C491C002A01D09A42EFD0E5
:1017B000D01A70470101010101491820ABBEFEE7B4
:1017C00026000200704770B58C180578401C6B0726
:1017D0005B0F01D10378401C2A1106D10278401C0E
:1017E00003E00678401C0E70491C5B1EF9D12B07E4
:1017F00005D40023521E0DD40B70491CFAE7037860
:10180000401CCB1A921C03E01D780D70491C5B1C18
:10181000521EF9D5A142D8D3002070BD7047F0B553
:101820000F46B5B01546002130AA0F23445C5E1A5E
:10183000491C94551029F9DB1022694630A800F0A4
:1018400013FB0026B400E019401CFEF742FF395D8F
:10185000000208430321891B89002CAC761C6050D0
:10186000042EEFDB214610236A46084600F0C6F935
:1018700000200326311A8900635C8200AB54635A4E
:1018800052191B0A53706358401C1B0C937061580B
:10189000090ED1700428EDDB35B0F0BD70B5BAB0DB
:1018A000054600200C460090202069460872102052
:1018B0000A9038901E46039201A800F085F922464E
:1018C000294601A800F008F86A46314601A800F050
:1018D00045F93AB070BD0000F7B592B00F4604006C
:1018E00004D0002F06D11498002803DD61204001A8
:1018F00015B0F0BD1498002804DB102804DA207914
:10190000800601D49448F3E72079410701D4810788
:1019100002D59148401CEBE7402108432071204646
:10192000143000250F90143001901EE00026B00006
:1019300004904019C0190390FEF7CBFE00BA010ACB
:1019400003980902C07807AA01430498761C00197D
:10195000406941400498042E1150E8DB636A07A8EF
:10196000019A0F9900F07CFA059D284610300590E9
:1019700014998842DADB2079800620D400291EDD04
:101980000026B00004904019C0190390FEF7A1FE94
:1019900000BA010A03980902C07807AA0143049813
:1019A000761C0019406941400498042E1150E8DB70
:1019B000636A07A8019A0F9900F052FACAE0002062
:1019C0000B900C900D900E900BA9636A0846019A3B
:1019D00000F046FA0B988721C00F48430B990C9AE8
:1019E0004900D20F11430B910C990D9A4900D20F67
:1019F00011430C910D990E9A4900D20F11430D918C
:101A00000E99149A49004140284610300E91904298
:101A10001CD10026B00002904019C0190490FEF7B6
:101A200058FE00BA010A04980902C0780BAB0143C2
:101A30000298761C00194269029818584240514099
:101A4000029807AA1150042EE4DB79E00B98872254
:101A5000C00F50430B9A0C9B5200DB0F1A430B92A2
:101A60000C9A0D9B5200DB0F1A430C920D9ACB0F70
:101A700052001A430D924A00424014980E92401BA5
:101A80000390C017820F0398002610188010029050
:101A900019E0B00010904019C0190490FEF719FE2B
:101AA00000BA010A04980902C0780BAB01431098F0
:101AB000001942691098185842405140109807AADE
:101AC00011500298761CB042E3DCB00001190BAA59
:101AD00049691258514007AA1150039B00211B1A53
:101AE00042199C4696460BE072465218BA5CCD00ED
:101AF00018235B1B9A4007AB1D586A401A50491CBB
:101B00008C45F1DC002909D0CD00182107AA4D1B16
:101B100013588021A9404B40135005E007A90A58EB
:101B20000123DB075A400A5007A90BAA05E0B000C1
:101B300003195B6915586B400B50761C042EF6DBBD
:101B4000636A07A8019A0F9900F08AF920790421A5
:101B5000084320710020CBE61D0C0000F8B51646A6
:101B60000F46040009D0002E07D025468035E86DC9
:101B7000401E102804D31348F8BD61204001F8BD71
:101B80002079400604D4002211462046FFF7A4FE27
:101B90002079022108432071002018210CE0C2178F
:101BA000920F121892089200121983075269DB0EE5
:101BB000CB1ADA403A54401CEA6D8242EFDC002036
:101BC0003260F8BD1F0C000010B5040007D00223DE
:101BD0000022A16800F00CFA010003D00CE06120A3
:101BE000400110BD102020610020024683001B1917
:101BF000401C5A610428F9DB084610BDFFB5D9081E
:101C0000490083B0891D02910368116854684B40F4
:101C10004168956861408468C0686C40A446D46897
:101C20001E0E60408B4CC5B2A65D655D3606354321
:101C300067460E023F04360E3F0EA65DE75D360492
:101C40003F023E433543AE460F0EDDB2E75D665DB3
:101C50003F063E4365462F0205043F0E2D0EE75D0D
:101C6000655D3F042D022F433E43CDB20096665D75
:101C700065462F0EE75D1D043F063E4307023F0EFB
:101C80002D0EE75D655D3F042D022F433E43019617
:101C90006546EDB2070E665DE75D0D043F063E4307
:101CA0001F023F0EE75D2D0E645D3F0424022743B3
:101CB000029C3E43641E10320294002C63DD664C8D
:101CC00070462040430070466449C00908401B210B
:101CD00048434340704658401821C841434070462D
:101CE0001021C841434070460821C8414340106854
:101CF0005A4D43400098594F204041000098C00978
:101D000028401B2568434140009818254840E84179
:101D1000414000981025E841414000980825E841DD
:101D200041405068019D41400198ED0920403D40EF
:101D300040001B277D436840019F05467D401827D2
:101D4000FD416840019D1027FD416840019D082725
:101D5000FD416840956868408446304620403F4DCC
:101D6000F4092C4040001B256C436040044674403D
:101D70001825EC41604010243546E54108246840B0
:101D8000E64170404BE7334CC5B2665D1D0E645DA5
:101D9000240626430C02250E2E4C645D65462D0458
:101DA0002F0E2C4D2404ED5D2D022C432643294C8F
:101DB0000096DDB2655D0E0EA45D240625436446E3
:101DC0002402260E234CA45D0604370E214E240463
:101DD000F65D360234432543AE461E4CCDB2645DFB
:101DE00065461C4E2F0EF55D2D062C4305022F0E69
:101DF000F55D1F042E043D0E164F7F5D65463F02C4
:101E00003E433443EEB2134DAF5D050E1148405DC5
:101E1000000607431802030E0E48C05C09040B0EAF
:101E20000C490004C95C9368090208430743106821
:101E3000009E63405168049C7040D26820607546E3
:101E400004986940416004987A4083600498C260B5
:101E500007B0F0BD186E05107F7F7F7F0101010183
:101E600000B5FFF7CBFE00BDF7B502988608002449
:101E70000DE00098A7003D182846FEF72AFC00BA9E
:101E8000000AE978000208430199641CC851B44271
:101E9000EFDB0199029A084600F002F8FEBD00004F
:101EA000F0B59208002303E09C0005590D515B1C1E
:101EB0009342F9DB4D4FF81FF938042A48D0062A1F
:101EC0006DD0082A43D10023CA6915022D0E140EC5
:101ED000455D045D2D062C4315042D0ED2B2455DE3
:101EE000825C2D04120215432C439D007D590A6823
:101EF0006A40544001225B1C0C62940065180C5926
:101F0000EE69521C66402E62042AF6DBCA6A150E80
:101F1000D4B2455D045D2D062C4315022D0E12042E
:101F2000455D120E825C2D04120215430A692C4392
:101F3000544005220C63940065180C59EE69521C3C
:101F400066402E62082AF6DB2031072BBCDDF0BD8F
:101F50000022CB681D022D0E1C0E455D045D2D0672
:101F60002C431D042D0EDBB2455DC35C2D041B020A
:101F70001D432C4395007D590B686B405C40012349
:101F8000521C0C619C0065180C59EE685B1C664085
:101F90002E61042BF6DB1031092ADADDF0BD0022B8
:101FA000CB681D022D0E1C0E455D045D2D062C43D5
:101FB0001D042D0EDBB2455DC35C2D041B021D43C9
:101FC0002C4395007D590B686B405C400123521CEB
:101FD0000C619C0065180C59EE685B1C66402E6114
:101FE000042BF6DB1831092ADADDF0BD186F051075
:101FF000F8B59E468C46002807D0002905D0590721
:102000008C0F002A04D1012C02D061204001F8BDC0
:10201000416A102903D0182901D0202905D1012CAB
:1020200005D00169491E102901D31E48F8BDC260C0
:102030000179F92319400171012C20D000210B46B0
:102040008D002D18491C6B610429F9DB002118272C
:1020500012E0CB179B0F5B189B089B001D182B46AB
:10206000143300938B07565CDB0EFB1A6D699E40A0
:102070003543009B491C1D6003698B42E9DC0179F3
:10208000C9070CD1614681607146C90701D0032C94
:1020900005D10146426A28316046FFF7E5FE00207F
:1020A000F8BD00001F0C000030B55C4C85B0A06886
:1020B000800705D506F000FCA06802218843A060D7
:1020C000A068574DC00724D0A068800521D4A0681F
:1020D000C00549D453A00FC8049301AB07C3102215
:1020E00001A9544806F08BFE5248009002232A466C
:1020F000012120880BF0E6FE010003D04E48FEF7D8
:102100009FF802E04D48FEF79BF8A068FF210131DF
:1021100028E0A068C00727D0A068000524D4A068E4
:10212000400521D446A00FC8049301AB07C3414822
:10213000102201A9103006F062FE3E480223103042
:1021400000902A46012120880BF0BCFE010003D03C
:102150003F48FEF775F802E03E48FEF771F8A068C8
:10216000012189020843A060A068C00726D0A068AA
:10217000800523D5A068000520D5A06840071DD4A0
:1021800035A000680290354801680A20414368463E
:102190000AF02AFE04E068460AF064FD002809D12E
:1021A000608802AB801C81B2022220880CF0B3F957
:1021B0004628F0D0A06804210843A060A068C007AA
:1021C00025D0A068400722D5A06880061FD414221D
:1021D00023A16846FEF718F8E0686A461074010A01
:1021E0005174010C9174010ED174002802D121A008
:1021F000FEF726F8A0886B46401C81B21422208886
:102200000CF0C4F9642804D0E068401CE06005B01C
:1022100030BDA06820210843A060F8E7FC02002040
:10222000FFFF0000669A0C200008969EE2119EB106
:10223000E1F273D9A8030020F47105102071051094
:10224000669A0C200008969EE2119EB1E2F273D9C4
:10225000AC710510DC70051001000000306C051039
:1022600030313233343536373839414243444546CC
:1022700000000000545820746573742073746172F8
:10228000740A00007FB505469868012202739A68B7
:102290001C4651739868022202A90E3006F0AFFD69
:1022A000A16805200D74E0807FBD70B506460888E2
:1022B0001D460C46001D81B213460222304607F02F
:1022C0003FF821882B46891C2180091D89B20222F2
:1022D000304607F035F82088801C208070BDFEB5A0
:1022E00000240E462746056845E028680290A96844
:1022F000022230460D3106F082FD3088B84209D006
:1023000087B2384603F022F8014601AA384604F0A5
:10231000B3F9019CA968022268460F3106F06FFDEF
:10232000E888401F81B22220005D002806D00128E5
:102330000BD0002811D0012814D01BE0E08B6A4696
:102340001288401E904206D307E0208C6A4612880D
:10235000401E904206D20720FEBD6846008808183D
:10236000E18B03E0684600880818218C884201D977
:102370000D20FEBD029D002DB7D100203080FEBD96
:10238000FFB5C8880025401E83B00E4687B20124E1
:1023900027E0B0680222083001196846091D06F0DE
:1023A0002EFD6846008802F0D1FF01001DD068466E
:1023B0000A8D0088824212D001AA04F05DF900283B
:1023C0000DD101992620405C400708D506986A0087
:1023D000101802221C3106F012FD6D1CADB2A41CB7
:1023E000A4B2BC42D5D30C98058007B0F0BDFFB5B0
:1023F000074683B0002000900D9802F0A7FF054625
:1024000006980C300190002D26D00837BD4223D00D
:10241000288D0E9988421FD80D99884213D30E99A2
:10242000884210D8294602222A31019806F0E7FC9A
:1024300010220C99069806F0DEFC002809D0298DA0
:102440000E98814208D02E462C6A2036B442DDD048
:102450003EE005980021018007B0F0BDA08B0D99EA
:10246000884234D30E99884234D8204620300290D6
:10247000C078012808D02046083010220C9906F0B8
:10248000BAFC002808D022E0214602220831019837
:1024900006F0B5FC0698F0E702988079400716D55B
:1024A0000098002801D1E08B0090E18B814211D18E
:1024B00005980222008841000498081821461C3122
:1024C00006F09DFC059805990088401C088024684A
:1024D000B442C3D12D6899E706480021026805205F
:1024E000400210180172417203218172C1720020F2
:1024F000704700008003002070B50D4D0446112187
:102500002868C9014018902601231A46806F314679
:102510000BF0EEFA010003D030464C600BF0D4FA19
:102520000520296840020918087A401C087270BD0D
:102530008003002010B5044600202082A074A1680A
:10254000A16161612060204605F084FD452801D02D
:10255000412010BDA08803210DF0EAFE04460EF0D4
:1025600093FE002812D072B60948012201684F205C
:10257000400109184878A2401043487062B6002014
:1025800011F028FE002801D00CF01EFC002010BD28
:102590008003002070B5C17C0E4D4906490EC17400
:1025A000044611212868C901401890260123002201
:1025B000806F31460BF09CFA010003D030464C602E
:1025C0000BF082FA0520296840020918487A401C5D
:1025D000487270BD80030020F8B516460D460746C8
:1025E000002409F0A5FE002806D0324629463846C8
:1025F00000F0A4FD044604E020356879002802D0EC
:102600000E242046F8BD2879C10701D1012E09D03A
:10261000810701D4022E03D04007F2D4042EF0D15A
:102620000324EEE70224ECE7FFB581B006466846D6
:1026300080890C9F0C46002837D06946098A884259
:1026400033D87088C01FB8422FD3FD1DAAB2002115
:10265000204607F015FF002802D0642005B0F0BD29
:10266000A06806210173A068022203A90D3006F0BC
:10267000C6FBA068022204A90F3006F0C0FBA068C8
:1026800002220AA9113006F0BAFB3A460B21204675
:102690000B9B06F055FEE580212130698901084336
:1026A00030610720B0730020D8E74220D6E77FB51D
:1026B0000546684600890C4600281ED0694689896F
:1026C00088421AD8A06804210173A068022202A9D6
:1026D0000D3006F094FBA068022203A90F3006F02B
:1026E0008EFB0520E08021212869890108432861AB
:1026F0000520A873002004B070BD4220FBE77FB521
:102700000546684600890C4600281AD0A0680C21AE
:102710000173A068022202A90D3006F070FBA068C8
:10272000022203A90F3006F06AFB0520E080212178
:1027300028698901084328610D20A873002004B08E
:1027400070BD4220FBE77FB50546684600890C9EB8
:102750000C46002816D069468989884212D8A0689C
:1027600010210173A068022202A90D3006F047FB78
:10277000A068022203A90F3006F041FB012E04D00D
:10278000022E0AD0422004B070BDA068022208A91F
:10279000113006F034FB072006E008AB10220921B7
:1027A000204606F0CDFD1520E08021212869890111
:1027B000084328611120A8730020E4E77FB505468F
:1027C000684600890C9E0C46002816D06946898907
:1027D000884212D8A06808210173A068022202A9C9
:1027E0000D3006F00CFBA068022203A90F3006F0A2
:1027F00006FB012E04D0022E0AD0422004B070BD88
:10280000A068022208A9113006F0F9FA072006E0B4
:1028100008AB10220921204606F092FD1520E08029
:10282000212128698901084328610920A873002013
:10283000E4E7FFB581B08C680A9E52202073886857
:102840000D461F46022203A90D3006F0D8FA3B467A
:1028500032460721284606F073FDF61CEE80002064
:1028600005B0F0BDFFB581B00646684680890A9F75
:102870000D46002827D07088C01EB84223D3FC1C08
:10288000A2B20021284607F0FBFD002802D06420F8
:1028900005B0F0BDA86812210173A868022203A93F
:1028A0000D3006F0ACFA3A4607212846049B06F0A4
:1028B00047FDEC80212130698901084330611320F4
:1028C000B0730020E4E74220E2E7000010B50B49B6
:1028D0008B885B1C98420BD04988891C884208D1A0
:1028E0001078012804D106480168042211430160D0
:1028F00010BD014603A0FDF7A3FC10BDF4020020AB
:1029000004030020556E6578706563746564206803
:10291000616E646C653A203078253034642E0A008C
:102920007EB5044616460D46684603F05BFF6846D2
:1029300003782370407828706846807830707EBDB8
:10294000F0B50022104B03E09C5C521CA218D2B2DE
:102950009C5C002CF8D1971D02243B253526202FA6
:1029600008D29C549A1855709070D4701671517199
:1029700000239371054A147055709070D4701671CD
:10298000517100209071F0BD88030020EC020020FE
:1029900010B50AF09BF91E4C4721206849014118E7
:1029A000097A002909D1A0300079C00729D00DF09B
:1029B000BFFF00F045FC00F035FF00F003F9206890
:1029C000014640310A78C9798A4319D13E21095C10
:1029D000002915D10F490A88120711D50922D206FC
:1029E0001269497A836AC900591809231B02C01861
:1029F000406D801A00020012814201DA0CF062F987
:102A000010BD01F0E5FE02F0FBFC09F0C1FAD0E7D1
:102A100080030020C000002010B5837F0122002425
:102A200092024168082B03D94224914202D310E05C
:102A3000914201D242240CE001463422064806F0BD
:102A4000DEF900F07FF8002801DA482401E00AF0FE
:102A500057FD204610BD0000D80300203EB5174D9D
:102A600015482968827F0846A0310A730024603027
:102A7000047644768476E122C276802202770222AE
:102A80004277302008704C7002AA01A96846FFF70F
:102A900047FF68460078A22201016846007A891C37
:102AA000000201436846007900030143286811527F
:102AB000A03004713EBD0000D80300208003002038
:102AC00070B50AF0E7F805F0CDF906F0ABFBFFF7BB
:102AD00003FD04F03FF9184C18492068184D4018C0
:102AE000811001202A68C002101881666168890877
:102AF000C166A1688908016709F07AF91D20296873
:102B00008001228B08180287628B4287A28B428643
:102B1000628C82862046203002783B2040010818D3
:102B200082750021017001F095FC03F045FF0CF067
:102B30008FFC00F0FDFE70BDD80300200000FCEF0C
:102B40008003002070B50025ED430DF039FB01280E
:102B50002ED0002318490322888BFF24401E1043E7
:102B60008A7F4D3462438218088B282460431218F0
:102B7000488B3024604312180846203040782C24BB
:102B8000604310180D4A181884184869A0420DD1E6
:102B90000B4884420AD90D690DF012FBC1B22846D8
:102BA00000F008FD00F036FE401B251A284670BDD7
:102BB000FF23B533CEE70000D8030020351900000D
:102BC000540A0000F8B52C4F3C68206E5C34401C61
:102BD000002814D0002529480023C07B00283ED0BF
:102BE0000926F6062648002D1CD000210A460B4671
:102BF0004169521C994204D1002902D004E0012508
:102C0000E9E7204B9A42F2D32160006960603069A5
:102C1000A1680002090E000A09060143A16000F044
:102C200033F81DE03169A2680902090A150E08D0BF
:102C3000018BC90712D04169216000696060E372AD
:102C400010E0881A00027D2300121B03984205DD64
:102C5000100E00060843A06000F016F8F8BD63608F
:102C6000002DFBD003CC11F05BFAFA2010F0DAFD56
:102C700039688862F8BD000080030020F803002056
:102C8000000010488813000004490020086104482F
:102C9000012100686030C1717047000000001048D9
:102CA0008003002010B507F077FE10BD70B52549F0
:102CB0000023086802464032537613764F225201B1
:102CC000821853700F222030827505221846520256
:102CD0000C680546A418E46A303523540C68A4181F
:102CE000E46A63550C683035A418E46A63550C68CF
:102CF000A418E56A04469034401CC0B22B552D2818
:102D0000E6D308688118CA6A4A60144630340C60F9
:102D10001321C90141189032CA670B49044648344F
:102D20000B8009224A7105238B71CA710B7248818D
:102D300000F00CF8FF2020706070A070E0701F2081
:102D4000207170BD80030020C000002010B506482F
:102D500001680648406A002803D020220DF065F97A
:102D600010BD0020087010BD80030020D803002093
:102D7000F8B5069C1F4615460646002C13D0A068E1
:102D800002220D3006F03BF8E81E82B23B460721D6
:102D9000204606F0D5FAE580A068012E05D01D2159
:102DA00001730020F8BD4720F8BD1B21F8E770B57E
:102DB00015460646FFF710FC0446082D0BD1052CDE
:102DC00009D1304609F0B4FA002804D0008A400442
:102DD000800F00D00024204670BD2423184204D068
:102DE000C81F092803D82032D17100207047422023
:102DF00070470000F1B5FFB08BB001246002059070
:102E00000027CC4807970168E320C000081803900A
:102E10008A98C74D0005000D0AAA05A908F001FE11
:102E20000690002872D104260AA805994218203A73
:102E3000D27F0B2A23D00026002004900AA88119F3
:102E4000022201A8029105F0DAFF6846818809ABE9
:102E500008AA039803F0F2FB012817D002287DD0BE
:102E600068468088854200D30546844200D92046C2
:102E7000044602988078012871D013363BE1491E40
:102E8000761E36040591360CCFD1D5E70898009010
:102E9000002F79D1009902222831029805F0ABFF6A
:102EA00000281ED100982030017B02988078814252
:102EB00017D1012808D10098029902220830C91CB4
:102EC00005F099FF002815D002988078022808D1D3
:102ED0000098029910220830C91C05F08CFF0028C8
:102EE00008D00098008DA84200D80546A04200D224
:102EF0002046044602990AA88978012907D013368A
:102F00000599B6B28E4204D3012707E005E1761D8C
:102F1000F6E78119022201A805F071FF03990098D4
:102F200008318E462EE084466946026A8B8820303E
:102F30000DE0918B994203D3012F7DD199427BD92A
:102F4000A94200D80D46A14200D30C461268824225
:102F5000EFD10498002817D1604601E015E0BFE0EA
:102F6000006870450ED0018D994203D3012F09D11D
:102F7000994207D98D4200D30D468C4200D80C46A9
:102F8000012F59D17045CED1BAE008980090002F9A
:102F900072D1009902221C31029805F02CFF002802
:102FA0001ED100982030C17802988078814217D1D4
:102FB000012808D10098029902220830C91C05F0A6
:102FC0001AFF00281AD002988078022808D10098A9
:102FD000029910220830C91C05F00DFF00280DD001
:102FE0000098808BA84200D80546A04200D2204617
:102FF000044602988078012826D003E00298807861
:10300000012805D013360798B6B201281ED021E05A
:10301000009849490089884216D18A9800F044FFF7
:103020000146009800F022FE0099098C484300995F
:1030300089694018022200E038E00299491D05F034
:10304000DEFE01200790D4E7761DDCE7B61C0020E9
:10305000B6B207900598864201D3012705E00AA879
:103060008119022201A805F0CAFE039A00990832CC
:1030700009980968944630E01AE086466A469388C3
:1030800020300DE08A8B9A4203D3012F0ED19A4251
:103090000CD9AA4200D81546A24200D314460968AA
:1030A0008142EFD1049800282AD102E00120049047
:1030B00026E07046006860450FD0028D016A9A4292
:1030C00003D3012F09D19A4207D9954200D315465F
:1030D000944200D81446012FE8D16045CDD10FE0CD
:1030E0000298C078022805D102980079292801D1D8
:1030F000B61CB6B2761D0598B6B2864200D301273B
:103100000598811B042902D3864200D294E60498D4
:103110000028FBD1A54203D906987FB00CB0F0BDC2
:10312000224629468A9803F03FFD0690F5E7000005
:10313000FFFF0000800300200229000070B5154643
:103140000C46064609F0DDF820346179012D09D0DE
:103150000A0702D54207920F0FD0CA0625D50207EB
:1031600009D522E0CA0702D04207920F05D08A078C
:1031700005D5020703D4082070BD052070BD49079E
:1031800007D5C00709D0E179304609F042F85F2839
:1031900005D02079C00704D005E00F2070BD0C20B9
:1031A00070BD022070BD002070BD890607D5C00724
:1031B000F3D0E179304609F02CF85F28EFD0207980
:1031C000810701D4022D07D0410701D4042D03D07B
:1031D0000007E8D4082DE6D1032070BD00B500F04B
:1031E00063FE002805D0852201699201114200D0BA
:1031F000002000BD10B50848064941610749072372
:10320000CA691202120A44042243CA610021816180
:10321000036110BDFE7C000000E000E004ED00E072
:1032200001480068704700003003002003490A6825
:103230000B689B1A8342FBD37047000030030020C9
:1032400010B506F077FE05F0D1FE0CF0B9FF0128AD
:1032500001D100F031F800F089F910BD704700008D
:1032600070B5134905220968520200208B18AC2260
:10327000525C19E058241D6944432C1954252D5DD6
:10328000ED060FD50B480818C030428A018A6089C4
:1032900005F0D0F83A2804D04034207DEF210840D2
:1032A000207570BD401CC0B28242E3D870BD0000E2
:1032B000800300200409000010B5FFF7D1FF10BD06
:1032C000FFB50746464881B000880D4645490522AE
:1032D0000968520240078A18400F12695823584360
:1032E000141841480E180CF06BFF002822D0142D42
:1032F00004D0152D20D0072D59D05CE0214603982D
:1033000004F03AFA0121206989040843214640313A
:103310002061087D022210430875820609D5627972
:10332000520852006271DF2210400875002F4ED102
:1033300051E0012005B0F0BD25464035287DC0078D
:10334000F7D02146039804F017FA204604F0E6F976
:10335000002825D0A18FE08F814200D20846E88066
:103360006989A889814200D2084668822A89E98948
:103370008A4200D211462982628F2888824200D276
:103380001046C9080E3989B26880884200D30846C1
:10339000A880049800680121490608430499086040
:1033A000287D400840002875002F10D113E00398B5
:1033B000C078142802D0002005B0F0BD4034207D34
:1033C00004214008400008432075002F03D0082046
:1033D000C036F073ADE70820C036B073A9E700002F
:1033E000C0000020800300200409000010B5FFF792
:1033F00067FF10BD002101E000BF491C8142FBD3E3
:1034000070470000F3B58BB005461C2249A103A804
:10341000FCF7FAFE684603F0E5F909240126E40604
:10342000002D6AD04420694688764948017A3143A4
:1034300001724C206946C87520200875B220487773
:103440005B2008A90870434A906A4349030C8B42E9
:103450000AD108AFFB788F273B4008AFFB70FB78A1
:103460004007400E0343FB70506A020C8A420AD1A7
:103470006B465A7CCF231A406B465A745A7C80079D
:10348000800E02435A7433484038006B020C8A4263
:1034900009D108AAD17889088900D170D17880072C
:1034A000800F0143D1706946C87DFB210840694601
:1034B000C875487889780001084312280BD308A9F9
:1034C000C8780421084308A9C8706946C87D08A9BE
:1034D000C978FFF735FA03A8012180B20904401822
:1034E000E060E068C003FCD4694648788978000150
:1034F0000843122801D309F0DFF91849088B002886
:10350000FCD00E8317208881002008610C980028C9
:1035100006D0216910200140226902408A42FBD076
:10352000002D02D00E49152008700F490D48086083
:103530000DB0F0BD023F00023E30023C20023B4C89
:10354000023A400239B202345B02350B000000003F
:1035500000002040C007001055AA000000001048DD
:103560000000C040CCBCECFC14000020F8B5104EAC
:1035700030682030C57D002D19D0002405277F023A
:1035800010E0E9070BD0C019016958206043081802
:103590004030417D204604F085FD002807D06D08AD
:1035A000641CE4B23068AC21095CA142E9D8F8BDE2
:1035B00080030020F3B581B0934A012101A805F0F2
:1035C000EAFB924C04222060432101A805F0E3FBB2
:1035D00011272168FF01C919C8660422432101A8E7
:1035E00005F0D9FB21680422C9190867FF2184313D
:1035F00001A805F0D0FB2168854DC9194867A97F4E
:103600000C2201A80B3105F0C6FB052621687602C5
:1036100089194863A97F202201A805F0BCFB216815
:10362000102289194862A97F01A805F0B4FB21681E
:10363000282289198862052101A805F0ACFB2168C0
:10364000302289190863052101A805F0A4FB21682F
:10365000FF228919C8620132012101A805F09BFBF4
:10366000216858228919C863A97F01A805F093FB36
:103670002168202289190861A97F01A805F08BFB28
:103680002168782289194861A97F01A805F083FB88
:103690000F212268C901511888630722032101A85C
:1036A00005F079FB0F212268C9015118C86328224F
:1036B000012101A805F06FFB0F212268C9015118F3
:1036C0004864AA8B012101A805F065FB0721226847
:1036D00009025118C866298B282201A805F05BFB56
:1036E00007212268090251184866698B302201A817
:1036F00005F051FB072122680902511888660C2247
:10370000012101A805F047FB21680C228919C86036
:10371000012101A805F03FFB216828228919C96809
:103720008860284620300090417801A805F033FBDE
:10373000216804228919C9688968886000984178DD
:1037400001A8491C05F027FB216810228919C968C6
:1037500089684860A97F01A805F01DFB2168022245
:10376000C9190866A97F01A805F015FB2168022286
:10377000C9198863A97F01A805F00DFB2168022201
:10378000C919C863A97F01A805F005FB21680222B9
:10379000C9190864A97F01A805F0FDFA2168012272
:1037A000C9194864A97F01A8491C05F0F4FA2168E9
:1037B0001022C919C8650B2101A805F0ECFA0721F0
:1037C00022680902511848600422802101A805F0EE
:1037D000E2FA216889198861029ADC2042430121BA
:1037E00001A8443205F0D7FA21688919C861029A04
:1037F000D8204243012101A82C3205F0CCFA2168DF
:10380000891908620198FEBD540A00008003002057
:10381000D8030020704710B5C001000C00F0ECF98F
:10382000002010BDFEB572B63F4D08232868014642
:103830004030C2791A43C27162B6002011276C462B
:10384000FF0182005218D219926F52884300401C27
:10385000C0B2E2520328F4D372B6C8190021466EF2
:10386000416662B6F00702D000200DF013F9B007F0
:1038700002D501200DF00EF9700702D502200DF0DF
:1038800009F9300702D503200DF004F9002623E0E2
:103890000D281AD2211D254A800012582046904733
:1038A000002812D072B62868F7224030C179114042
:1038B000C17162B630E03A2807D21C49231D80004E
:1038C000E8390A5819462046904702982968401856
:1038D000C019806F2188018071006846415AB0008C
:1038E00002902A688018C019806F0288920892009E
:1038F0001418028808348A420ED0A27891070BD09F
:103900009107890F012901D104460834A078800865
:10391000C006E078CFD5BBE7761CF6B2032EDBD32A
:103920000CF0BEFFFEBD000080030020B46D05104A
:1039300070B50CF0CFFF124C11252068ED01401935
:10394000C06E40210CF0AEFC216849198867086FF1
:1039500040210CF0A7FC21684919C867486FFF2176
:1039600081310CF09FFC0921236809025918086075
:10397000044808220021181805F045FA70BD00001F
:1039800080030020E4080000FEB506462A481446DD
:103990000068E322D2008518C888032806D0234691
:1039A000002202210420FEF76DFC43E08968022218
:1039B00068460D3105F023FA326990052FD4684628
:1039C0000188172903D35C20405B172801D21720F8
:1039D00002E0814200D2084670800120400202438A
:1039E00002203261019014481B21006889014118AE
:1039F0003788C97E76880123490710D51121C9016E
:103A0000083040182422806F02210AF071F8002843
:103A100005D08780C680014601980AF055F8A06855
:103A200003260673A068294602225C310D3005F09A
:103A3000E6F9E6800020FEBD80030020F7B590B0D7
:103A400000206A460D9090826A4AE3231268DB00E8
:103A5000D218CB880446022B08D00022182104205B
:103A6000129BFEF70FFC002013B0F0BD8B68002006
:103A70005E7B0A900B908888303201920990002773
:103A800001980AF0E3FD054620E028680890A9881F
:103A90000998814219D1A968022207A80D3105F0C1
:103AA000AEF9002F01D16846878B6846808B87422C
:103AB0000BD1294601980AF016FE002028600A98CA
:103AC000002811D00B9805600B95089D002DDCD1C6
:103AD000002FD4D112981921806801730121129806
:103AE000012EC18002D081E00A95EDE702A90AA863
:103AF000FEF7F5FB002879D069460A891821129B48
:103B0000FEF7C0FB002671E081680546022202A88C
:103B10000D3105F074F9012E66D16846008901F077
:103B200015FC014668460EAA008902F0A5FD0E9C10
:103B30001099204600F09AF80D9055E02F68012E5C
:103B40003FD1002F06D0B968022205A80D3105F03B
:103B500056F902E0002069468882A968022204A87A
:103B60000F3105F04CF9E8880D99401F80B20090A4
:103B7000208CA269484369461018098A009A4318A4
:103B80000921284605F0ECFA2220005D012804D125
:103B90006846018A00980818E08368460189808A8F
:103BA00081420ED0208C0D99A26948431018002143
:103BB000019000911098E38B0188A28B02200AF0FB
:103BC00045F90A9908680A90002008600A990029B6
:103BD00000D10B900121284605F05EFB694608895B
:103BE000898A884202D13D46002DA7D10A98002833
:103BF0008AD139E78003002000B508490968084ADE
:103C0000914209D14006010C06483F2202818161A0
:103C10001121018000F022F800BD000014000020F6
:103C2000CCBCECFC0000104000B5094A1268094BFE
:103C30009A420BD1084A3F231381800890610648BD
:103C4000403001603320108000F008F800BD000013
:103C500014000020CCBCECFC000010400248018A9B
:103C6000C907FCD0704700000000104030B5024684
:103C700023239B5C0020012B1AD112890D4B9A4201
:103C800016D10D4A052312685B02D318A0325B6976
:103C9000127B0AE045010C885D5B24052D05240D8F
:103CA0002D0DAC4204D0401CC0B28242F2D800209C
:103CB00030BD00000229000080030020F7B57848DD
:103CC0000F460068E321C9004418F88888B0072827
:103CD00004D20022062104200A9B2AE0B9680222AD
:103CE00068460D3105F08BF8B968022201A80F3142
:103CF00005F085F8B968022204A8113105F07FF8B3
:103D0000F888C01F80B2039068460288808882428B
:103D10000CD8002A0AD00898002142880A9806F098
:103D2000A8FB002808D045200BB0F0BD06210120DB
:103D30000A9BFEF7A7FAABE00A98072180680834CF
:103D400001730121684601810594008801F0FEFAA3
:103D500005007CD086E06846008A0522D2029042A7
:103D600002D0521C904226D168460088814278D306
:103D700029460B2208313846039B05F087FA69462D
:103D80006A8D098A8A426CD10399022901D01029CF
:103D900067D1002865D12A462846296A2832203072
:103DA000814202D06B6A1C3300E0134602A90A98D4
:103DB000FEF77BFA55E02E462C6A2036B4424ED1EF
:103DC0004FE06946A08B0988884247D369468988B5
:103DD000884257D82320005D01283FD1204608990A
:103DE000FFF744FF218CA269414351180B2238464A
:103DF000039B05F04BFA06900898012200882146A3
:103E00000005000DFEF7E8FB01466A462089128A8C
:103E1000904223D1002921D1E28B03998A421DD1FE
:103E2000069900291AD108996A4649881289891A7F
:103E3000042927D322461B491C32884208D1206816
:103E4000B04205D00089884202D02468F7E719E023
:103E500023461C3302A90A98FEF727FA2468B442C5
:103E6000AFD12D68059885420CD06846298D808891
:103E7000814207D808986A4640881289801A042827
:103E800000D368E768460089012803D90A99C880E9
:103E9000002049E76846028806210A200A9B48E775
:103EA000800300200328000010B50D4900050B68B1
:103EB0000521490259184A690021000DA0331B7BD6
:103EC0000AE04C01145B2405240D844202D1480110
:103ED000801810BD491CC9B28B42F2D8002010BD19
:103EE00080030020FFB589B0002405460794D088E0
:103EF0001646052804D00022042108460C9B20E029
:103F0000B168022208A80D3104F079FFB1680222DD
:103F100068460F3104F073FF6846028C00888242C5
:103F20000CD8002A0AD00A98002142880C9806F082
:103F3000A0FA002808D045200DB0F0BD04210120D2
:103F40000C9BFEF79FF9B9E06846008C01F0FEF982
:103F5000060076D0083504950498864272D06946EA
:103F6000308D098C884230D36946098888422CD824
:103F7000002C0AD1012107910C98052180680224A8
:103F800001730C980799806841730A984088001B58
:103F9000042857D30798012854D1201D81B23346F5
:103FA000283302220C9805F0CBF9A01D81B23346CC
:103FB0002A330222A41C0C9805F0C2F96946A41CFD
:103FC000308D0988A4B2884274D03746356A2037CC
:103FD000BD42C1D060E06946A88B098C88425AD3A3
:103FE00069460988884265D8002C36D02320415D77
:103FF0000798814260D10A984088001B042802D3A8
:104000000799012904D0122856D30798022853D1C2
:10401000201D81B22B461C3302220C9805F090F92A
:10402000A41C0798A4B201280DD0201D81B22B46F4
:10403000083310220C9805F083F92046103084B222
:1040400029E03DE036E0201D81B22B4608330222F4
:104050000C9805F075F9A01CF1E72320415D07914C
:104060000C9805218068022201730C9807998068DA
:1040700041730C98294680681C310E3004F0BFFE55
:10408000079901290CD02B460833102208210C98DF
:1040900005F056F914242D68BD429CD136685BE7C3
:1040A0000C982946806802220831103004F0A7FEDF
:1040B0000624F0E7002C03D00C98C48000203BE7D6
:1040C0006846028C04210A200C9B3AE7830810B54D
:1040D0000A4800210268052040021018A0324069F9
:1040E000127B07E04C01045B002C01D0994204D004
:1040F000491CC9B28A42F5D8002010BD80030020B7
:1041000070B50C460B4E81000B4832680D18012328
:104110002032D37721462846FFF786FD2868002104
:10412000844201D1084600E0FB2032682032D1777A
:1041300070BD0000800300200000041038B5184A4C
:1041400014682246BA32AE34A378DD0701D00129C3
:104150000AD05B070CD501290AD0217949070BD574
:10416000E17A002905D007E0E07880210843E0707B
:1041700038BD0121E172508020794106090FF7D046
:104180007821084069460870002048706A4602217C
:10419000422009F019FE207987210840207138BD9E
:1041A00080030020F8B505460027684607701548CB
:1041B00046260468AE3420798006800F03D00021A3
:1041C000084603F023FCA078400718D520794C213D
:1041D000084214D10023287E6A46194600F0E8F907
:1041E00000280DD16846007828762F74284603F001
:1041F0005DF9060003D12079402108432071304643
:10420000F8BD00008003002038B510480021046884
:104210000846AE3403F0FAFB694648702079C107BE
:1042200004D001216A46117088432071C0B2810711
:1042300005D502216A461170FD2108402071022136
:104240006A46084609F0C0FD38BD00008003002022
:1042500010B5FFF7D9FF10BDFFB50C4678A103C913
:1042600095B001910090002108A801730321C902B3
:1042700068464186012108A8734E017435681746C7
:10428000AE3502F0FDFB002808D1704930684018B7
:1042900002F064FAA878002802D0462019B0F0BDD8
:1042A0000BA8159900F0D1FA0028F7D1072010A922
:1042B0000871012C05D0022C0AD0002C0ED042200F
:1042C000ECE708A8017B1020014308A8017305E072
:1042D00011A90BA800F006FB0028DFD110A8027975
:1042E00001230CA9284600F0E7FE00287ED1022217
:1042F0002946189804F083FD298868468181152194
:10430000490201820784012686734E2108A8817024
:104310000024C470067107214171867103A902A8A7
:1043200000F084FC002861D1022202A91E9804F04A
:1043300066FD082F02D26846478502E008206946DC
:10434000488569460C850B4628880AAA098901F028
:10435000FFFE00286DD13E4968460182022707848E
:1043600008A8847103A902A800F060FC002860D1AD
:10437000022202A91F9804F042FD684604706946B3
:1043800044704F850B4628880AAA098901F0E0FE8F
:1043900000284ED108A8007BC00723D02C496846CE
:1043A000C91C01820821018408A88770047103A92F
:1043B00002A800F03BFC00283BD1FF216846C171F8
:1043C0008171C170817041700170447104716946DE
:1043D000082048850B4628880AAA098901F0B8FEFA
:1043E000002826D108A8007B800600E021E022D525
:1043F0002988684681811649A53101820684867321
:1044000008A88770C470047107214171847103A9E1
:1044100002A800F00BFC00280BD169460E700C8539
:104420004E850B4628880AAA098901F091FE0028CA
:1044300001D0472032E708A8007BA87000202DE7B4
:10444000626C75656E72672180030020DE060000D5
:10445000012A0000034800210068AE30C17081705D
:10446000704700008003002070B50D4B1C68AE340F
:104470002379DD0612D45B0710D533280ED1E07AFC
:1044800002280BD10420107000205070C9B2022005
:1044900009F09AFC2079FB210840207170BD0000D2
:1044A0008003002038B50246174801240068AE306A
:1044B000022A1FD0052A03D0072A07D00B2A20D1B1
:1044C000084609794088FFF739FE1AE00079002490
:1044D000020600D50124820703D1C20601D480065A
:1044E0000FD5084600216A461170694609F086F822
:1044F000044606E08178490703D50179FB22114083
:104500000171204638BD00008003002010B5094825
:104510000468AE34E07880070BD5002003F048F93A
:10452000022009F0C9FBE07801210843FD21084081
:10453000E07010BD8003002010B5FFF7E7FF10BD4D
:104540000FB410B5079C01282DD168468089174902
:10455000884210D103A80FC800F0EAF900281DD145
:1045600007F06EF9FA281ED001281CD92078F32113
:104570000840207017E00D49491C884208D0C91E28
:10458000884205D0491C884202D0C91C88420AD101
:1045900003AC0FCC00F0CCF9002800D0632010BC95
:1045A00008BC04B018470020F9E70000022A000008
:1045B000FFB5074671480D4604688FB0AE34A17848
:1045C0001E46C80602D5E078C0067DD4880607D509
:1045D000E0788006800F03D0022F01D0002E73D028
:1045E0008806800F06D0022F08D0032F06D0002E99
:1045F0006AD003E0012F01D0002FF8D1880603D440
:10460000002D01D0012D5FD1002E06D130200140B8
:10461000384602F031FE002856D11199002008706A
:10462000A0788006800F7DD00CA908A803F08CFB31
:1046300007900DA90AA803F0F5FB0690079800283B
:1046400002D00698002801D1012E58D1022F04A8CB
:1046500007D002F037F8002E3CD00798002803D08E
:1046600012E007F027FEF6E7444F45483B68062274
:1046700008A9181804F0BFFB0028386808D040309B
:10468000417E4908490041760698002805D014E08B
:104690004030417E01221143F5E7384F38483B68EE
:1046A00006220AA9181804F0A6FB002838680CD0C6
:1046B0004030417EFD22114041760798002809D004
:1046C0000698002806D01AE043E04030417E0222DE
:1046D0001143F1E7294806220368294804A918185C
:1046E00004F08DFB052069460873002E02D10846B0
:1046F00008F0CEFB23480290684608F07CFBA078C7
:10470000800611D51198032101702079C10603D5C7
:10471000002D01D0022D1CD1800605D5012D03D01E
:10472000032D00E018E014D1A078C00623D511991C
:10473000012008702079C10601D5002D09D181061C
:1047400001D5012D05D1000615D5002D13D0012D61
:1047500011D0422013B0F0BD012F0CD1002E0AD190
:104760000648062203680648611D181804F047FB36
:104770001199012008700020ECE700008003002060
:10478000DE060000A0BB0D003EB50BF0ADFD0446FB
:104790000BF038FE082C01D1082813D00A480B4929
:1047A000006806224118684604F029FB68464079F3
:1047B000400601D5022000E00320012302AA0021C7
:1047C000FFF7F6FE3EBD000080030020DE0600007D
:1047D0001FB50E480468AE34E078010612D5A17802
:1047E000C9070CD0800708D50420694608736846BD
:1047F00008F04EFB022009F05FFA0020E07040064E
:10480000400EE07000F048F81FBD0000800300205B
:104810000949B22209681423525CBA311A4208D0FD
:10482000498800050905090D000D814201D10120CB
:1048300070470020704700008003002002780907BD
:10484000090F0A4302700020704710B5FFF7F6FF0A
:1048500010BD000030B50E4885B005682C46AE3559
:104860002879BA34400711D5E87A01280ED11521EC
:104870004902684641800121017060886B46054A03
:1048800000F08CFE002801D10220E87205B030BD96
:1048900080030020FFFF000010B5FFF7DBFF10BD15
:1048A0007CB50446E1200D46800003F0C1FB0BA15E
:1048B00003C90090019168460CF0F4FA012003F05E
:1048C00009FD002801D047207CBD20782021084325
:1048D00020700920287000207CBD00001F0200000D
:1048E0000000000010B5FFF7DBFF10BD10B5044657
:1048F000022000F05DF80D4800210268052040020A
:104900001018A0324369107B05E04A019A5A002A28
:1049100004D0491CC9B28842F7D810BD48011C52C6
:10492000C018026904210A43026110BD80030020FF
:104930001FB582B0002401F009FF694601F0ACFE0A
:10494000009A6846116A0089203209E023235B5CE3
:10495000012B04D10B89834201D1641CE4B20968A4
:104960009142F3D1204606B010BD000010B50446B8
:104970000146042002F010FB002809D00548E3217D
:104980000068C900401821463C3009F08FFE4320E2
:1049900010BD00008003002004490A683B21490142
:1049A00051180A7802430A70704700008003002003
:1049B00004490A683B21490151180A7802430A70E8
:1049C000704700008003002000B51138C0B2FFF727
:1049D0007DFB002804D001220169520511430161C9
:1049E00000BD7047F0B50379012292070168002BE2
:1049F00002D0062B03D007E053688B4303E000236B
:104A0000037153680B43536000210F240368CB40AC
:104A1000DB07DB0F36D0082909D2D56A8B00264682
:104A20009E40B54306799E403543D5622AE00B4649
:104A3000083B082B0AD28B002646203B156B9E4074
:104A4000B54306799E40354315631BE00B46103B8A
:104A5000082B0AD28B002646403B556B9E40B5433F
:104A600006799E40354355630CE017290AD9114F4A
:104A70008B002646603B3D8B9E40B54306799E40A9
:104A800035433D83491CC9B21A29BFD34179012955
:104A9000D168036809D09943D1608179012991686F
:104AA000006804D081439160F0BD1943F4E70143ED
:104AB000F9E700002000004003480068AE3080782D
:104AC0008006800F7047000080030020F3B597B088
:104AD0000D8848880590081D1DC80DAE1DC68C8A1E
:104AE000CE8A087E1390C869203101900878009022
:104AF0004878049088780390C87802900F7900F085
:104B000011FE002817D10120400284425FD8B44230
:104B10005DD8002F01D1B44259D114A9284601F023
:104B2000BBFD002806D115AA1499059801F0A4FD33
:104B3000002802D0602019B0F0BD149D11A92846AC
:104B4000183003F077FE10A88088002810D028467F
:104B500012A9203003F06EFE10A8838800892A8DE8
:104B60001818696A10188A8B904203D16120E2E715
:104B70004820E0E715982C4B02899A4227D123223E
:104B8000125C012A23D1006800681690139801284E
:104B90001FD16846808E29221202801A030008F075
:104BA00084FD0604180404070A18022C0FD110E033
:104BB000072C0CD10DE0042C09D3E00707D1012FFD
:104BC00007D1A64203D3042E01D3F00701D042201F
:104BD000B1E702980B90039B049A0A9309920098FC
:104BE000019A0C9708900696059407920DA81DC887
:104BF000019002A81CC013980B4600902A461699F3
:104C0000179800F0AFF9002895D168460649808EC4
:104C1000FF31884205D01798018800200A4601F02C
:104C2000C3FF002087E7000003280000F3B5A5B00C
:104C300008881A9088780C4611901022091D13A834
:104C4000FBF78DFCA08A1090A17D68460172E07D83
:104C50000F90207E2090677EA07E1F900020064649
:104C60000146129020A801810F20BB4C2390E32124
:104C70002068C9004018199000F054FD00280BD19D
:104C800001211098490288425FD821A91A9801F0A1
:104C900003FD002802D0602027B0F0BD21981790B6
:104CA00001F054FD1A9988420CD102A8019016987F
:104CB000009013AD0ECD1198FFF742FC002801D0F3
:104CC0006320E9E76846017A8806800F05D0012055
:104CD00012902068A030007B4600C80703D01298CD
:104CE000401CB61C1290080603D51298401CB61C36
:104CF000129017980DA918301D9003F09BFD68467F
:104D0000129C808EA41CA04237D317980EA9203085
:104D1000019003F08FFD6846018F00290DD0179890
:104D2000179A6B46406A9B8E128D5918808B5118CA
:104D3000081AA04201D26120AEE717988469119841
:104D40002568012803D0022803D04220A4E70520CB
:104D500000E01320E0832A4639460F98FEF73DF81D
:104D6000422899D0199FE28B4037788B398B411AB2
:104D7000109810188019814201DA48208CE70EA99A
:104D8000019803F057FD6846008F0028179802D05D
:104D9000406A808B00E0008D2599401C0880259892
:104DA00001210088A083259802220088401CA88346
:104DB0006A482081204620301790C1700021817000
:104DC00081711998398B406D40186946A061097A44
:104DD0000170A06929461C31401C04F010F811989C
:104DE0000128A0697ED0102213A9C01C04F007F886
:104DF0002846102213A9083004F001F8388B13302C
:104E000038832E4620361198F0701098E8831F984A
:104E1000B07010982084109828841998398B406DB0
:104E20004018A8610021109A03F0EDFF398B10980B
:104E300008183883179901200871179900204871C4
:104E400030716846007A810701D50121317101076F
:104E50000227002902DA317939433171410703D53C
:104E60003179042211433171400603D5307908218C
:104E7000084330710F9870712098B07121461D98C9
:104E800003F001FD2146019803F0DEFC29461D9840
:104E900003F0F9FC2946019803F0D6FC129800288B
:104EA00041D068461A998181A18BC18107844784CA
:104EB000012408A8047122A80A9008A884732399E1
:104EC00041730F993820014008A801730721C1736D
:104ED000002505746846007AC00708D02048694656
:104EE000088200E02AE003A924A8FFF7EFFD684646
:104EF000007A8006800F07D019486946401E088254
:104F000003A924A8FFF7E2FD6846007A00060AD547
:104F1000292109026846018208A84473057303A980
:104F200024A8FFF7D3FD259801881298401C081883
:104F300082B2002001F038FE0020ADE6022213A963
:104F4000C01C03F05CFF2846022213A9083003F0BE
:104F500056FF388B401D53E78003002003280000D4
:104F600003290000FFB55248E322006887B0D20051
:104F70008218069210AA109B0126169F9288012B78
:104F800004D14C4B9A4201D1A030067B069D344699
:104F90004035688B2B8B7C43C31A099820300390D3
:104FA000A34222DA48200BB0F0BD2320405C012848
:104FB00019D108896C46208098420CD03D4C641E63
:104FC000A04208D0641CA04205D0641CA04202D0BC
:104FD000A41CA04207D1374CFF3CA04201D0904214
:104FE00001D16220DFE7096801E029231B02039851
:104FF0008142DAD109981B99846918982246FDF7F5
:10500000ECFE4228CFD01C98012804D11598874285
:1050100001D24220C7E71598E083204620301C9932
:105020000590817027840A98808B401CA08310987B
:10503000012814D02046102211A9083003F0DFFE09
:1050400005991098C8700698298B406D4018A0618A
:10505000298B384670430818288300250FE011A8D3
:105060000FC808340FC4183CEAE72846A169784302
:105070000818159A179903F0C2FE6D1CEDB2B542DF
:10508000F3D30599189848710599199808710599ED
:105090001A98887109982146183003F0F4FB2146CC
:1050A000039803F0D1FB0798A18B018000207AE7D9
:1050B0008003002002290000FFB58FB014460E784F
:1050C000102205A8891CFBF74AFA5048E321006822
:1050D000C900451800F026FB00281ED1002C57D02F
:1050E000012E09D16846808A4949884204D1284660
:1050F000A968083081424BD12846103029690390B5
:10510000814209D00AA9284603F094FB6846018D24
:10511000601E0D90814202D2482013B0F0BD284697
:1051200008300CA9049003F085FB6846008E002827
:1051300014D0EF680AA93846183003F07BFB3846D4
:1051400020300CA903F076FB6846398D008D0918D4
:105150006846008E401C081887B200E00127012035
:105160000004C01BA04201D26120D6E72C69286848
:1051700001901298012802D0022803D008E00520EF
:10518000C00200E023486085012E03D0022E05D026
:105190004220C2E720460830022202E020460830C2
:1051A000102205A903F02BFE20463146203006468A
:1051B00001730F98214607802785039803F063FB4E
:1051C0002146049803F040FB27461837E7616662E2
:1051D000A76126620D9884B20BE02846019903F07E
:1051E00052FB3846019903F02FFB2868641EA4B2D5
:1051F0000190002CF1D10F9801880D98081882B207
:10520000002001F0D1FC002087E70000800300208F
:105210000118000001280000FEB58C68CD88267BAF
:10522000012E01D00020FEBD4126052D01D01E70AB
:1052300019E0247C0A2C00D01E70002A0DD0896849
:10524000052268460C3103F0DAFD6D1E00AAA9B2F2
:1052500032200132FFF708F905E000880A460146CE
:10526000022008F0C1FE4120FEBD10B5102100F063
:1052700017FD10BDFFB589B0074646261D781022E0
:10528000991C05A8FBF76BF9012D04D0022D02D063
:1052900042200DB0F0BD3846FDF7A0FF040037D026
:1052A00020223946002003F09BFF07002FD0194829
:1052B0006946088001200490394620460B9B0A9AD3
:1052C000FDF77CFA060004D00021384603F0E4FF25
:1052D0001EE00B98A081A068012D0FD0102205A917
:1052E00003F08DFD257101212069490308432061E8
:1052F0000948A0613846FFF739FB09E01022074949
:1053000003F07DFDA068022205A90C30E8E76426C1
:105310003046BEE7032800006B520410086E0510EB
:1053200002460948E3210068C9004118886808312D
:1053300003E0038D934202D200688842F9D188428B
:1053400000D100207047000080030020034610B504
:105350000F48E3210068C90041188868083103E05C
:10536000148D9C4203D8104602688A42F8D18A42C2
:105370000CD1018D994209D20146026A20318A423C
:1053800003D0416A898B994200D2002010BD0000F1
:1053900080030020024610B50B4812050168052065
:1053A0004002081843690020120DA031097B07E074
:1053B00044011C5B2405240D944203D0401CC0B260
:1053C0008142F5D810BD000080030020F7B50546E6
:1053D0001746019809F03AF92E050446360D0CE0FF
:1053E000A0882568B04207D12146019809F07BF9D1
:1053F0003946204603F050FF2C46002CF0D1FEBD6C
:10540000F0B58BB0002064490290E3200A68C00028
:10541000141872B610464030C57902231D43C57179
:1054200062B625464035287AC0077DD00520400267
:105430001018002647694AE071017A5A002A44D0C0
:10544000C919069109694A021FD48A0227D5022187
:1054500004910699012309880905090D03911B216F
:1054600089014118C97E89070FD51121C90108306A
:1054700040182322806F022108F03AFB010004D07B
:10548000039A8A80049808F01FFB06980088009011
:10549000069800F0C9F8009806F09CFC15E0480753
:1054A00013D5069800880005000D06F06FFC002853
:1054B00005D1069800880005000DFDF79BFC0699B4
:1054C00004200969814306980161761CF6B23248CE
:1054D000AC210068095CB142AED805F093F92046D2
:1054E0002430064609F0F8F8012802D0012005F022
:1054F0008BF82046183009F0EFF8012802D0002080
:1055000005F082F83C34204609F0E6F801280FD077
:1055100002A9204609F009F90420029901F03CFD96
:105520000028F0D0204600E034E0029909F0ABF802
:10553000287A00062ED5304609F0CEF8012829D168
:10554000002003F029FEA98B23314909491CC9B267
:10555000FBF7D0F800281DD00F4D04462868112114
:10556000C90108304018422601233822806F314695
:1055700008F0BEFA01000DD000228A80CC803046AF
:1055800008F0A2FA3B212A68490151180A788020C4
:1055900082430A700BB0F0BD80030020FFB589B0D4
:1055A000074646251E781022991C05A8FAF7D7FF52
:1055B000012E04D0022E02D042200DB0F0BD38469C
:1055C000FDF70CFE040024D020223946002003F011
:1055D00007FE07001CD005AD04960FCD6D460FC524
:1055E000394620460B9B0A9AFDF7E8F8050004D0DF
:1055F0000021384603F050FE0BE0012120694903E9
:10560000084320610448A0613846FFF7AFF900E085
:1056100064252846D1E700001D56041010B550211E
:1056200000F0D2FC10BD0000F0B504463C48E32178
:105630000068C9004518218A85B089041AD502215D
:1056400004911B2189014118497F412627880123A4
:10565000C9070FD01121C901083040183122806FCD
:10566000022108F045FA010004D08F808E71049861
:1056700008F02AFA2946208801221831FFF7A6FEF1
:105680002946208801223031FFF7A0FE29462088D4
:1056900001222431FFF79AFE2946208800223C315E
:1056A000FFF794FE20880005000DFFF773FE8500CC
:1056B000294611316846017307F0EAFB2946123189
:1056C0006846017307F0E4FB29461331684601730D
:1056D00007F0DEFB68461435057307F0D9FB208818
:1056E00000F028FA208801050D48090D0268052000
:1056F00040021018028F914201D100210187E06918
:10570000002802D0012103F0C7FD202200212046FD
:10571000A56803F078FB1720A560608005B0F0BD98
:105720008003002010B50B48E3210068C90044182D
:105730004034207AC00709D0002003F02DFD217AE3
:10574000890701D5002803D0002010BD472010BDD7
:10575000642010BD80030020F0B55FA099B0006800
:105760005E491590E3220868D2008418052252028F
:10577000821852692546403514922A7AD20702D0FF
:10578000622019B0F0BDAA8B01235B029A4201D9B5
:10579000AB8303E0172A01D21722AA83149AA03000
:1057A0001392067B0DE0761EF6B2139871010F1866
:1057B000B8680F9038462022002103F024FB0F9890
:1057C000B860002EEFD120460830E0606460A06031
:1057D00024600830139060612061FF2200210830AE
:1057E00008F049FF2046FF220021243008F043FF43
:1057F0002046AA7F0021303008F03DFF2046FF22DE
:1058000000213C3008F037FF00222A721046172191
:10581000324B05E0149E4701BE19401C7180C0B296
:105820001E68A036367B8642F4D8002028832F8C51
:10583000688C0026149008E02820E16C7043091859
:10584000204603F001F8761CB6B2BE42F4D300261F
:1058500008E03020216D70430918139802F0F4FF1E
:10586000761CB6B214988642F3D30120FFF7A0F855
:105870000124684604701A4941802346042269467F
:105880000CA8FFF719FC002822D16846018E8182FE
:1058900014490183042606858475202108A8817295
:1058A0000024C472047307214173847305A90DA8F1
:1058B000FFF7BCF900280BD1684604874687818E24
:1058C00015AB0EAA008E00F043FC002800D158E76B
:1058D00000202872472054E70000FFFF80030020CB
:1058E00001180000052A0000F8B504467D480E4660
:1058F0000068E321C90047184820C05DC0077BD07D
:10590000B088FEF7D1FA0546012C02D0002C75D0E4
:10591000E6E0002D0CD0286941074AD4B268F1882E
:10592000147B0029F4D062060CD56888884201D225
:105930000121B2E0D22C01D0522CF9D138463146A7
:1059400018303FE0A106890E1E293ED81E2C21D119
:1059500001071FD50821884328612988012006F006
:10596000E1FF0121304603F097FC5E4811210068F9
:10597000C9010830401842242D8801233922806F44
:10598000214608F0B5F8010003D08D80204608F0CC
:105990009BF8A5E0E1070AD01D2C10D01B2C0ED0DF
:1059A000410529D4012189020843EE6192E0C00635
:1059B00001D54520F8BD2988002006F0A1FF384612
:1059C0003146243008F072FE8AE029882022002027
:1059D00003F006FC05000FD00121304603F05CFC0B
:1059E0002B46002221460620FCF74CFC2846FEF7F9
:1059F000BDFF75E000E001E04120F8BDB068047B28
:105A00001D2C3AD01B2C41D00021304603F044FC21
:105A1000032C46D0052C44D0072C42D0092C40D072
:105A20000B2C3ED00D2C3CD00F2C3AD0112C38D062
:105A3000132C36D0172C34D0192C32D0012C30D066
:105A4000022C35D0042C33D0062C31D0082C2FD08A
:105A50000A2C2DD00C2C2BD00E2C29D0102C27D07A
:105A6000122C25D0162C23D0182C21D0522C1FD02C
:105A7000D22C1DD01E2C2FD032E0002D03D029882F
:105A8000012006F03DFF3146022001E031460120B1
:105A900006F0C4FE002823D00021304603F0FCFBB2
:105AA0001EE029691020814329612988002015E022
:105AB0002869402188432861010511D5FF21013162
:105AC000084328612988022006F01AFF012128696D
:105AD000C9028843286103E02988032006F022FFD9
