:020000041004E6
:10000000006000201D040410D10304101903041023
:100010000000000045554C420000000000000000B8
:100020000000000000000000000000007104041047
:10003000000000000000000005040410CD040410BE
:1000400055020410E9030410000000000000000045
:10005000E50404105904041021020410FD040410E6
:100060000000000000000000000000000000000090
:1000700000000000090204104903041031030410B9
:1000800000000000610304107D03041099030410B4
:10009000B50304103D0404100104041039020410D7
:1000A0000000000000000000000000000000000050
:1000B0000000000000000000000000000000000040
:1000C00000F002F800F062F80CA030C808382418DC
:1000D0002D18A246671EAB4654465D46AC4201D180
:1000E00000F054F87E460F3E0FCCB6460126334250
:1000F00000D0FB1AA246AB46334318477C040000ED
:10010000DC040000103A02D378C878C1FAD852074C
:1001100001D330C830C101D504680C6070470000BD
:10012000F0B543464C4655465E466746F8B40E4C1D
:100130006B4623600D4C20680D4C20600D4C2068F0
:100140000D4C20600D4C20680D4C2060BFF34F8F8C
:1001500030BF054C2468A546F8BC9846A146AA467F
:10016000B346BC46F0BD00000800002004ED00E0EE
:10017000CC02002024ED00E0D002002000E200E0EC
:10018000D40200201FB51FBD10B510BD0348854621
:10019000FFF7F8FF00F0DAF900F008F8006000203F
:1001A00003B4FFF7F1FF03BC00F00AF810B50446F2
:1001B000C046C0462046FFF7F3FF10BD7047000061
:1001C00001491820ABBEFEE72600020030B58C18AE
:1001D0000278401C13071B0F01D10378401C120941
:1001E00006D10278401C03E00578401C0D70491CC4
:1001F0005B1EF9D101E00B70491C521EFBD1A142DC
:10020000E6D3002030BD000003480449006888425E
:1002100001D0406F0047FEE71000002000000410EE
:10022000034804490068884201D0806D0047FEE71A
:1002300010000020000004100448054900688842AE
:1002400002D08030C0690047FEE7000010000020A7
:1002500000000410034804490068884201D0006C83
:100260000047FEE7100000200000041070B502797E
:1002700001239B070168002A02D0062A03D007E069
:100280005A688A4303E0002202715A680A435A609E
:1002900000210F260268CA40D207D20F19D00829C0
:1002A00009D2DC6A8A0035469540AC430579954011
:1002B0002C43DC620DE00A46083A082A09D28A007B
:1002C0003546203A1C6B9540AC43057995402C434C
:1002D0001C63491CC9B21A29DCD341790129D968A8
:1002E000026809D09143D960817901299968006831
:1002F00004D08143996070BD1143F4E70143F9E7ED
:10030000012902D003490860704701218907C863A9
:1003100070470000400000400348044900688842DC
:1003200001D0C0680047FEE7100000200000041064
:10033000034804490068884201D0C06F0047FEE7C7
:10034000100000200000041003480449006888429F
:1003500001D0806F0047FEE710000020000004106D
:10036000044805490068884202D080304068004750
:10037000FEE70000100000200000041004480549BA
:100380000068884202D0803080680047FEE70000A5
:10039000100000200000041004480549006888424D
:1003A00002D08030C0680047FEE700001000002047
:1003B00000000410044805490068884202D08030DB
:1003C00000690047FEE70000100000200000041054
:1003D000034804490068884201D080680047FEE76E
:1003E00010000020000004100348044900688842FF
:1003F00001D0406C0047FEE7100000200000041010
:1004000070470000034804490068884201D0806BAF
:100410000047FEE7100000200000041010B500F0B7
:1004200079F8012805D0044880F3088800F08EF898
:1004300010BDFFF745FE10BD0060002004480549CF
:100440000068884202D0803040690047FEE7000023
:10045000100000200000041003480449006888428E
:1004600001D0406D0047FEE710000020000004109E
:10047000034804490068884201D0C06A0047FEE78B
:1004800010000020000004101CB50121084600F0F7
:1004900011F8022000900620694608710120887139
:1004A00048716846FFF7E2FE01210220FFF728FFAE
:1004B0001CBD0000044A0129116A02D08143116267
:1004C00070470143FBE700000000904003480449E7
:1004D0000068884201D0C06B0047FEE71000002092
:1004E00000000410034804490068884201D0006DF0
:1004F0000047FEE7100000200000041003480449F4
:100500000068884201D0C06D0047FEE7100000205F
:100510000000041010B50949002008600848007A5E
:10052000002809D107480089052805D90649012076
:100530000870FFF70EFEFEE7012010BDD802002074
:1005400000009040000010480C000020FFF79CFFC6
:1005500006480168002907D001680548416800681D
:1005600080F308888847FEE70248F7E70400002088
:100570000008041000980610D80504100800002098
:100580000400000004010410DC0504100C0000202D
:100590000400000004010410E00504101000002015
:1005A0000400000004010410E405041030000020E1
:1005B0000400000004010410E8050410C00000203D
:1005C0000C020000CC010410F0050410CC02002045
:1005D00010000000040104100000000000000000F2
:1005E000000004100000000001FF01FF01110000E5
:1005F00000000000000000000000000000000000FB
:1008000000600020A1D60510ADBC051041FF04100A
:10081000AA5555AA45554C420000000000000000B2
:1008200000000000000000000000000025F405109A
:100830000000000000000000C5BF0510DDF7051036
:100840008FD5041091BD05100000000000000000CD
:100850004DFC05100BF40510098104104902061027
:100860000000000000000000000000000000000088
:1008700000000000A76E041057FF041055FF04107D
:1008800000000000B32A0510B52A0510BD2A051086
:10089000BF2A0510C1D60510E1BD051095BE041094
:1008A0000000000000000000000000000000000048
:1008B0000000000000000000000000000000000038
:1008C00000F002F800F093F80CA030C808382418A3
:1008D0002D18A246671EAB4654465D46AC4201D178
:1008E00000F085F87E460F3E0FCCB6460126334217
:1008F00000D0FB1AA246AB4633431847907602005D
:1009000010770200103A02D378C878C1FAD852079B
:1009100001D330C830C101D504680C6070470000B5
:100920000023002400250026103A01D378C1FBD80B
:10093000520700D330C100D50B607047F0B5434675
:100940004C4655465E466746F8B4104C6B462360ED
:100950000F4C20680F4C20600F4C20680F4C20601B
:100960000F4C20680F4C2060BFF34F8F30BF074CF7
:100970002468A546F8BC9846A146AA46B346BC469C
:10098000F0BD00BF30BF00BF70470000080000206E
:1009900004ED00E06403002024ED00E06803002083
:1009A00000E200E06C03002010B5662902D125F0BA
:1009B0006DFD10BD642902D103F0E0FF10BD782960
:1009C00002D104F039F810BD732902D105F093F972
:1009D00010BD002010BD1FB505F0BAFC04000020BA
:1009E000002125F003FCE0601FBD10B510BD0448D8
:1009F0008546FFF7F0FF23F0F7F906F05FF80000F7
:100A00000060002003B4FFF7F0FF03BC06F000F91C
:100A100070B505460C46164602E00FCC0FC5103ED9
:100A2000102EFAD2082E02D303CC03C5083E042EA2
:100A300007D301CC01C5361F03E021782970641C5F
:100A40006D1C761EF9D270BDF0B513000022002592
:100A50009E1003E0AB00C458CC506D1CB542F9DBCE
:100A60004E4B042E05D0062E2DD0082E6FD0F0BD93
:100A70001031CD680E682802000E185C00062F04A5
:100A80003F0EDF5D3F040743E8B2185C00023843C5
:100A90002D0E5D5D0543754041A09600805968406C
:100AA0000861521C0125A8000818C668076877402D
:100AB00007616D1C042DF6DB0A2AD9DBF0BD6D1C25
:100AC000062D1ADB18314D690E682802000E185CDD
:100AD00000062F043F0EDF5D3F040743E8B2185CB9
:100AE000000238432D0E5D5D054375402CA0960035
:100AF000805968408861521C0125A8000818466981
:100B0000076877408761032DD9D1082AD7DBF0BD6C
:100B1000CD6A08692E0E9E5D37062E02360E9E5D4A
:100B200036043E432F043F0EDF5D3F023743EDB2F4
:100B30005D5D3D4345400D630525A8000818C66965
:100B40000768774007626D1C082DF6DB2031CD6900
:100B50000E682802000E185C00062F043F0EDF5DB1
:100B60003F040743E8B2185C000238432D0E5D5D78
:100B7000054375400AA09600805968400862521CDF
:100B80000125A8000818C6690768774007626D1C30
:100B9000042DF6DB072ABBDBF0BD0000E40F0410D8
:100BA0000000000100000002000000040000000836
:100BB0000000001000000020000000400000008045
:100BC0000000001B00000036F8B5030000240DE013
:100BD000A5005E1930780706707800043843B778AE
:100BE0003F020743F07838434851641C9010844218
:100BF000EEDB0800FFF728FFF1BD0000F2B58EB074
:100C0000D910C91C0491016813684B4001934168D5
:100C100053684B400093836891685940C068D3681B
:100C20004340EE485BE023041B0E9B00C358AD001D
:100C30004559B6008659BF00C759BC460827FD4133
:100C400067467D401027FB416B401825EE415E4012
:100C50000D9B734001930C9B9B00C35825022D0EE6
:100C6000AD0045590B9EB6008659890041580827AA
:100C7000FD414D401021CB416B401821CE415E40DB
:100C80005168714000910A9989004158099B9B0065
:100C9000C358089DAD004559260EB6008659FB4144
:100CA00073401026F14159401823DD414D409168B1
:100CB0006940079B9B00C358069DAD00455924061B
:100CC000A40D0459059EB6008659FD4175401026B5
:100CD000F3416B401825EC415C40D36863400C0441
:100CE000240EA4000459009D2D022D0EAD0045597F
:100CF0001E06B60D8659019F3F0EBF00C759BC4660
:100D00000827FD4167467D401027FC416C401825AF
:100D1000EE4166401469744002941C04240EA40041
:100D200004590D022D0EAD004559019E3606B60D33
:100D30008659009F3F0EBF00C759BC460827FD419A
:100D400067467D401027FC416C401825EE41664007
:100D5000546974400394019C2404240EA400045993
:100D60001D022D0EAD004559009E3606B60D865962
:100D70000F0EBF00C759BC460827FD4167467D409E
:100D80001027FC416C401825EE4166409469744080
:100D9000009D2D042D0EAD004559019E3602360EE4
:100DA000B60086590906890D41581B0E9B00C35891
:100DB0000827FE415E401023DD4175401823D941CC
:100DC0006940D3694B40009320320499491E049135
:100DD00003990904090E079102990902090E069167
:100DE0000099090E059102990904090E0A910099CA
:100DF0000902090E099100990904090E0C91039941
:100E0000090E039B1D022D0E029B1F0E039BDBB2DE
:100E10000893029BDBB20B9313680D93009EF6B20E
:100E2000049B012B00DBFEE66EA0C35D1B06455D47
:100E30002D041D4323041B0EC35C1B022B43855D45
:100E40001D430D9B6B400E9D2B60415C09062302E8
:100E50001B0EC35C1B040B430C99415C0902194334
:100E60000B9BC35C0B43516859400E9B5960210E8C
:100E7000415C0906099BC35C1B040B430A99415C56
:100E800009021943089BC35C0B43916859400E9BB0
:100E900099600599415C0906069BC35C1B040B43E2
:100EA0000799415C09021943E4B2005D0843D16827
:100EB00041400E98C1600FB0F0BD0000F4B50C00C9
:100EC000FFF782FE012000BF46A1454A7DE01034B5
:100ED00027683B041B0ECB5C9B00D3583D022D0EB4
:100EE0004D5DAD005559FEB28E5DB60096593F0E70
:100EF000CF5DBF00D759BC460827FD4167467D40FE
:100F00001027FB416B401825EE415E402660676864
:100F10003B041B0ECB5C9B00D3583D022D0E4D5D58
:100F2000AD005559FEB28E5DB60096593F0ECF5DAD
:100F3000BF00D759BC460827FD4167467D401027B2
:100F4000FB416B401825EE415E406660A7683B049C
:100F50001B0ECB5C9B00D3583D022D0E4D5DAD00AA
:100F60005559FEB28E5DB60096593F0ECF5DBF005B
:100F7000D759BC460827FD4167467D401027FB41F5
:100F80006B401825EE415E40A660E7683B041B0EEF
:100F9000CB5C9B00D3583D022D0E4D5DAD005559E5
:100FA000FEB28E5DB60096593F0ECF5DBF00D75999
:100FB000BC460827FD4167467D401027FB416B403A
:100FC0001825EE415E40E660401C009BDB10DB1CF8
:100FD0005B00984200DA7AE7F1BD000074770610F2
:100FE000747B0610637C777BF26B6FC53001672BD7
:100FF000FED7AB76CA82C97DFA5947F0ADD4A2AF0D
:101000009CA472C0B7FD9326363FF7CC34A5E5F11A
:1010100071D8311504C723C31896059A071280E2C8
:10102000EB27B27509832C1A1B6E5AA0523BD6B31C
:1010300029E32F8453D100ED20FCB15B6ACBBE398C
:101040004A4C58CFD0EFAAFB434D338545F9027F78
:10105000503C9FA851A3408F929D38F5BCB6DA2131
:1010600010FFF3D2CD0C13EC5F974417C4A77E3D5D
:10107000645D197360814FDC222A908846EEB814B3
:10108000DE5E0BDBE0323A0A4906245CC2D3AC6276
:101090009195E479E7C8376D8DD54EA96C56F4EA81
:1010A000657AAE08BA78252E1CA6B4C6E8DD741F92
:1010B0004BBD8B8A703EB5664803F60E613557B955
:1010C00086C11D9EE1F8981169D98E949B1E87E90F
:1010D000CE5528DF8CA1890DBFE6426841992D0FBE
:1010E000B054BB16F2B58CB0D910CB1C0493490197
:1010F0005318603301681A684A40029241685A687E
:101100004A400192826899685140C068DA6842405A
:10111000A64866E025042D0EAD0045590095150240
:101120002D0EAD00455989004158B6008659FD4144
:101130007540AC46009E1025EE4165466E40182570
:10114000E94171400B9D4D4002951104090E890043
:1011500041580A9DAD0045592606B60D8659099F8E
:10116000BF00C759BC460827FD4167467D40102790
:10117000F94169401825EE414E405968714001918E
:10118000089989004158079DAD0045591606B60DCE
:101190008659270EBF00C759BC460827FD41674640
:1011A0007D401027F94169401825EE414E4099686D
:1011B0007140069DAD0045592402240EA400045937
:1011C000059EB6008659120E920082580827FC41EF
:1011D00054401022D54165401822D6416E40DA684D
:1011E0007240203B0C04240EA400045915022D0E5D
:1011F000AD004559019E3606B60D8659029F3F0E39
:10120000BF00C759BC460827FD4167467D401027EF
:10121000FC416C401825EE4166401C697440009406
:101220001404240EA4000459029D2D022D0EAD00BD
:1012300045590E06B60D8659019F3F0EBF00C7598E
:10124000BC460827FD4167467D401027FC416C40A5
:101250001825EE4166405C6974400394029C2404A6
:10126000240EA4000459019D2D022D0EAD004559F8
:101270001606B60D86590F0EBF00C759BC46082783
:10128000FD4167467D401027FC416C401825EE412A
:1012900066409C697440019D2D042D0EAD0045599A
:1012A0000902090E89004158029E3606B60D86597C
:1012B000120E920082580827F94151401022D54160
:1012C0004D401821CE416E40DA6972400499491EA2
:1012D000049103990904090E069100990904090E65
:1012E000089103990902090E079100990902090E54
:1012F0000A910399090E099100990E0EC9B2059140
:1013000019680B910399C9B2049D012D00DB01E717
:1013100027A0855D2D061602360E865D36042E4307
:1013200025042D0E455D2D023543415C29430B9D5F
:101330004D400C990D600999415C0D060A99415C7C
:101340000904294315042D0E455D2D020D43E1B21C
:10135000415C29435D684D400C994D60210E415C14
:101360000D060799415C09042943089D455D2D023E
:101370000D43D1B2415C29439D684D400C998D606D
:10138000110E415C09062202120E825C12040A430D
:101390000699415C09021143059A805C0843D968AB
:1013A00041400C98C1600DB0F0BD0000747B061088
:1013B00052096AD53036A538BF40A39E81F3D7FBCA
:1013C0007CE339829B2FFF87348E4344C4DEE9CB14
:1013D000547B9432A6C2233DEE4C950B42FAC34E89
:1013E000082EA16628D924B2765BA2496D8BD1253F
:1013F00072F8F66486689816D4A45CCC5D65B692E3
:101400006C704850FDEDB9DA5E154657A78D9D8486
:1014100090D8AB008CBCD30AF7E45805B8B34506A6
:10142000D02C1E8FCA3F0F02C1AFBD0301138A6BC0
:101430003A9111414F67DCEA97F2CFCEF0B4E673F0
:1014400096AC7422E7AD3585E2F937E81C75DF6E9E
:1014500047F11A711D29C5896FB7620EAA18BE1B04
:10146000FC563E4BC6D279209ADBC0FE78CD5AF4AA
:101470001FDDA8338807C731B11210592780EC5FF0
:1014800060517FA919B54A0D2DE57A9F93C99CEF4C
:10149000A0E03B4DAE2AF5B0C8EBBB3C835399614D
:1014A000172B047EBA77D626E169146355210C7D8B
:1014B00080B5FFF7A3FB01BDF4B582B00C00002896
:1014C00008D0002C06D00621002A06D106221A4098
:1014D000022A02D0C2200001FEBD426A102A03D0B7
:1014E000182A01D0202A07D106221A40022A05D044
:1014F0000269521E102A01D38448FEBD029AC260BE
:101500000279F9251540057106221A40022A20D0D9
:1015100002001432002500260027E0C215600022D8
:1015200014E05510AD0FAD18AD10AD004619776938
:101530000097029FBF5CBC461827551BED007D1B22
:101540006746AF40009D2F437761521C0569AA4250
:10155000E7DB0279D20712D48460DA0702D519409A
:10156000062906D1426A010028312000FFF72CFB32
:1015700005E0426A010028312000FFF79FFC0020AF
:10158000FEBD80B50223FFF797FF02BDB8B50EB4CC
:1015900084B0050006D0002904D0002B02D00C989E
:1015A000002802D1C220000145E0002A01D4100722
:1015B00001D057483FE02879800701D555483AE0E7
:1015C000002430E000218A000498A318C31818787A
:1015D00007065878000438439F783F020743D878BD
:1015E00038436B469850491C0429ECDB6B6A2A008F
:1015F000283269466846FFF75BFF00208100069AA3
:101600006318D2186B4659180B68D3700B681B0A05
:1016100093700B681B0C53700968090E1170401C05
:101620000428EBDB10340599200010308142C9DA20
:101630000C980460002008B0B0BD002801D0002A3A
:1016400002D1C220000170476DE080B50323FFF78F
:1016500033FF02BDFAB585B006001500002E06D096
:10166000002904D0002B02D00C98002802D1C220FF
:10167000000149E0002D06D4E810000F40190011C8
:101680000001281A01D022483EE03079800701D5B8
:10169000204839E0002430E000218A000598A31892
:1016A000C318187807065878000438439F783F021B
:1016B0000743D87838436B469850491C0429ECDB23
:1016C000736A3200283269466846FFF70BFD002036
:1016D0008100069A6318D2186B4659180B68D370AC
:1016E0000B681B0A93700B681B0C53700968090E7A
:1016F0001170401C0428EBDB1034200010308542B0
:10170000CADA0C980460002007B0F0BD1F0C00007E
:101710001D0C00001E0C0000002801D0002A02D180
:10172000C22000017047017902230B43037100209E
:1017300010607047F0B585B005000E00170001A8D5
:10174000102103F01AFB002D03D0002E01D0002F32
:1017500002D1C2200001CFE02C1DA06B011F0D297A
:101760000CD2C0070AD4E068C01F072806D2206B3D
:10177000102805D0182803D0202801D0D348BBE07A
:10178000A7602178E92008402070C00706D4666071
:10179000226B290048313000FFF716FA0727A06BAB
:1017A000801E8000382202400F20E168411AC9B231
:1017B000491E39401143E06B002802D00800402147
:1017C0000143A0680906027812040A43417809021D
:1017D0001143807808430190A068C1780906027916
:1017E00012040A43417909021143807908430290A7
:1017F000072017E0C11F01AA4B109B0F5918891031
:10180000890051188A680092A268135C9C461822CD
:10181000C31FDB001E40921B63469340009A134394
:101820008B60401C1826E1688842E3DB0498216C39
:1018300001430491236B2A0048322900243101A876
:10184000FFF736FEA0680E21E268891A07220A40D7
:101850001206017809041143427812020A43807883
:1018600010432061A068C1780A0601790904114378
:10187000427912020A438079104360610020A0611E
:10188000E06114E0F81F4110890F081880108000F3
:101890002818C1690091A168CB5DF91FCA00182101
:1018A0001140711A8B4000990B43C3617F1CE068A3
:1018B0008742E7DBE06901210143E161E06B002839
:1018C00019D02800F83000210022002300252EC066
:1018D0001038E16BFF221202914203DA0904016021
:1018E000022107E0090C7A4A0A430260E16B09040D
:1018F000416006210161002005B0F0BDF6B583B05E
:10190000040000260025002C01D0002902D1C220AD
:101910000001D8E020791221084201D06D48D2E0C0
:10192000002A00D1CEE0201DC06B801A211DC863A3
:1019300084204000205815E04110890F09188910B3
:1019400089006118F8310A680092039A575DC30054
:1019500018221A4018239A1A9740009A17430F60CA
:101960006D1C401C049984225200A2588918102929
:1019700000D310218842DFDB0020810061184A6A11
:10198000F823CB5853404B62401C0428F5DB201D44
:10199000036B220048322100243120002430FFF75D
:1019A00087FD84204000265022E000208200039919
:1019B000AB18C918A218536A9C460B781F064B78BF
:1019C0001B043B438F783F021F43C978394363466A
:1019D00059405162401C0428E8DB201D036B2200A3
:1019E00048322100243120002430FFF761FD1035FA
:1019F0000499280010308142D7DA8D4262DA2079CA
:101A000010210143217100200499491B02910EE02D
:101A10000399019BCB1819780F06597809043943AB
:101A20009F783F020F43D97839431160401C029BD5
:101A300081006218F8326F1801975F10BF0FFB1812
:101A40009B109842E4DB166000230FE015680095B8
:101A5000039F019DED187F5DBC461827DD007D1BAF
:101A60006746AF40009D2F4317605B1C029D6D1AB7
:101A7000AB42EBDBC91884225200A150401C042861
:101A800007DA0421091A890080002018F83003F0D1
:101A900072F9201DC06B002814D1810061180A0062
:101AA000F8321368496A59401160401C0428F4DB7D
:101AB000201D036B22004832210024312000F83021
:101AC000FFF7F6FC002005B0F0BD00001F0C000081
:101AD0000000FEFF1E0C0000FEB58EB0050006A83B
:101AE000102103F04AF9002D08D00E98002805D0E7
:101AF0001098002802D01698002802D1C2200001B8
:101B0000F6E028790621084201D07A48F0E0002466
:101B100048E0002081000E9A6318D21813781E0640
:101B200053781B043343967836021E43D2783243EF
:101B30000AAB5A5069184B6A5A404A62401C042842
:101B4000E8DB6B6B2A00483229002431280024305E
:101B5000FFF7AEFC6B6B2A00483206A92800143050
:101B6000FFF7A6FC286A401C286200208100109A1A
:101B70006318D2180AAB5B5806AE71180E681F00C6
:101B80007740D7700E685E40360A96700E685E40E9
:101B9000360C567009684B40190E1170401C042811
:101BA000E4DB10340F99200010308142B1DA8C420E
:101BB00000DB99E0287904210143297100230F9863
:101BC000001B029013E00E98059BC01803781E06B8
:101BD00043781B043343867836021E43C078304373
:101BE000019B1860496A4140049801601300029803
:101BF0004110890F081880100390980006A9091851
:101C0000049129180AAA12180192221805925A1C46
:101C1000039EB342D7DB0023019E33600FE00096A2
:101C20000E9F059EF618BF5DBC461827DE00BE1B42
:101C30006746B740009E7740019E37605B1C019E5F
:101C40003668029F3F1ABB42E9DB486A704004993C
:101C5000086008E0900000210AAB19502918496A71
:101C600006AB1950521C042AF4DB6B6B2A00483275
:101C70002900243106A8FFF71BFC6B6B2A004832B1
:101C800006A928001430FFF713FC002011E0109A79
:101C9000D21833006B40D3700B6873401B0A9370EB
:101CA0000B6873401B0C537009684E40310E117065
:101CB000401C82000AA98E5806A989180D68A3182D
:101CC000039FB842E3DB6E400E60002008E00C6822
:101CD0001825C600AD1BEC40109D1E18AC55401CCD
:101CE000029CA41AA042F2DB0F981699086000200B
:101CF00011B0F0BD1E0C0000F0B585B004000D0061
:101D000016006846102103F038F8002C03D0002D8F
:101D100001D0002E02D1C220000129E02079022149
:101D2000014321716946200000F084F90020002160
:101D30008B006A46D2181768E3185B6A7B40136011
:101D4000491C0429F4DB0EE069464210920F121878
:101D5000921092008A581821C30018271F40C91BEF
:101D6000CA402A54401CE16B8842EDDB3160002000
:101D700005B0F0BD80B5FFF7DDFC02BDFEB58EB04D
:101D8000050009A8102102F0F8FF002D08D00E98D8
:101D9000002805D01098002802D01698002802D1FB
:101DA000C2200001DBE028790621084201D09F48CB
:101DB000D5E0002441E06B6B2A00483209A92800D5
:101DC0001430FFF775FB286A401C28620020810050
:101DD000621800920E9A009BD21809AB5B181E681D
:101DE000B44616783706567836043E4397783F0255
:101DF0003743D2783A43664672401A60109E009F7D
:101E0000F619F2701A68120AB2701A68120C72701F
:101E10001A68120E32701A686B185B6A534005AA72
:101E20005350401C0428D2DB6B6B2A004832290037
:101E3000243105A8FFF73CFB10340F992000103027
:101E40008142B8DA8C4200DB85E028790421014325
:101E500029716B6B2A00483209A928001430FFF75A
:101E600027FB00200F99091B049124E00E9B039E81
:101E70009B190E68B4461E7837065E7836043E43DA
:101E80009F783F023743DB783B43664673400B60E5
:101E9000109E039FF619F3700B681B0AB3700B6852
:101EA0001B0C73700B681B0E33700968526A4A4032
:101EB00002990A60401C049E830005A9C91802917A
:101EC000EA18E118039109A9C9187710BF0FBE19C4
:101ED000B610B042CADB526A029C2260002424E0A1
:101EE0006A461826E700F61B1671039A121900922B
:101EF0000A680E9E009FF65D6F463F79BE405640D1
:101F00000E606A461279D640109A009FD655029A02
:101F100012680E686F463F79FE40F6B26F463F7911
:101F2000BE405640029A1660641C049AD21A94422B
:101F3000D6DB401C05AB04E081006A18526A5A5097
:101F4000401C0428F8DB6B6B2A004832290024313E
:101F500005A8FFF7ADFA0F9816990860002011B098
:101F6000F0BDF0B585B0060017006846102102F0FC
:101F700004FF00240025002E01D0002F02D1C22032
:101F8000000151E0B06B002802D0F06B112801D3A2
:101F9000274849E03C6030790221014331716946AC
:101FA000300000F047F8002083006946C9180A682D
:101FB000F3185B6A53400B60401C0428F4DB0021DB
:101FC00011E0B06BC21828006D46EF5813781B065D
:101FD00055782D041D4393781B022B43D5781D4360
:101FE0007D400543491CF06B8B004210920F101886
:101FF00080108142E5DB0DE06846C1581820E20000
:10200000801AC140C9B2B06BE218805C48402843D6
:102010000500641CF06BC01A8442EDDB002D01D179
:10202000CC4801E0FB20800005B0F0BD1E0C000094
:102030001F0C000038B502690C2A09DB036A002472
:10204000E4430F25AA1AD20094401C40046201E028
:1020500000220262436B020048321430FFF728FA74
:1020600031BD38B5040002D1C220000132BD0223C7
:102070000022A168FFF720FA002808D11021216171
:102080002100143100220023002400253CC132BD70
:10209000F6B58DB0040000260025002C03D00029E1
:1020A00004D1012A02DBC22000011BE1002A04D472
:1020B0002079102A03DA810601D4A74812E106210B
:1020C000084201D0A5480DE14021014321711EE0E5
:1020D00000218A000D98AB18C318187807065878A5
:1020E000000438439F783F020743D8783843A31849
:1020F0005B69434008A88350491C0429E9DB636AF3
:102100002200283221001431FFF7D2F910352800BF
:1021100010300E998842DBDB2079800620D401291B
:102120001EDBB0000D992A1889180A7813064A7820
:1021300012041A438B781B021343C97819432218DF
:1021400052694A4008A90A50761C042EE9DB636AEA
:10215000220028322100143108A8FFF7A9F9C0E0B5
:1021600002A8102102F009FE636A2200283202A9A7
:1021700002A8FFF79DF90298C00F872148430399F1
:10218000029A5200CB0F13430293049A4900D30FD3
:102190000B43009300990391059B5200D90F114303
:1021A00004915A00504002000592280010300E9B06
:1021B000984219D1B0000D992A1889180A78130687
:1021C0004A7812041A438B781B021343C9781943C7
:1021D000221852694A4002A90958514008AA1150D0
:1021E000761C042E71DAE5E70298C00F8723584366
:1021F000029B5B00009FFF0F1F430297009B5F0045
:10220000CB0F3B4303934900D30F0B43049351007F
:102210004840059000210E98401B079011E00D9852
:1022200082181078070650780004384397783F02E8
:102230000743D0783843434006985840019A1060CD
:10224000491C0798009088002018436902A88A005A
:102250008058069008A88018019088002A180098D5
:102260004010800F009FC01980108142D7DB069874
:102270005840019B186007E00D9D9719ED5D9D404A
:10228000454001980560761C1820F300C31A019898
:102290000068079D8F00ED1BAE42EDDB002E02D0E3
:1022A00080229A4001E0802212064240019802609A
:1022B0004E1C08E0B0002118496902AA12584A4091
:1022C00008A90A50761C042EF4DB636A2200283227
:1022D0002100143108A8FFF7EBF82079042101430D
:1022E000217100200FB0F0BDF8B504000E001500FC
:1022F000002C01D0002D02D1C2200001F2BD270028
:10230000DC373868401E102801D37A48F2BD2079A6
:10231000400604D4002200212000FFF7B9FE2079F6
:1023200002210143217100200EE04110890F09189C
:102330008910890061184B69C200182111401822C8
:10234000511ACB403354401C39688842EDDB296078
:102350000020F2BDEB0300001D0C00001E0C00006D
:1023600080B5FFF77EFE02BD80B5FFF791FE02BD8E
:10237000F1B582B000250024002801D0002A02D146
:10238000C2200001FEBD156002980079400604D409
:10239000002200210298FFF77BFE029800790221BB
:1023A0000143029801710299D8314868401E1028F3
:1023B00001D35048FEBD002210E00868C318200079
:1023C00077691C7826065C78240434439E783602AC
:1023D0002643DC7834437C400443521C4868009018
:1023E00093000298C61800984010800F009FC019F3
:1023F00080108242E1DB0CE072691820EF00C01B04
:10240000C240D2B20868EF18C05D504020430400BB
:102410006D1C4868C01A8542EEDB002C01D136489D
:10242000FEBDFB208000FEBD30B5D38894888D00B2
:102430005D190C35AC4201D2304830BD1468E31848
:1024400003601800083018609971D08889000C3139
:102450004018D080002030BD0268002A09D0002931
:1024600007D0CB88927992009A1A0C3ACA80002140
:102470000160704770B501230124002203E0056864
:10248000A600AA51641CA4B285796D1CAC42F6D397
:102490008380002903D4C2710068016070BDC371DC
:1024A0004A420068026070BDF8B502009588009548
:1024B000002300208E79AE4203D2B748761CAE428C
:1024C00017D3D479CC71009C8C80002405E0A50042
:1024D000166876590F687E51641C009DAC42F6DB8D
:1024E0008A79521C944204DA0A68A5005351641C8C
:1024F000F6E7F2BD1F0C0000EB030000ED03000047
:102500008188012905D100680068002801D10120D7
:1025100070470020704710B500210022C27103E00F
:10252000036894001951521C92B283795B1C9A4241
:10253000F6D30121818010BD07214056012800D02B
:102540000020704700680078C107C90F481E80410D
:10255000C00F7047F3B581B0084607214156019876
:1025600007228056884245D10121019A92886B4604
:102570005A80029A92881A806A4612885B889A4228
:1025800002D200282CD02DE01A466B461B889A42B6
:1025900002D200282CD129E06A4612886B465B885B
:1025A000029C2468019D2D685E1AB600AE59571A28
:1025B000BF00E759BE4204D18B4202D3491C8B4273
:1025C000EAD24E1E9E4201D10020FEBD521A920058
:1025D000A258591A890069588A4205D2002801D1A7
:1025E0000220FEBD01200AE0002801D1002006E003
:1025F0000120FEBD012804D1002902D10220C043E0
:10260000FEBD0320FEBD38B50400FFF779FF0028AA
:1026100001D0012032BDA1884801802212068D0020
:1026200001E05208401E23685B191B1F1B68134002
:10263000934201D0002AF4D132BD38B50400FFF72F
:102640005FFF01280FD0A1888800FF2212068D00AD
:1026500001E0120A401E23685B191B1F1B68134010
:1026600001D1002AF5D132BD10B50B000121DC06E5
:10267000E40E0122A24000685B099B00C058104094
:10268000904200D00021080010BD70B500230EE07C
:10269000551B4D192D1F2668EE702668360AAE7040
:1026A0002668360C6E702468240E2C705B1C541047
:1026B000A40FA418A6109D004419B342E8DBB00093
:1026C000131A05D0206801E0C854000A5B1EFBD530
:1026D00070BDF1B582B0002A03D0002803D10029D3
:1026E00001D09648FEBDC81C800800909079009BE0
:1026F000984201D22848FEBD002947D04810800FDB
:10270000401883100024002512E002980E1FAF002D
:10271000F61B861930780706707800043843B778BE
:102720003F020743F07838431668AF00F0516D1C44
:102730009D42EADB9079854204DA1068AE0084514C
:102740006D1CF7E78807800F10D011689B00C9182F
:10275000029B1B780B60012506E00B681B02029EA2
:10276000765D1E430E606D1C8542F6DB009800E02E
:10277000401E90809088136885005B191B1F1B68A2
:10278000002B01D1411EF3D1D47102E01000FFF7FC
:10279000C2FE0020FEBD0000B5140000F8B5040024
:1027A0000D001600FFF749FF002112E0831AEB1815
:1027B0001B1F2768BF58DF702768BF583F0A9F70EC
:1027C0002768BF583F0C5F702768BA58120E1A70FE
:1027D000491C8A0043109B0F1B189B109942E5DB94
:1027E0000321084209D023689A5801406C18641EDE
:1027F0002270120A491E0129F8DA002E00D030603A
:10280000F1BD70B582B006000D001400002E01D09D
:10281000002D01D1494876BDFFF70FFF009084429B
:1028200001DAAD4876BD6A46281900994B42C118B5
:102830003000FFF7B3FF0020002101E06854491C7D
:10284000009AA21A9142F9DB76BD0000FEB50500A0
:102850000F0000240094A979B879884200D30100C0
:10286000029A491C6846FFF7DFFD002801D0C548E1
:10287000FEBD012639002800FFF76CFEC01C0628AB
:102880005BD801A1095C8F4464584C3A584C06004F
:1028900000993800FFF708FE0099CC7100992800D4
:1028A000FFF758FE401C032847D801A1095C8F445C
:1028B0000282880A009A2900380036E0009A39001E
:1028C00028002AE0009A3900280000F021FAE8796F
:1028D0000099C87131E0009A3900280000F018FA18
:1028E0001DE0009A3900280000F012FA1FE000995C
:1028F0002800FFF7D9FD0099CC7139000098FFF747
:1029000029FE401C032818D801A1095C8F4400BF90
:1029100004242A14009A2900380000F089F900984C
:10292000C4710AE0009A3900280000F081F900988B
:10293000C67102E00098FFF7EEFD4CE0B81400000D
:10294000FEB507000E0000250095B979B0798842E0
:1029500000D30100029A6846FFF766FD002801D007
:102960008848FEBD01240098848031003800FFF7BC
:10297000F1FDC01C06282ED801A1095C8F4400BFC0
:10298000483C342C1C140800009A3100380000F038
:10299000BFF908E0009A3100380002E0009A3900DF
:1029A000300000F045F90098C57114E00098FFF779
:1029B000B2FD10E0009A3900300002E0009A3100C8
:1029C000380000F035F904E0009A3100380000F0DA
:1029D0009FF90098C47100210198FFF74BFD019900
:1029E0000098FFF761FD040002996846FFF734FD87
:1029F0002000FEBD38B50400FFF782FD00281FD17E
:102A0000A088010009E08B00D21813685B00151F35
:102A10002D68ED0F1D431560491E22680029F2D173
:102A200011684900116081005158012908D1401CEA
:102A3000A080A17980B2401C814201D2264832BDDB
:102A4000002032BD58B50400FFF75AFD002815D10B
:102A500004E04B68DB0713430B60401C21688200D5
:102A600089180A685208A3885E1EB042F1D30A6032
:102A7000022B03D3002A01D1581EA08051BDB0B54E
:102A800082B004000D00A079A1884919884201DABA
:102A90001148B6BD2000FFF733FD002819D12800EA
:102AA00017D06846A188018004E08B00C7584B19F5
:102AB0009B00C750491E2068F7D10168AB00C15088
:102AC000002D02D0A90002F058F96846008840198C
:102AD000A0800020B6BD0000B51400000A0000D19F
:102AE0007047F8B582880B0093420CD3FFF713FDB3
:102AF000F1BD04689D0065195E1AB6002F68A751E4
:102B000000242C605B1C9342F3D3511A8180F1BDE9
:102B1000F2B582B0002933D00023818802688C008E
:102B2000141901942024029D641B6D462C70019C95
:102B3000241F24682D78EC4000D023004C1E0EE0AA
:102B4000A50055192E68029FBE40B4462E1F376857
:102B50006E463678F740664637432F60641EEFD1E5
:102B60001468029DAC401460002B09D084794A1C83
:102B7000944201D26548FEBD019A1360491C8180D0
:102B80000020FEBDED030000002900D1704770B5A4
:102B900020291CD200220AE09300EB181D68CD40CA
:102BA0005C682026761AB4402C431C60521C838833
:102BB00005685E1EB242EFD39A00AA18121F15686C
:102BC000CD40156003D1012B01D0591E818070BD0D
:102BD000F2B582B00400002926D000220023276825
:102BE000002510E00092019330680021029A01F064
:102BF0004FFE02000B000098002112184B4132607A
:102C00001A0000236D1CA8003E18A0888542E9D355
:102C1000002A0BD0A579411C8D4201D2CB48FEBDC4
:102C2000401CA080326001E0FFF775FC0020FEBD73
:102C3000F5B583B00D0000200021039A9288AB887F
:102C4000934201D2019200E00193049CA479641C98
:102C5000019EB44207D22D4855E0039E3668970086
:102C6000F451521C92B20024039EB6799642F4DAD3
:102C70001E0003E0B700D451761CB6B22A68AF79C3
:102C8000B742F7DAA5000095039D2D68029506006E
:102C90000F0000996858002180197941009D56590C
:102CA0000027801BB941049D2D68009EA851080093
:102CB000C917641CA4B25E1CB442E3D3A600019AF7
:102CC00094420BD202000B00029880590021801818
:102CD0005941A8510800C917641CEFE7002803D028
:102CE0004000A919091F0860B148211800E009181F
:102CF00089B28A00AA58002A01D10029F7D1491CBB
:102D000004988180002005B0F0BD0000B5140000DB
:102D1000F1B58AB00B0016000020002108AA03C2FA
:102D20000A98006806901968059134686A460A9DF9
:102D3000AD8855809D8815802A466D466D88AA42CB
:102D40006A4602D21288049200E004952A460025C1
:102D500002E09700C551521C0A9FBF797F1CBA42FE
:102D6000F7D36846008802E082008D50401C9A79B3
:102D7000521C9042F8D368464088694609888842C8
:102D800002D331000A9801E031001800FFF78CFBF4
:102D900016E002900391069880580021009001915E
:102DA00005988058009A002380185941029A039B85
:102DB00080185941386008AA0800002103C26D1C20
:102DC000AA00A7180498854208A803C8E1D30028E0
:102DD00010D03868401C386005E06D1CA800201831
:102DE0000168491C0160A8002058002802D1B08861
:102DF000A842F2D2B08881006158002901D0401C5D
:102E0000B0800BB0F0BDF1B582B00C001600002010
:102E1000009002988179891C201DFFF705FB00288E
:102E200053D10298206000216068FFF723FB60689F
:102E300002998988491C818001210068029A928840
:102E40009200815002980068006801220325022345
:102E50001F21070057432F409F4200D3D2185B0029
:102E60006F0001257D40491EF3D15042A060320021
:102E700002988179491C6846FFF7D6FA002804D0E9
:102E80003100201DFFF7E8FA1FE000990298FFF7D4
:102E90000BFB20250098FFF7B6FB281AC006C00ED2
:102EA000019001460098FFF733FE626833000099F5
:102EB0001000FFF745FD002809D03100201DFFF765
:102EC000CBFA31006846FFF7C7FAD448FEBD0027A9
:102ED0001AE000990298FFF7E7FA29000098FFF737
:102EE00077FE01990098FFF713FE60683300020037
:102EF0000099FFF725FD60680068029989888900BC
:102F00004558002DE5D17F1C029881888F4209D257
:102F10006068026889005118091F0D680121FFF7D8
:102F2000AEFDEEE731006846FFF796FA0299606859
:102F3000FFF710FB012805DB6068330002000299EF
:102F4000FFF7FEFCE6600020FEBD0000B5140000A7
:102F500080B507E00021016081604168002900D14F
:102F6000704780B5C168001DFFF776FA01BD70B5E6
:102F700082B005000E00140000200090E268A979DC
:102F80006846FFF751FA002801D0A44876BD012118
:102F90000098FFF76FFA230032000099280000F034
:102FA00009F80500E1686846FFF756FA280076BD83
:102FB000FFFF0000FDB58EB00C00002000901098BF
:102FC00000688188019101680B912168079110992F
:102FD00089680C911099CA688179491C6846FFF785
:102FE00023FA002801D08D48C1E000210098FFF7A6
:102FF00041FA009800680490A0880199884206D29E
:10300000091A8900079A8000101801F0B4FE0E9882
:103010008088020001998A4207D2081A81000E981E
:1030200000689200801801F0A6FE0020039004982A
:10303000019989004018069044E0800005900498AA
:10304000059940180A9009980021079A059BD258C3
:10305000002301F01DFC001969410A9A1468241824
:103060004D413E0000270B98059940580021089AD1
:10307000002301F00DFC801979410026F64326401B
:1030800036184F410A98001F06600298401C0290B3
:103090002C000025029801998842CED3069800683A
:1030A0000021001969410022D24300230240BC18CC
:1030B0005D41069A121F146048190699086003982A
:1030C000401C039003980199884223D20E9800680F
:1030D00003998900405809900021079A126800233B
:1030E00001F0D6FB049A1468002524184D412000F5
:1030F0000C99484308900026F643002726400021FB
:103100000B9A1268002301F0C3FB801979410F006C
:103110000120BCE7481C00E0401E0099888000990F
:103120008988022906D3049A89005118091F096861
:103130000029F1D0109801680098FFF70BFA0028D9
:103140000AD40F9A109801680098FFF771FD0400E7
:1031500000200F99C87104E00F990098FFF7A4F9B7
:1031600004001098C1686846FFF776F9200011B096
:10317000F0BD70B514001E00049D2B00FFF766FB28
:10318000002804D0A188A279521C914212D13100AA
:103190002000FFF7DFF9002805D42B0022003100C2
:1031A0002000FFF7CDFBA079A188884201D2854895
:1031B00070BD002070BDF8B517001D00069C2300EF
:1031C000FFF7BEFB06000BD13800FFF7B5F900286A
:1031D00006D023003A0029003800FFF737FB06002D
:1031E0003000F2BDF8B504000E0017000025FFF70F
:1031F00001FC31002000FFF7ADF9002806D43B00A8
:10320000220031002000FFF79BFB0500A079A18878
:10321000884201D26B48F2BD2800F2BDED030000E8
:10322000F1B584B00F0016001C000020029003903E
:10323000019000903000FFF785F9002801D0624D21
:10324000BCE02200B17902A8FFF7EEF80500F7D143
:103250002200B17903A8FFF7E7F8050000D0A9E044
:103260002200B179491C01A8FFF7DEF8050000D063
:103270009CE02200B179491C6846FFF7D5F80500AB
:1032800000D08FE002990498FFF70EF9050015D1E0
:1032900003993000FFF708F905000FD101210198CB
:1032A000FFF7E8F800210098FFF7E4F80DE02300AD
:1032B000029A03991046FFF743FB05006ED12300E5
:1032C000019A00991046FFF73BFB0298FFF718F9A7
:1032D000002820D00098FFF72FF9002853D02300B2
:1032E000009A31001046FFF7B1FA050056D1F1E718
:1032F0000298FFF7A7FB0198FFF724F9002807D1F0
:103300002300019A31001046FFF7A0FA050045D1CD
:103310000198FFF797FB0298FFF714F90028E7D10F
:103320000398FFF70FF9002813D00398FFF78AFBE3
:103330000098FFF707F9002807D12300009A310011
:103340001046FFF783FA050028D10098FFF77AFBB3
:10335000E6E703990298FFF7FDF80028A7D52300B8
:10336000039A02991046FFF7EBFA050016D12300E5
:10337000009A0199A6E72300009A31001046FFF752
:10338000DFFA05000AD131000098FFF7E3F80028C2
:10339000F1D539000098FFF787F80500210068464D
:1033A000FFF75AF8210001A8FFF756F8210003A8FB
:1033B000FFF752F8210002A8FFF74EF8280005B0E9
:1033C000F0BD0000B5140000B6140000F7B58EB0D3
:1033D0001E0000200390012702900025069001970F
:1033E0000F988088022801D30420019010988079DA
:1033F0000199491E0CAA1170012112789140049183
:103400001699C988169A9488049A92009446049B47
:1034100082000D3253436246D218C00010181C308F
:1034200080B20818844200DABAE0169800684018A2
:103430000090049880000B9008181699C880009896
:10344000002800D1ACE0169A07A91098FFF7DBFC22
:1034500000282DD107AB0E9A08991046FFF7AAFD58
:10346000002825D107A8FFF773FD00240AE0169A6B
:10347000109881790098A300C018FEF7D5FF0028A6
:1034800016D1641C04988442F1DB00213000FEF761
:10349000F1FF009801680E98FFF706F8002409E094
:1034A0000098006807AB02000100FFF783FD0028C9
:1034B00076D1641C0198401E8442F1DB01240CE0AB
:1034C0000098A100401807AB02680E99001F006821
:1034D000FFF770FD002863D1641C04988442EFDB81
:1034E0000F988088401E059031000E98FEF7DCFF93
:1034F00003E0002857D0012002907F1E39D10598A3
:103500000021C94388422AD1029802281BD103987E
:10351000012818DB044607AB320031003000FFF70A
:1035200049FD00283CD16D0001982900C140C80721
:1035300007D507AB32000E993000FFF73BFD00289E
:103540002ED1641EE7D107AA31003000FFF70FFD2E
:10355000002825D107A8FFF7FDFC002458E00F98AC
:10356000006805998900405806900598401E05900E
:1035700020270698C00F0699490006910299014339
:10358000BBD002990029B4D001290CD100280AD15E
:1035900007AB320031003000FFF70CFD0028ACD043
:1035A000214811B0F0BD0399491C03910199039A78
:1035B000891A884028430500022002900398019947
:1035C00088429AD1002407E0320031003000FFF732
:1035D000F1FC0028E4D1641C0198844207ABF3DBC2
:1035E0003200009801210CAC2478A1408D43A90041
:1035F00041583000FFF7DEFC0028D1D103900025B0
:1036000079E716990098A2008018FEF725FF641C40
:1036100004988442F5DB1698C0880B99401A1699D5
:10362000C8800020BDE70000ED030000F8B50400ED
:103630000E0015001F0000F0DAFE002806D13B0046
:1036400072686168286B8068FFF77AF9F2BDF8B597
:1036500007000E001400387B800704D0380000F00B
:10366000C6FE050072E000200090387B400712D5AE
:10367000B168B868FFF77BFC050067D1316838682E
:10368000FEF712FF050061D171687868FEF70CFF44
:1036900005005BD10FE02300326861683868FFF7EE
:1036A00089FC050052D12300726861687868FFF7D1
:1036B00081FC05004AD1B068E36822680100FFF789
:1036C000AFFD050042D1B268230061681000FFF72A
:1036D00071FC05003AD1E268206881796846FEF7FE
:1036E000A3FE050032D1B1682300009A0800FFF75D
:1036F00061FC050004D0E1686846FEF7ADFE25E0F8
:103700003068230002000099FFF754FCB0682300E2
:1037100002000099FFF74EFCE1686846FEF79CFE48
:10372000716823000A00B068FFF744FC05000DD162
:103730002100300000F02CF80500B068012102687B
:103740001160002203685A60818031732800F2BD45
:1037500038B505000C000020297B890717D42A689A
:10376000230061681000FFF725FC00280FD168686E
:10377000230002006168FFF71DFCA8682300020017
:103780006168FFF717FC297B04220A432A7332BDC4
:1037900038B504000D000020217B06220A40042ACF
:1037A00014D121682A000800FFF7E1FB00280DD1A1
:1037B00060682A000100FFF7DAFBA0682A00010018
:1037C000FFF7D5FB217BFB220A40227332BDFAB5FD
:1037D00085B00700160000200290019003900C9D18
:1037E000EA6828688179491C02A8FEF71DFE0400DA
:1037F00000D00BE1EA6828688179491C01A8FEF72E
:1038000013FE040000D0FDE0EA6828688179491CB5
:1038100003A8FEF709FE040000D0EFE0387B800724
:103820000598007B04D5800772D43100059803E029
:10383000810704D53100380000F0D9FDDAE0C00777
:103840001CD4059880682B00029A0100FFF7B2FB98
:103850000400F3D12B00326802993868FFF7AAFB05
:103860002B00039A029905988068FFF7A3FB2B00B1
:10387000726803997868FFF79DFB09E03168386842
:10388000FEF712FE0400D9D171687868FEF70CFECD
:10389000B9682B00029A0800FFF78CFB0400CDD119
:1038A0002B00019A029905980068FFF783FBE868EE
:1038B00000902B68019A31681046FFF77CFC0400E9
:1038C00025D12B00029A1146B868FFF773FB2B0035
:1038D000029A114605984068FFF76CFBE868009073
:1038E0002B68039A71680298FFF765FC0198FEF750
:1038F00007FE01280ED10398FEF702FE012807D12A
:103900002B00069A3100380000F083F8040071E0C3
:1039100002206EE0B868B2680599097BC90707D430
:103920002B0005998968FFF745FB040062D104E08C
:103930001100FEF7B9FD04005CD1B0682B00020055
:103940000199FFF737FB040054D12B00029A01992B
:103950000846FFF72FFB2B00019A02991046FFF74C
:1039600029FB2B00029A31681046FFF723FB706891
:103970002B0002000199FFF71DFB2B003268039911
:103980000846FFF717FB3068E96800912B680200D2
:103990000199FFF710FC04002CD101990298FEF761
:1039A00083FDEA6829680198FFF71CFC040021D117
:1039B0003068E96800912B6802000199FFF7FBFB72
:1039C000E86800902B68019A31680298FFF7F3FBD2
:1039D0002B00019A03991046FFF7ECFA040009D175
:1039E0007168E86800902B680A000198FFF7E3FB14
:1039F00004203073E96803A8FEF72EFDE96801A8EA
:103A0000FEF72AFDE96802A8FEF726FD200007B0B0
:103A1000F0BDF4B584B007000E001C00002001903A
:103A20000290E26820688179891C02A8FEF7FCFCFC
:103A3000050000D0F9E0E26820688179891C01A8BE
:103A4000FEF7F2FC050000D0EBE00221C94302982A
:103A5000FEF710FD0220397B014201D03073DBE01C
:103A600004203073B8682300019A0100FFF7A2FA1E
:103A7000050000D0D1E02300B2687968B868FFF78C
:103A800099FAE2682168B068FFF7ACFB05006FD1D6
:103A9000E368029A21681046FEF7D8FE0498006B8E
:103AA00001680298FEF756FD00282FD1E0680090CB
:103AB0002368029A01993868FFF77DFB050057D10A
:103AC000E06800902368326801993868FFF751FB7D
:103AD00005004DD12300019A02993068FFF76AFA78
:103AE000050045D102990198FEF7DEFCE2682168E5
:103AF0000298FFF777FB05003AD1E0680090236851
:103B0000019A11460298FFF734FB32E02300019A34
:103B100011460846FFF74EFA050029D12300029A04
:103B200061680498006B0068FFF744FA2300019A6B
:103B300011460298FFF73EFA39682300029A0800FE
:103B4000FFF738FAE06800902368019A029910465E
:103B5000FFF70FFBE26821680298FFF743FBE0687C
:103B600000902368019A02991046FFF702FB0500B6
:103B700053D17868230032680100FFF71BFA050073
:103B80004BD1E26821683068FFF72CFB30682300D6
:103B9000029A0100FFF70EFAE26821680298FFF727
:103BA00021FBE26821683068FFF71CFB2300726884
:103BB00031683868FFF7FEF905002ED1230032681E
:103BC00001990846FFF7F6F93268E068009023682B
:103BD00071681000FFF7EFFA3068E1680091236820
:103BE00002007168FFF7E7FA7068E16800912368E6
:103BF00002003168FFF7DFFA716823000A000198BC
:103C0000FFF7D8F97068E168009123680200029913
:103C1000FFF7D1FA050000D10025E16801A8FEF701
:103C20001BFCE16802A8FEF717FC280005B0F0BDF8
:103C3000F6B593B007000AA83CA12022FCF7E8FEE5
:103C400002A800BF41A12022FCF7E2FE00240026CA
:103C50000FE013980068009940180168019A0A4320
:103C6000026014980068009940180168019A0A439C
:103C70000260F006C00E01218140019171098900A6
:103C80000091B9884A0196421BD231003800FEF7F4
:103C9000EBFC0500761C31003800FEF7E5FCA900BE
:103CA00062000A431043800002A90C580AA9085870
:103CB000012804D00021C9438842CAD0D9E713980B
:103CC000D0E70AAAE300D258012A04D00023DB433C
:103CD0009A420ED023E0491C13988180B988491C70
:103CE00013980068009A83181868019A02431A60B2
:103CF00018E0491C139A9180B988491C139A1268DC
:103D0000009BD31801228240186810431860149851
:103D10000068009BC01803681A43026002E0139811
:103D20008180B9881498818015B0F0BD0000000032
:103D30000000000001000000FFFFFFFF0100000085
:103D4000FFFFFFFF00000000000000000000000077
:103D50000000000000000000010000000000000062
:103D6000010000000100000001000000FAB587B06A
:103D70000600170000200390019005900290049027
:103D80000E9CE268089903A800F04BFA050000D0E9
:103D900090E00399079800F02AFB21000398FFF7B1
:103DA000D7FC050006D1E268B179491C02A8FEF7EC
:103DB0003BFB05007AD1E268B179491C04A8FEF703
:103DC00033FB05006ED100210298FEF753FB002162
:103DD0000498FEF74FFB049A02993000FFF728FF82
:103DE000E268089901A800F01CFA050056D10220EB
:103DF00001990873E268089905A800F012FA050015
:103E000048D1E368089A05990398FFF70FFC05006D
:103E10003CD10298808846010EE001280CD1009424
:103E2000089B3A0005990198FFF7D1FC05002DD1B8
:103E30000199380000F0DBFA761E22D42300089A9C
:103E400039000198FFF7E5FD05001FD10199380001
:103E500000F0CDFA31000298FEF706FC05003100B3
:103E60000498FEF701FC012DE6D10028D5D100947D
:103E7000089B3A0003990198FFF7A9FC050005D1BA
:103E8000D6E73900019800F0B2FA0500E16805A80C
:103E900000F034FAE16801A800F030FAE16804A803
:103EA000FEF7DAFAE16802A8FEF7D6FAE16803A89D
:103EB00000F024FA280009B0F0BDF7B584B01E0068
:103EC00000200290039001900E9C21000598FFF7BE
:103ED0003FFC050005D1E2680D9902A800F0A1F9A8
:103EE000050000D07FE00299300000F080FA210048
:103EF0000298FFF72DFC050071D1E2680D9901A829
:103F000000F08FF905006AD1022601980673E26875
:103F10000D9903A800F085F905005CD1039806739C
:103F200000940D9B039A02990598FFF750FC050039
:103F30004DD10498808806998988814200D3080071
:103F40004601761E0C9F0FE001280CD100940D9BBA
:103F50003A0003990198FFF73AFC050037D101991F
:103F6000380000F044FA761E002E2BD423000D9A60
:103F700039000198FFF74DFD050028D1019938005F
:103F800000F035FA31000498FEF76EFB05003100B1
:103F90000698FEF769FB012D0BD10028D4D10094BF
:103FA0000D9B3A0005990198FFF711FC05000ED111
:103FB000D5E7002DD7D10128D5D100940D9B3A002B
:103FC0000299F0E73900019800F011FA0500E16864
:103FD00003A800F093F9E16801A800F08FF9E16807
:103FE00002A800F08BF9280007B0F0BDF8B5040076
:103FF0000F00002C01D0002F01D1BD4DBFE0206982
:10400000002813D06169481E44280FD22068002878
:104010000CD06068452809D2A069002806D0E06964
:10402000401E442802D23A68002A01D1B14DA6E0D0
:10403000C91CB148BB888D08AD00062675436035A4
:10404000AB4201D205009AE0FB88D51825631833EE
:10405000FB80002D00D193E03A0089082800083049
:10406000FEF7E2F9050000D084E03A006069C01C68
:104070008108206BFEF7D8F9050076D1206B026825
:1040800061682068FEF725FB0600206B8268616985
:104090002069FEF71EFB00903A00E069C01C810811
:1040A000206B0C30FEF7C0F905005AD1009D206B43
:1040B000C268E169A069FEF70CFB28183618206B6E
:1040C0000021416001614161A168002912D0E168CD
:1040D0004A1E432A0ED23A00C91C8908001DFEF769
:1040E000A3F9050038D1206B4268E168A068FEF7AB
:1040F000F0FA3618206A00284BD0606A411E432926
:1041000047D2A16A002944D0E16A491E432940D21E
:104110003A00C01C8108206B1030FEF785F90500BD
:1041200015D1206B0269616A206AFEF7D2FA00900D
:104130003A00E06AC01C8108206B1430FEF774F965
:104140000500206B1DD039001030FEF785F93900CD
:10415000206B001DFEF780F93900206B0C30FEF754
:104160007BF93900206BFEF777F93900206B0830B6
:10417000FEF772F9F8881838F880002020632800CC
:10418000F2BD009D4269E16AA06AFEF7A2FA281812
:104190003618002E01D0AE4DF1E70025EFE738B517
:1041A00005000C00002D01D0002C01D1504832BD7B
:1041B000286B002805D00168002902D081680029F9
:1041C00001D14C4832BD2100FEF746F92100286B91
:1041D0000830FEF741F9286BC168002903D021009F
:1041E0000C30FEF739F9286B4168002903D0210013
:1041F000001DFEF731F9286B0169002903D0210069
:104200001030FEF729F9286B4169002903D02100FD
:104210001430FEF721F9E0881838E0800020286388
:1042200032BDF8B504000E001500002E03D0002D9D
:1042300001D0002C01D12E48F2BD306B002805D0F2
:104240002968002902D08368002B01D12948F2BDDA
:10425000EA88AF88BC469B799B005F00FB18D318A7
:1042600034339C452DD38B1823601032EA802A000A
:10427000806881791800FEF7D7F800281CD12A0041
:10428000306B806881792068001DFEF7CDF800282A
:104290000ED12A00306B8068817920680830FEF7E3
:1042A000C3F800280FD029002068001DFEF7D4F8BD
:1042B00029002068FEF7D0F8E8881038E880002050
:1042C00020600D48F2BD002120680068FEF7D2F89A
:1042D000002120684068FEF7CDF801212068806841
:1042E000FEF7C8F80120216808730020F2BD000025
:1042F0005414000053140000ED03000038B505000D
:104300000C00002D01D0002C01D1894832BD286855
:10431000002801D1874832BD0830FEF79DF8210002
:104320002868001DFEF798F821002868FEF794F829
:10433000E0881038E0800020286032BD38B50400E5
:104340000D001000002C0CD000280AD0002B08D43F
:104350002268002A05D06168002902D0A468002CD8
:1043600001D1734832BD002D05D0022D02D007D2F5
:104370000A0000E022001900FEF7ABF9002800D087
:10438000334832BD70B50C0011001A0000280CD063
:1043900000290AD0002A08D00368002B05D0456800
:1043A000002D02D08068002801D1614870BD9E793F
:1043B000B6001660002C03D0022C07D003D30AE00D
:1043C0001268180003E01268280000E01268FEF787
:1043D00018FA002800D01E4870BD002801D15448AA
:1043E0007047007B7047002800D00173704738B5D4
:1043F00004000D000020002C13D0002D11D02268E5
:10440000002A0ED0616800290BD0A168002908D0CD
:104410002968002905D06B68002B02D0AB68002BFF
:1044200001D1434832BD237B2B73237B9B070ED4E2
:104430001000FEF739F8002809D169686068FEF7B6
:1044400033F8002803D1A968A068FEF72DF832BD23
:10445000BF140000F8B50500002903D0002A01D0E0
:10446000002D01D13248F2BD086B002805D011683B
:10447000002902D0C668002E01D12E48F2BDD38893
:104480006B4C9788B679B6009E191036B7420BD39D
:10449000CE182E6008D01B1DD380C06881793000F3
:1044A000FDF7C2FF002801D02000F2BD00212868DE
:1044B0000068FDF7DFFF0020F2BD38B505000C00F5
:1044C000002D01D0002C01D1194832BD28680028E8
:1044D00004D0FDF7C1FFE088001F2BE7554832BD2F
:1044E00080B5030008001100002B01D0002801D185
:1044F0000F4802BD1A68002A01D14E4802BDFEF7DE
:10450000E8F802BD80B5002803D0002901D0002AB8
:1045100001D1074802BD03689B799B0013601268B4
:104520000068FEF76EF9002800D0434802BD000085
:104530005414000053140000F8B586B007000D00B5
:104540001400002F08D0002D06D0002C04D0002B22
:1045500002D00C9A002A01D1AE4828E0196B00293C
:1045600001D1AD4823E08868002802D009680029FD
:1045700001D1AA481BE02968002902D00968002956
:1045800001D12C4813E001A9FEF73DFC06000DD136
:1045900001A80090069B220039002868FFF7E6FB7F
:1045A000002806D0244E01A8FEF7D4FC300007B046
:1045B000F0BD01AA21002000FFF749F8060001A87C
:1045C000FEF7C8FC002E01D01B4EEFE7207B8007D2
:1045D00001D5934EEAE7012020730020E7E770B58C
:1045E00004000E00002C01D0002E01D1894D1CE0EA
:1045F000316B002905D00869002802D049690029DB
:1046000001D1854D11E02168FDF74EFF05000CD169
:104610006168306B4069FDF747FF050005D1012156
:10462000A068FDF727FF01202073280070BD00005F
:10463000ED03000056140000BF140000F1B588B06F
:104640000C0016000027019703970297089800288E
:1046500003D0002C01D0002E01D16E4DD7E0206B8D
:10466000002801D16C4DD2E08168002908D0C168D2
:10467000002905D04168002902D00068002801D136
:10468000664DC4E00898FFF7A8FE022801D1654DE9
:10469000BDE0306800280BD0B088F188226B9268AA
:1046A0009279920093009A1889184C31884201D26D
:1046B0005D48ADE03200210001A8FFF7B2FD050022
:1046C000E6D1206B816808980068FDF743FF002859
:1046D00007D5206B816808984068FDF73BFF0028EC
:1046E00001D4504D8FE001990898FFF780FE050036
:1046F000F8D1320004A9206B8068FEF784FB050026
:10470000F0D13200206B8068817902A8FDF78CFE21
:10471000050075D13200206B8068817903A8FDF710
:1047200083FE050068D10198006804AB020005997A
:10473000FEF740FC05005BD10198426804AB059987
:104740001000FEF737FC050052D10198016804AB58
:1047500082680800FEF72EFC050049D10299206B03
:104760000068FDF7A1FE04AB039A05990298FEF7D5
:1047700021FC05003CD1019880680096049B020052
:104780000399FEF7F6FC050032D10198816804AB6D
:104790000A000068FEF70EFC050029D10299206B83
:1047A0004068FDF781FE04AB039A05990298FEF775
:1047B00001FC05001CD1019880680096049B020052
:1047C0000399FEF7D6FC050012D10198406804ABAE
:1047D00001990A680100FEF7EDFB050008D1114DB3
:1047E000019881680068FDF7B5FE002800D100251A
:1047F000310003A8FDF730FE310002A8FDF72CFEC2
:1048000004A8FEF7A7FB310001A8FFF777FD2800F9
:1048100009B0F0BD541400005314000057140000F8
:104820005814000055140000ED03000010B50322D9
:1048300002700021417081700123C37003714371C4
:1048400005248471C3710172427204224281612382
:1048500083810223C3810182418201754375827580
:10486000C3750179012907D0022905D0032903D096
:10487000042901D0052908D14079012803D0022854
:1048800001D0032801D1002010BD0020C04310BD7D
:104890004343514330B55C18010C130C0D4692B2E2
:1048A0005D4380B251432C19054655430A0C090457
:1048B0004D1962415843010C00044019514130BD6B
:1048C0000FB4054910B503AA029801F019FA10BCFB
:1048D00008BC04B0184700002C03002070B5044643
:1048E00085690068C10601D5302600E02026C00792
:1048F00007D070BD62683046A1689047206A401CAE
:1049000020626D1EF6D570BD70B5044685690078CD
:10491000C00707D170BD6268A16820209047206A57
:10492000401C20626D1EF6D570BD70B50C46054664
:10493000012A05D02878800600D5EA69002302E024
:10494000012305E05B1C934202D2E05C0028F9D110
:10495000A869E618C01AA861286AC0182862284603
:10496000FFF7BCFF04E06A682078A968641C9047E0
:10497000B442F8D32846FFF7C7FF70BDF7B500254E
:1049800075291068009914A611D0C046C0460028A9
:1049900002DA404211A608E0009909688A0701D5A9
:1049A0000FA602E0490704D50EA6012501E0C04686
:1049B000C046009F0024243704E001F0B5F93031EF
:1049C0003955641C0028F8D12B4632462146009800
:1049D00000F01CFFFEBD0000000000002D000000E4
:1049E0002B0000002000000070B50D46018809056D
:1049F00002D51D4C7C4402E01B4C7C440E34034623
:104A00000021243305E016071209360FA65D5E5417
:104A1000491C002AF7D102780023120705D5702D12
:104A200007D0002901D002231134224600F0EEFE07
:104A300070BD01231034F8E770B504460D462146D9
:104A40001068C046C046024629462046FFF7CCFF04
:104A500070BD30B403682024126823430360082328
:104A6000C36130BCC0E70000AD250200F3B50446C9
:104A7000002081B020622046E168884700287DD070
:104A8000252802D06268A16883E0454F00257F4455
:104A90002046E16888472028064608DB312E06D2EA
:104AA000B81920380078002801D00543F0E7A8079E
:104AB00001D5042085430020E0610746A0612A2E2D
:104AC0000AD030461CF02AF9002827D0B800001977
:104AD000303E0090866119E00298BA00121902C8AF
:104AE000916102902046E1688847012F064617D160
:104AF000E06900281FDA202085431CE000980A2185
:104B00008069484300998019303888612046E168FF
:104B1000884706461CF002F90028EFD1012F0AD081
:104B20002E2E08D12046E1688847064620200543FE
:104B30007F1C022FC3DBA069002803DA4042A0617A
:104B400001200543E80701D010208543002E24D022
:104B500030464138192803D80120C00205432036C9
:104B6000204625603146029A1546FBF71DFF0028B6
:104B70000CD0012807D0ED1DE80800E00DE0C000D2
:104B80000830029077E72D1D029574E76268304681
:104B9000A1689047206A401C6CE7206AFEBD0000B7
:104BA0003B250200034610B50B439B070FD1042A97
:104BB0000DD308C810C9121FA342F8D018BA21BAE1
:104BC000884201D9012010BD0020C04310BD002A39
:104BD00003D0D30703D0521C07E0002010BD037898
:104BE0000C78401C491C1B1B07D103780C78401C17
:104BF000491C1B1B01D1921EF1D1184610BD10B5E6
:104C0000044600F002F8204610BDF8B5042A2CD363
:104C1000830712D00B78491C0370401C521E830777
:104C20000BD00B78491C0370401C521E830704D024
:104C30000B78491C0370401C521E8B079B0F05D03C
:104C4000C91ADF002023DE1B08C90AE0FBF7E0FEDB
:104C5000F8BD1D4608C9FD401C46B4402C4310C099
:104C6000121F042AF5D2F308C91A521EF0D40B7889
:104C7000491C0370401C521EEAD40B78491C037077
:104C8000401C012AE4D409780170F8BD431A70B5BC
:104C900093421BD28918801804E0491E401E0B78ED
:104CA000521E03709307F8D106E01039103878C906
:104CB000103978C01038103A102AF6D203E0091FD4
:104CC000001F0B680360121FF9D570BDFBF7A0FE33
:104CD00070BDF8B5064614460843800707D0751A1C
:104CE000A54219D20819102D13D2311907E0304608
:104CF000FFF7CCFFF8BD401E491E02780A70641E03
:104D0000F9D2F8BD471B2A463946FFF77EFF641BE0
:104D10003846A542F6D3011B22463046FFF775FF01
:104D2000F8BD134610B50446CAB2194610028218DF
:104D300010048218204600F00FF8204610BD01E054
:104D400004C0091F0429FBD28B0701D50280801CF7
:104D5000C90700D00270704700290BD0C30702D0EA
:104D60000270401C491E022904D3830702D5028029
:104D7000801C891EE3E70022EEE70022DFE70378CC
:104D8000C2781946437812061B0219438378C0780B
:104D90001B04194311430902090A0006084370471E
:104DA000020A08704A70020C8A70020ECA707047BC
:104DB000002203098B4273D3030A8B4258D3030B9F
:104DC0008B423CD3030C8B4221D312E003460B43AE
:104DD0007FD4002243088B4274D303098B425FD3F4
:104DE000030A8B4244D3030B8B4228D3030C8B4220
:104DF0000DD3FF22090212BA030C8B4202D3121206
:104E0000090265D0030B8B4219D300E0090AC30BDA
:104E10008B4201D3CB03C01A5241830B8B4201D387
:104E20008B03C01A5241430B8B4201D34B03C01A70
:104E30005241030B8B4201D30B03C01A5241C30AE8
:104E40008B4201D3CB02C01A5241830A8B4201D359
:104E50008B02C01A5241430A8B4201D34B02C01A43
:104E60005241030A8B4201D30B02C01A5241CDD2E8
:104E7000C3098B4201D3CB01C01A524183098B4233
:104E800001D38B01C01A524143098B4201D34B011C
:104E9000C01A524103098B4201D30B01C01A52417F
:104EA000C3088B4201D3CB00C01A524183088B4206
:104EB00001D38B00C01A524143088B4201D34B00EF
:104EC000C01A5241411A00D2014652411046704761
:104ED0005DE0CA0F00D04942031000D34042534066
:104EE00000229C4603098B422DD3030A8B4212D326
:104EF000FC22890112BA030A8B420CD38901921158
:104F00008B4208D3890192118B4204D389013AD094
:104F1000921100E08909C3098B4201D3CB01C01A69
:104F2000524183098B4201D38B01C01A524143097C
:104F30008B4201D34B01C01A524103098B4201D36A
:104F40000B01C01A5241C3088B4201D3CB00C01AD7
:104F5000524183088B4201D38B00C01A5241D9D2EF
:104F600043088B4201D34B00C01A5241411A00D270
:104F70000146634652415B10104601D34042002B6C
:104F800000D54942704763465B1000D3404201B5EB
:104F90000020C046C04602BD0246C80FC00781437C
:104FA0004B0030B54B405B009B0D20D01923DB0636
:104FB000C91801231B05994220DB0324A4070425FB
:104FC0001346AB400BD3002B04D1EB0613409B00E0
:104FD000E34204D401246407002312195941FF233A
:104FE0001B0599420BD2C9000143500F09E0CB02C7
:104FF00004D501430803024305D0054830BDFF2115
:10500000C905084330BD084607210905884330BD5E
:105010000000C07FF0B50C46871A9C410D46861AE9
:105020009D4103D2C01BA141D21963410D0D1F0D3B
:10503000C94EEC1BAE435CD07F057F0D0026002FD0
:1050400051D02D05AC46A943DD020123ED0A1B0515
:105050001D4320231B1B24D41746E74038187141F9
:105060002F46E740CC199D402818314661410C0D70
:1050700027D161449A4013D50023401C5941520066
:105080000ED14008400001224B005205D34207D305
:1050900005204007C14201D5B04900E0B049304683
:1050A000F0BD6B00002A00D001229A181F23203C7B
:1050B0001B1B01D5002302E0E540281871410C0DAF
:1050C000D7D0012424050919C407CD074008490891
:1050D000E40F28436144002CD5D00024401C6141DA
:1050E0009A40D0D1CDE76A05520DD9D1C90FC90771
:1050F000D5E79C4D4E00002801D0012400E000249B
:1051000034195F00002A01D0012600E00026BE19F4
:10511000954FAC420CD8AE420AD8B44206D0012515
:105120006D05EC42BCD010461946F0BD9942FCD04A
:1051300000203946F0BDF0B51FB40C460F46811A69
:105140009F412546861A9D4106D20125ED076F40F5
:10515000401ABC4152187B41210D1E0D8D1BAC46DF
:105160007D4D8D437ED075056D0D7CD00D05AE4611
:10517000AC431B031B0B794D52429D4120236646D5
:105180009B1B14D31746F740381800260090744133
:1051900060462F460741E41900989D402818664153
:1051A00016D4714671189A4025D5012320E0931832
:1051B0002A466A415200002B00D0521C1E23203E7A
:1051C0009B1B002B61DD3541EE1728186641E8D5A1
:1051D000001876415B1C9A4000D3401C4B05F31825
:1051E0001524E34010D3002B52D071467118D30F11
:1051F000C01802D3491C05B0F0BD0123DB079A4259
:10520000F9D140084000F6E701225205B21801D159
:10521000002853D00123CC0ADB029943891E002ABF
:1052200008D1020C03D0020C0004103902E002463F
:10523000002020390023550B05D112020823550BFD
:1052400001D152010D23550C01D112011B1DD50CAA
:1052500001D192009B1C150D01D152005B1C202531
:10526000EE1A01E02CE022E00546F5401543984097
:10527000CA1AE10769181305C918002ABBDA032006
:1052800040070818C10FC9070FE071466118B2E75F
:10529000F10740080843711071444A000CD0012303
:1052A0005B059A42A7D2C90FC9070020A3E74905A9
:1052B000490D26D1002001E00028F4D100219AE711
:1052C000284D6600002801D0012100E0002171185E
:1052D0005F00002A01D0012600E00026BE19224FFF
:1052E000A94210D8AE420ED8B14208D001256D05B2
:1052F000E94206D01946A802414010467BE79C428D
:1053000001D0214677E70020394674E710B50C46F6
:105310005C4005D50124E4076340FFF70CFF10BD96
:10532000FFF778FE10BD30B40C465C4004D5012474
:10533000E407634030BC6DE630BCFCE670B5012488
:10534000E40761400D465D4002D4FFF763FE70BD87
:105350006340FFF7F0FE70BDFF0700000000F0FFA4
:105360000000F07F0000E0FF0000F87FF0B58B4CFC
:105370000F09254689B0BD437BD01D092646AE43A3
:10538000FAD00E465E402740F60F3E43254071D0CE
:1053900024012142FBD0FF24AD19A4042D1B039549
:1053A00001252D05DB02DB0AC9022B43C90A29436B
:1053B0001E010901040F130F050121431701880B7A
:1053C000820391432D098C46A90B1E438A03954302
:1053D000B30B9A0396433F09BA0B9403A743029673
:1053E0002E467E430497B6464E19D7190C460196B1
:1053F000544305977E43371B7646BF1B3601B6469E
:10540000BE0B361900967646BC043719009C01D3B2
:10541000641C00946400002F01D001263443029ED6
:10542000049F754366467E430496760034196E00E9
:1054300034190094029C019E1C196643751BAE46EC
:10544000069465464519059C05956C435943754678
:105450000891691A0191049E01465143A41B0491CD
:10546000611A009C0791E10605D0610901221143F0
:1054700002E072E06EE06109089D00272C0A2D060B
:105480006918049D7C412A0A2D066918019D624114
:10549000AC0DAD026D185441079A910D9202551949
:1054A0006141029A644658435443069B059A5A4305
:1054B000121A131B9A0E9B015B187A41010B00050F
:1054C000C3185141220A200644195A419A4200D277
:1054D000491C01204002814203D315230226F643D2
:1054E00002E014230326F6432020C51AA9401746DC
:1054F000AF40DA400A4320460399D8400914731894
:1055000019055118039A3843D2075140AC4009D0CD
:105510000122944006D30022401C5141002C01D1AD
:10552000400840001E4A934212D30122039892067B
:10553000904207DB0520400709181A480143C012B2
:10554000414004E0032040070818C10FC9070020AC
:1055500009B0F0BD0020F107FAE705180C464C41F0
:1055600011486D42A04115D394181A465A410E486D
:10557000644290410ED301204A004005824209D383
:105580005A00824206D35940C90F084AC907002071
:105590001143DDE700200649DAE700000000FF07BD
:1055A000FE070000FFFFFF7F0000E0FF0000F07F2C
:1055B0000000F87F0121C9050123411842001B06A4
:1055C000D3185B0E0AD0C1100722D20689184007F3
:1055D0005242D14201D5520089187047090208D5BC
:1055E0000146002A03D0C10FC907002070471046AA
:1055F0007047420202D00020024970470721090586
:105600000143F4E70000F87FF0B5FF252D04C6093B
:10561000C209FF2704462E400137CB093E434840CC
:105620002A402B400746002A6BD0002B69D0AA42A3
:1056300067D0AB4265D0002800DA32460125ED057F
:1056400029432C4309022002090AD21A4B0C7F2459
:10565000E31A434C000A7C44E35C7D2424041219C1
:1056600014145B00A218884201D3521C00E04000D1
:1056700049420C465C4324115C43DB016415E3188A
:10568000040A5C43C502200D0C4644436419250AF4
:105690005D432303EC0C0D46654300030019EB1832
:1056A0004C42A34201D35B18401CD4052018002BA8
:1056B00007D05B00C91804D3401C002901D1400861
:1056C00040003F2189048A4209D3002A08DC1106E0
:1056D000090F04D0032149074018C00FC007F0BDCF
:1056E00001224100120689187F2252069142F6D209
:1056F00005214907C84201D59010F0BDFF20C00523
:10570000F0BD002F00DA32461648AA4207D2AB425B
:1057100005D21902090E17D0F80FC007F0BDFF25FA
:1057200063002D06AB42F9D84900A942F6D8AB4236
:1057300001D1A942F2D0A94201D1002101E06100CA
:105740004908D0050843F0BD1102090EFBD0FF2027
:105750000243D005F0BD0A460146104654E700005A
:10576000841902000000C07F0102C21504D0012389
:10577000DB071943002A0ADB9E239A1A02D4084643
:10578000D0407047FF2241001206914201D900200B
:105790007047C017C04370471F22030C02D10F226D
:1057A00000041CD0030E01D10002083A030F01D1FE
:1057B0000001121F830F01D18000921E002801DB1F
:1057C0004000521ED2055118021251181922904061
:1057D00004D3491C002801D14908490008467047F4
:1057E000C10FC90700D04042012292071143D3E7FD
:1057F00001218907D0E710B500F0AEFD006810BDAB
:1058000010B5044600F0A8FD046010BDFFB50446C5
:105810000D4681B0243000902168880604D51022FE
:10582000E0699143216000E00120A84201DD471BAF
:1058300000E000270498A1697A191018081AA061DD
:105840002078C00602D42046FFF748F8002608E07A
:1058500003986268A168805D9047206A401C761CAE
:10586000206204988642F3DB2078C0060AD52046E1
:10587000FFF734F806E06268A16830209047206A9C
:10588000401C206238467F1E0028F4DC07E00098A8
:105890006268A168405D9047206A401C20622846EB
:1058A0006D1E0028F3DC2046FFF72EF82078000656
:1058B00002D5022005B0F0BD0120FBE77047FFB51F
:1058C0000C461E468FB003CA089009914F007D0D0B
:1058D00000D16D1E002108460020C0460321099A10
:1058E00089050840002A03DA820080184008084031
:1058F000800D01280A9002DD0020C0430A9008981C
:1059000007430DD0EF48F04928184843071418986A
:1059100000281DD07542291E1DDD0A9842421BE059
:105920001898012802D00020302104E00020F24322
:1059300005E02154401CB042FBDB30460022189B9E
:10594000002121540F998B600A60486013B0F0BDAC
:10595000BD1B6D1CDFE70A9A002900DA69420BA81B
:1059600000F098FD0BAB07CB03AB07C30899099870
:1059700000F0F4FD6B4607C30146D4480918002D1A
:1059800000910ADDD14903980A9A4942401803A9B7
:105990000390684601F015F807E003990A9A081881
:1059A00003A90390684600F0D4FF6B4607C30004C8
:1059B000000C03D00020C043410800E01046189AB4
:1059C000002A03D00022009215461EE0751E05D461
:1059D00000F0C6FC303262556D1EF9D50122084335
:1059E000079602D000227F1C04E02078302801D1E5
:1059F00000227F1E002A069789D01EE0112D07DAAB
:105A000000F0AEFC303262556D1C02460A43F5D1FF
:105A1000084303D00098002819D00EE00021681E2A
:105A200005E0235C625C63542254401E491C8142A1
:105A3000F7DBA81B401E07950690079A18990020CF
:105A4000A0540F98079B069A81600CC07EE7112630
:105A5000002018905BE7D21DF0B50D460446D10832
:105A600093B0C90003C90C900D911AF095FF02463E
:105A70000D98C00F01D02D2007E02068810701D5C7
:105A80002B2002E04007C00F4001032A0F9001D0F5
:105A9000072A05DB03462946204600F0B7FC0EE145
:105AA0002078800601D5E76900E006272846652DA5
:105AB00004D0662814D0672D69D12DE00020112F65
:105AC000009001DB112300E07B1C0CAA03A910A8A5
:105AD000FFF7F5FE1199002610987D1C0E9142E00B
:105AE00001203B460CAAC0070B900120009003A99F
:105AF00010A8FFF7E4FE119D1298109900260028C7
:105B00000E9501D1781C0D18781B02D446427D1CDD
:105B1000761EE81B00903AE0012F00DA01270020F2
:105B2000112F009001DD112300E03B460CAA03A9D0
:105B300010A8FFF7C4FE11993D46109800260E915B
:105B4000217809070BD40E99A94200DA0D4603A962
:105B5000012D04DD4A19203AD27F302A06D0B842FE
:105B600001DA011D04DA012100910FE06D1EEFE75B
:105B7000002802DC86192D1A03E0411CA94200DD31
:105B80000D46801B401C00900120C0070B90207820
:105B9000000705D40098A84202DB0020C043009013
:105BA00069460020C8720B98012102AF0337C9076C
:105BB000884225D0022010902B2011900B980028AD
:105BC0000BDA40420B902D20119006E00B9800F06C
:105BD000ABF830317F1E0B9039701099481E0029A8
:105BE0001090F3DC0B980028F0D111987F1E3870CC
:105BF0002088000501D5452000E065207F1E387013
:105C000001A8C01BC01D0B900F98002800D00120D8
:105C100041190098C01709180B980818A169081AAB
:105C2000401EA0612078C00602D42046FEF756FE32
:105C30000F98002805D06268A1689047206A401C30
:105C400020622078C00625D52046FEF747FE21E0D9
:105C5000002E07DB0E98B04204DD03A86268805D69
:105C6000A16802E06268A16830209047206A761C33
:105C7000401C20620098401E002800900AD100F0CD
:105C800067FBC06862680168405CA1689047206A51
:105C9000401C206228466D1E0028D9DC07E062689F
:105CA0003878A1687F1C9047206A401C20620B99BD
:105CB000481E00290B90F2DC2046FEF725FE03204B
:105CC00044E6000001FCFFFF104D0000E1DFFFFF94
:105CD00010B54369002B02D0C046C04601E0FEF774
